{
	"contracts/lottery.sol": {
		"enterLottery": {
			"abi": [
				{
					"inputs": [],
					"stateMutability": "payable",
					"type": "constructor"
				},
				{
					"anonymous": false,
					"inputs": [
						{
							"indexed": false,
							"internalType": "address",
							"name": "winner",
							"type": "address"
						},
						{
							"indexed": false,
							"internalType": "uint256",
							"name": "Amount",
							"type": "uint256"
						}
					],
					"name": "Winner",
					"type": "event"
				},
				{
					"inputs": [
						{
							"internalType": "address",
							"name": "",
							"type": "address"
						}
					],
					"name": "Playermap",
					"outputs": [
						{
							"internalType": "bool",
							"name": "IsInLotteryPool",
							"type": "bool"
						},
						{
							"internalType": "uint256",
							"name": "betingNum",
							"type": "uint256"
						},
						{
							"internalType": "uint256",
							"name": "amount",
							"type": "uint256"
						},
						{
							"internalType": "address",
							"name": "playerAddress",
							"type": "address"
						},
						{
							"internalType": "bool",
							"name": "BalanceCredited",
							"type": "bool"
						}
					],
					"stateMutability": "view",
					"type": "function"
				},
				{
					"inputs": [
						{
							"internalType": "uint256",
							"name": "",
							"type": "uint256"
						},
						{
							"internalType": "uint256",
							"name": "",
							"type": "uint256"
						}
					],
					"name": "completedBets",
					"outputs": [
						{
							"internalType": "bool",
							"name": "IsInLotteryPool",
							"type": "bool"
						},
						{
							"internalType": "uint256",
							"name": "betingNum",
							"type": "uint256"
						},
						{
							"internalType": "uint256",
							"name": "amount",
							"type": "uint256"
						},
						{
							"internalType": "address",
							"name": "playerAddress",
							"type": "address"
						},
						{
							"internalType": "bool",
							"name": "BalanceCredited",
							"type": "bool"
						}
					],
					"stateMutability": "view",
					"type": "function"
				},
				{
					"inputs": [],
					"name": "deposit",
					"outputs": [
						{
							"internalType": "uint256",
							"name": "",
							"type": "uint256"
						}
					],
					"stateMutability": "payable",
					"type": "function"
				},
				{
					"inputs": [
						{
							"internalType": "uint256",
							"name": "_betNum",
							"type": "uint256"
						},
						{
							"internalType": "uint256",
							"name": "_amount",
							"type": "uint256"
						}
					],
					"name": "enterLotery",
					"outputs": [],
					"stateMutability": "nonpayable",
					"type": "function"
				},
				{
					"inputs": [
						{
							"internalType": "address",
							"name": "_playerAddress",
							"type": "address"
						}
					],
					"name": "getBalance",
					"outputs": [
						{
							"internalType": "uint256",
							"name": "balance",
							"type": "uint256"
						}
					],
					"stateMutability": "view",
					"type": "function"
				},
				{
					"inputs": [],
					"name": "getRandomNumber",
					"outputs": [
						{
							"internalType": "bytes32",
							"name": "requestId",
							"type": "bytes32"
						}
					],
					"stateMutability": "nonpayable",
					"type": "function"
				},
				{
					"inputs": [],
					"name": "i_admin",
					"outputs": [
						{
							"internalType": "address payable",
							"name": "",
							"type": "address"
						}
					],
					"stateMutability": "view",
					"type": "function"
				},
				{
					"inputs": [],
					"name": "pickWinner",
					"outputs": [],
					"stateMutability": "nonpayable",
					"type": "function"
				},
				{
					"inputs": [],
					"name": "randomResult",
					"outputs": [
						{
							"internalType": "uint256",
							"name": "",
							"type": "uint256"
						}
					],
					"stateMutability": "view",
					"type": "function"
				},
				{
					"inputs": [
						{
							"internalType": "bytes32",
							"name": "requestId",
							"type": "bytes32"
						},
						{
							"internalType": "uint256",
							"name": "randomness",
							"type": "uint256"
						}
					],
					"name": "rawFulfillRandomness",
					"outputs": [],
					"stateMutability": "nonpayable",
					"type": "function"
				},
				{
					"inputs": [
						{
							"internalType": "uint256",
							"name": "withdrawAmount",
							"type": "uint256"
						}
					],
					"name": "withdraw",
					"outputs": [
						{
							"internalType": "uint256",
							"name": "remainingBal",
							"type": "uint256"
						}
					],
					"stateMutability": "nonpayable",
					"type": "function"
				}
			],
			"devdoc": {
				"kind": "dev",
				"methods": {},
				"version": 1
			},
			"evm": {
				"assembly": "    /* \"contracts/lottery.sol\":219:6307  contract enterLottery is VRFConsumerBase{\r... */\n  0xe0\n  0x40\n  dup2\n  dup2\n  mstore\n    /* \"@chainlink/contracts/src/v0.8/VRFConsumerBase.sol\":9306:9338  vrfCoordinator = _vrfCoordinator */\n  mstore(0xa0, 0xb3dccb4cf7a26f6cf6b120cf5a73875b7bbc655b000000000000000000000000)\n    /* \"@chainlink/contracts/src/v0.8/VRFConsumerBase.sol\":9344:9376  LINK = LinkTokenInterface(_link) */\n  mstore(0x80, 0x01be23585060835e02b77ef475b0cc51aa1e0709000000000000000000000000)\n    /* \"contracts/lottery.sol\":1362:1428  0x2ed0feb3e7fd2022120aa84fab1945545a9f2ffc9076fd6156fa96eaff4c1311 */\n  0x2ed0feb3e7fd2022120aa84fab1945545a9f2ffc9076fd6156fa96eaff4c1311\n    /* \"contracts/lottery.sol\":1352:1359  keyHash */\n  0x06\n    /* \"contracts/lottery.sol\":1352:1428  keyHash = 0x2ed0feb3e7fd2022120aa84fab1945545a9f2ffc9076fd6156fa96eaff4c1311 */\n  sstore\n    /* \"contracts/lottery.sol\":1446:1460  0.1 * 10 ** 18 */\n  0x016345785d8a0000\n    /* \"contracts/lottery.sol\":1440:1443  fee */\n  0x07\n    /* \"contracts/lottery.sol\":1440:1460  fee = 0.1 * 10 ** 18 */\n  sstore\n    /* \"contracts/lottery.sol\":1536:1546  msg.sender */\n  caller\n    /* \"@chainlink/contracts/src/v0.8/VRFConsumerBase.sol\":9306:9338  vrfCoordinator = _vrfCoordinator */\n  0x01000000000000000000000000\n    /* \"contracts/lottery.sol\":1518:1547  i_admin = payable(msg.sender) */\n  dup2\n  mul\n  0xc0\n  mstore\n  0x00\n    /* \"contracts/lottery.sol\":1558:1585  BalanceOfPlayer[msg.sender] */\n  dup2\n  dup2\n  mstore\n    /* \"contracts/lottery.sol\":1558:1573  BalanceOfPlayer */\n  0x03\n  0x20\n    /* \"contracts/lottery.sol\":1558:1585  BalanceOfPlayer[msg.sender] */\n  mstore\n  swap2\n  dup3\n  keccak256\n    /* \"contracts/lottery.sol\":1588:1593  10000 */\n  0x2710\n    /* \"contracts/lottery.sol\":1558:1593  BalanceOfPlayer[msg.sender] = 10000 */\n  swap1\n  sstore\n  swap1\n  swap2\n    /* \"contracts/lottery.sol\":1684:1693  0.01*1e18 */\n  0x2386f26fc10000\n  swap1\n  dup4\n    /* \"contracts/lottery.sol\":219:6307  contract enterLottery is VRFConsumerBase{\r... */\n  dup2\n  dup2\n  dup2\n    /* \"contracts/lottery.sol\":1684:1693  0.01*1e18 */\n  dup6\n    /* \"contracts/lottery.sol\":1536:1546  msg.sender */\n  dup8\n    /* \"contracts/lottery.sol\":1662:1698  msg.sender.call{value:0.01*1e18}(\"\") */\n  gas\n  call\n  swap3\n  pop\n  pop\n  pop\n  returndatasize\n  dup1\n  0x00\n  dup2\n  eq\n  tag_9\n  jumpi\n  mload(0x40)\n  swap2\n  pop\n  and(add(returndatasize, 0x3f), not(0x1f))\n  dup3\n  add\n  0x40\n  mstore\n  returndatasize\n  dup3\n  mstore\n  returndatasize\n  0x00\n  0x20\n  dup5\n  add\n  returndatacopy\n  jump(tag_8)\ntag_9:\n  0x60\n  swap2\n  pop\ntag_8:\n  pop\n    /* \"contracts/lottery.sol\":1645:1698  (bool success,)= msg.sender.call{value:0.01*1e18}(\"\") */\n  pop\n  swap1\n  pop\n    /* \"contracts/lottery.sol\":1717:1724  success */\n  dup1\n    /* \"contracts/lottery.sol\":1709:1742  require(success,\"can't sent eth\") */\n  tag_10\n  jumpi\n  mload(0x40)\n  0x08c379a000000000000000000000000000000000000000000000000000000000\n  dup2\n  mstore\n    /* \"#utility.yul\":426:428   */\n  0x20\n    /* \"contracts/lottery.sol\":1709:1742  require(success,\"can't sent eth\") */\n  0x04\n  dup3\n  add\n    /* \"#utility.yul\":408:429   */\n  mstore\n    /* \"#utility.yul\":465:467   */\n  0x0e\n    /* \"#utility.yul\":445:463   */\n  0x24\n  dup3\n  add\n    /* \"#utility.yul\":438:468   */\n  mstore\n    /* \"#utility.yul\":504:520   */\n  0x63616e27742073656e7420657468000000000000000000000000000000000000\n    /* \"#utility.yul\":484:502   */\n  0x44\n  dup3\n  add\n    /* \"#utility.yul\":477:521   */\n  mstore\n    /* \"#utility.yul\":538:556   */\n  0x64\n  add\n    /* \"contracts/lottery.sol\":1709:1742  require(success,\"can't sent eth\") */\n  mload(0x40)\n  dup1\n  swap2\n  sub\n  swap1\n  revert\ntag_10:\n  pop\n    /* \"contracts/lottery.sol\":1777:1781  this */\n  address\n    /* \"contracts/lottery.sol\":1753:1783  BalanceOfPlayer[address(this)] */\n  0x00\n  swap1\n  dup2\n  mstore\n    /* \"contracts/lottery.sol\":1753:1768  BalanceOfPlayer */\n  0x03\n    /* \"contracts/lottery.sol\":1753:1783  BalanceOfPlayer[address(this)] */\n  0x20\n  mstore\n  0x40\n  swap1\n  keccak256\n    /* \"contracts/lottery.sol\":1786:1790  1000 */\n  0x03e8\n    /* \"contracts/lottery.sol\":1753:1790  BalanceOfPlayer[address(this)] = 1000 */\n  swap1\n  sstore\n    /* \"contracts/lottery.sol\":219:6307  contract enterLottery is VRFConsumerBase{\r... */\n  mload(0x80)\n  0x01000000000000000000000000\n  swap1\n  div\n  mload(0xa0)\n  0x01000000000000000000000000\n  swap1\n  div\n  mload(0xc0)\n  0x01000000000000000000000000\n  swap1\n  div\n  codecopy(0x00, dataOffset(sub_0), dataSize(sub_0))\n  0x00\n  assignImmutable(\"0x857e85748da10ccbe81de0660ded5eadee8cb2ec5755eca1592043b0a2bb582b\")\n  0x00\n  assignImmutable(\"0x6dbb33232cde86c8a04f90a8bed9fc1c5ef520188a14538d96eb100d69bc2a94\")\n  0x00\n  assignImmutable(\"0xb2219b801710730437d0358146c829b62297a059eceaa0b40b27aea2daecf595\")\n  return(0x00, dataSize(sub_0))\nstop\n\nsub_0: assembly {\n        /* \"contracts/lottery.sol\":219:6307  contract enterLottery is VRFConsumerBase{\r... */\n      mstore(0x40, 0x80)\n      jumpi(tag_1, lt(calldatasize, 0x04))\n      calldataload(0x00)\n      0x0100000000000000000000000000000000000000000000000000000000\n      swap1\n      div\n      dup1\n      0x87e19a2c\n      gt\n      tag_13\n      jumpi\n      dup1\n      0x87e19a2c\n      eq\n      tag_7\n      jumpi\n      dup1\n      0x94985ddd\n      eq\n      tag_8\n      jumpi\n      dup1\n      0xaaffe698\n      eq\n      tag_9\n      jumpi\n      dup1\n      0xd0e30db0\n      eq\n      tag_10\n      jumpi\n      dup1\n      0xdbdff2c1\n      eq\n      tag_11\n      jumpi\n      dup1\n      0xf8b2cb4f\n      eq\n      tag_12\n      jumpi\n      0x00\n      dup1\n      revert\n    tag_13:\n      dup1\n      0x2e1a7d4d\n      eq\n      tag_2\n      jumpi\n      dup1\n      0x2f33b820\n      eq\n      tag_3\n      jumpi\n      dup1\n      0x42619f66\n      eq\n      tag_4\n      jumpi\n      dup1\n      0x4c43d284\n      eq\n      tag_5\n      jumpi\n      dup1\n      0x5d495aea\n      eq\n      tag_6\n      jumpi\n    tag_1:\n      0x00\n      dup1\n      revert\n        /* \"contracts/lottery.sol\":5393:5855  function withdraw(uint withdrawAmount) public returns (uint remainingBal) {\r... */\n    tag_2:\n      callvalue\n      dup1\n      iszero\n      tag_14\n      jumpi\n      0x00\n      dup1\n      revert\n    tag_14:\n      pop\n      tag_15\n      tag_16\n      calldatasize\n      0x04\n      tag_17\n      jump\t// in\n    tag_16:\n      tag_18\n      jump\t// in\n    tag_15:\n      mload(0x40)\n        /* \"#utility.yul\":4209:4234   */\n      swap1\n      dup2\n      mstore\n        /* \"#utility.yul\":4197:4199   */\n      0x20\n        /* \"#utility.yul\":4182:4200   */\n      add\n        /* \"contracts/lottery.sol\":5393:5855  function withdraw(uint withdrawAmount) public returns (uint remainingBal) {\r... */\n    tag_19:\n      mload(0x40)\n      dup1\n      swap2\n      sub\n      swap1\n      return\n        /* \"contracts/lottery.sol\":780:829  mapping(uint256 => player[]) public completedBets */\n    tag_3:\n      callvalue\n      dup1\n      iszero\n      tag_21\n      jumpi\n      0x00\n      dup1\n      revert\n    tag_21:\n      pop\n      tag_22\n      tag_23\n      calldatasize\n      0x04\n      tag_47\n      jump\t// in\n    tag_23:\n      tag_25\n      jump\t// in\n    tag_22:\n      0x40\n      dup1\n      mload\n        /* \"#utility.yul\":3798:3812   */\n      swap6\n      iszero\n        /* \"#utility.yul\":3791:3813   */\n      iszero\n        /* \"#utility.yul\":3773:3814   */\n      dup7\n      mstore\n        /* \"#utility.yul\":3845:3847   */\n      0x20\n        /* \"#utility.yul\":3830:3848   */\n      dup7\n      add\n        /* \"#utility.yul\":3823:3857   */\n      swap5\n      swap1\n      swap5\n      mstore\n        /* \"#utility.yul\":3873:3891   */\n      swap3\n      dup5\n      add\n        /* \"#utility.yul\":3866:3900   */\n      swap2\n      swap1\n      swap2\n      mstore\n      sub(exp(0x02, 0xa0), 0x01)\n        /* \"#utility.yul\":3936:3991   */\n      and\n        /* \"#utility.yul\":3931:3933   */\n      0x60\n        /* \"#utility.yul\":3916:3934   */\n      dup4\n      add\n        /* \"#utility.yul\":3909:3992   */\n      mstore\n        /* \"#utility.yul\":4036:4050   */\n      iszero\n        /* \"#utility.yul\":4029:4051   */\n      iszero\n        /* \"#utility.yul\":4023:4026   */\n      0x80\n        /* \"#utility.yul\":4008:4027   */\n      dup3\n      add\n        /* \"#utility.yul\":4001:4052   */\n      mstore\n        /* \"#utility.yul\":3760:3763   */\n      0xa0\n        /* \"#utility.yul\":3745:3764   */\n      add\n        /* \"contracts/lottery.sol\":780:829  mapping(uint256 => player[]) public completedBets */\n      tag_19\n        /* \"#utility.yul\":3526:4058   */\n      jump\n        /* \"contracts/lottery.sol\":1088:1112  uint public randomResult */\n    tag_4:\n      callvalue\n      dup1\n      iszero\n      tag_28\n      jumpi\n      0x00\n      dup1\n      revert\n    tag_28:\n      pop\n      tag_15\n      sload(0x08)\n      dup2\n      jump\n        /* \"contracts/lottery.sol\":504:544  address payable public immutable i_admin */\n    tag_5:\n      callvalue\n      dup1\n      iszero\n      tag_32\n      jumpi\n      0x00\n      dup1\n      revert\n    tag_32:\n      pop\n      tag_33\n      immutable(\"0x857e85748da10ccbe81de0660ded5eadee8cb2ec5755eca1592043b0a2bb582b\")\n      dup2\n      jump\n    tag_33:\n      mload(0x40)\n      sub(exp(0x02, 0xa0), 0x01)\n        /* \"#utility.yul\":2116:2171   */\n      swap1\n      swap2\n      and\n        /* \"#utility.yul\":2098:2172   */\n      dup2\n      mstore\n        /* \"#utility.yul\":2086:2088   */\n      0x20\n        /* \"#utility.yul\":2071:2089   */\n      add\n        /* \"contracts/lottery.sol\":504:544  address payable public immutable i_admin */\n      tag_19\n        /* \"#utility.yul\":1952:2178   */\n      jump\n        /* \"contracts/lottery.sol\":4060:4134  function pickWinner() public adminOnly{\r... */\n    tag_6:\n      callvalue\n      dup1\n      iszero\n      tag_37\n      jumpi\n      0x00\n      dup1\n      revert\n    tag_37:\n      pop\n      tag_38\n      tag_39\n      jump\t// in\n    tag_38:\n      stop\n        /* \"contracts/lottery.sol\":2833:3897  function enterLotery(uint256 _betNum,uint256 _amount)public {\r... */\n    tag_7:\n      callvalue\n      dup1\n      iszero\n      tag_40\n      jumpi\n      0x00\n      dup1\n      revert\n    tag_40:\n      pop\n      tag_38\n      tag_42\n      calldatasize\n      0x04\n      tag_47\n      jump\t// in\n    tag_42:\n      tag_43\n      jump\t// in\n        /* \"@chainlink/contracts/src/v0.8/VRFConsumerBase.sol\":9576:9783  function rawFulfillRandomness(bytes32 requestId, uint256 randomness) external {... */\n    tag_8:\n      callvalue\n      dup1\n      iszero\n      tag_44\n      jumpi\n      0x00\n      dup1\n      revert\n    tag_44:\n      pop\n      tag_38\n      tag_46\n      calldatasize\n      0x04\n      tag_47\n      jump\t// in\n    tag_46:\n      tag_48\n      jump\t// in\n        /* \"contracts/lottery.sol\":637:681  mapping (address => player) public Playermap */\n    tag_9:\n      callvalue\n      dup1\n      iszero\n      tag_49\n      jumpi\n      0x00\n      dup1\n      revert\n    tag_49:\n      pop\n      tag_22\n      tag_51\n      calldatasize\n      0x04\n      tag_52\n      jump\t// in\n    tag_51:\n      0x02\n      0x20\n      dup2\n      swap1\n      mstore\n      0x00\n      swap2\n      dup3\n      mstore\n      0x40\n      swap1\n      swap2\n      keccak256\n      dup1\n      sload\n      0x01\n      dup3\n      add\n      sload\n      swap3\n      dup3\n      add\n      sload\n      0x03\n      swap1\n      swap3\n      add\n      sload\n      0xff\n      swap2\n      dup3\n      and\n      swap4\n      swap3\n      swap2\n      sub(exp(0x02, 0xa0), 0x01)\n      dup3\n      and\n      swap2\n      exp(0x02, 0xa0)\n      swap1\n      div\n      and\n      dup6\n      jump\n        /* \"contracts/lottery.sol\":5994:6197  function deposit() public payable returns (uint256){\r... */\n    tag_10:\n      tag_15\n      tag_56\n      jump\t// in\n        /* \"contracts/lottery.sol\":1815:2021  function getRandomNumber() public returns (bytes32 requestId) {\r... */\n    tag_11:\n      callvalue\n      dup1\n      iszero\n      tag_58\n      jumpi\n      0x00\n      dup1\n      revert\n    tag_58:\n      pop\n      tag_15\n      tag_60\n      jump\t// in\n        /* \"contracts/lottery.sol\":2189:2382  function getBalance(address _playerAddress) public view returns(uint256 balance){\r... */\n    tag_12:\n      callvalue\n      dup1\n      iszero\n      tag_63\n      jumpi\n      0x00\n      dup1\n      revert\n    tag_63:\n      pop\n      tag_15\n      tag_65\n      calldatasize\n      0x04\n      tag_52\n      jump\t// in\n    tag_65:\n      tag_66\n      jump\t// in\n        /* \"contracts/lottery.sol\":5393:5855  function withdraw(uint withdrawAmount) public returns (uint remainingBal) {\r... */\n    tag_18:\n        /* \"contracts/lottery.sol\":5590:5600  msg.sender */\n      caller\n        /* \"contracts/lottery.sol\":5448:5465  uint remainingBal */\n      0x00\n        /* \"contracts/lottery.sol\":5574:5601  BalanceOfPlayer[msg.sender] */\n      swap1\n      dup2\n      mstore\n        /* \"contracts/lottery.sol\":5574:5589  BalanceOfPlayer */\n      0x03\n        /* \"contracts/lottery.sol\":5574:5601  BalanceOfPlayer[msg.sender] */\n      0x20\n      mstore\n      0x40\n      dup2\n      keccak256\n      sload\n        /* \"contracts/lottery.sol\":5556:5601  withdrawAmount <= BalanceOfPlayer[msg.sender] */\n      dup3\n      gt\n        /* \"contracts/lottery.sol\":5552:5803  if (withdrawAmount <= BalanceOfPlayer[msg.sender]) {\r... */\n      tag_69\n      jumpi\n        /* \"contracts/lottery.sol\":5619:5631  bool success */\n      0x00\n        /* \"contracts/lottery.sol\":5635:5645  msg.sender */\n      caller\n        /* \"contracts/lottery.sol\":5657:5676  withdrawAmount*1e15 */\n      tag_70\n        /* \"contracts/lottery.sol\":5657:5671  withdrawAmount */\n      dup5\n        /* \"contracts/lottery.sol\":5672:5676  1e15 */\n      0x038d7ea4c68000\n        /* \"contracts/lottery.sol\":5657:5676  withdrawAmount*1e15 */\n      tag_71\n      jump\t// in\n    tag_70:\n        /* \"contracts/lottery.sol\":5635:5681  msg.sender.call{value:withdrawAmount*1e15}(\"\") */\n      mload(0x40)\n      0x00\n      dup2\n      dup2\n      dup2\n      dup6\n      dup8\n      gas\n      call\n      swap3\n      pop\n      pop\n      pop\n      returndatasize\n      dup1\n      0x00\n      dup2\n      eq\n      tag_76\n      jumpi\n      mload(0x40)\n      swap2\n      pop\n      and(add(returndatasize, 0x3f), not(0x1f))\n      dup3\n      add\n      0x40\n      mstore\n      returndatasize\n      dup3\n      mstore\n      returndatasize\n      0x00\n      0x20\n      dup5\n      add\n      returndatacopy\n      jump(tag_75)\n    tag_76:\n      0x60\n      swap2\n      pop\n    tag_75:\n      pop\n        /* \"contracts/lottery.sol\":5618:5681  (bool success,)= msg.sender.call{value:withdrawAmount*1e15}(\"\") */\n      pop\n      swap1\n      pop\n        /* \"contracts/lottery.sol\":5704:5711  success */\n      dup1\n        /* \"contracts/lottery.sol\":5696:5731  require(success,\" can't withdraw \") */\n      tag_77\n      jumpi\n      mload(0x40)\n      mul(0x461bcd, exp(0x02, 0xe5))\n      dup2\n      mstore\n        /* \"#utility.yul\":5506:5508   */\n      0x20\n        /* \"contracts/lottery.sol\":5696:5731  require(success,\" can't withdraw \") */\n      0x04\n      dup3\n      add\n        /* \"#utility.yul\":5488:5509   */\n      mstore\n        /* \"#utility.yul\":5545:5547   */\n      0x10\n        /* \"#utility.yul\":5525:5543   */\n      0x24\n      dup3\n      add\n        /* \"#utility.yul\":5518:5548   */\n      mstore\n        /* \"#utility.yul\":5584:5602   */\n      0x2063616e27742077697468647261772000000000000000000000000000000000\n        /* \"#utility.yul\":5564:5582   */\n      0x44\n      dup3\n      add\n        /* \"#utility.yul\":5557:5603   */\n      mstore\n        /* \"#utility.yul\":5620:5638   */\n      0x64\n      add\n        /* \"contracts/lottery.sol\":5696:5731  require(success,\" can't withdraw \") */\n    tag_78:\n      mload(0x40)\n      dup1\n      swap2\n      sub\n      swap1\n      revert\n    tag_77:\n        /* \"contracts/lottery.sol\":5762:5772  msg.sender */\n      caller\n        /* \"contracts/lottery.sol\":5746:5773  BalanceOfPlayer[msg.sender] */\n      0x00\n      swap1\n      dup2\n      mstore\n        /* \"contracts/lottery.sol\":5746:5761  BalanceOfPlayer */\n      0x03\n        /* \"contracts/lottery.sol\":5746:5773  BalanceOfPlayer[msg.sender] */\n      0x20\n      mstore\n      0x40\n      dup2\n      keccak256\n        /* \"contracts/lottery.sol\":5746:5791  BalanceOfPlayer[msg.sender] -= withdrawAmount */\n      dup1\n      sload\n        /* \"contracts/lottery.sol\":5777:5791  withdrawAmount */\n      dup6\n      swap3\n        /* \"contracts/lottery.sol\":5746:5773  BalanceOfPlayer[msg.sender] */\n      swap1\n        /* \"contracts/lottery.sol\":5746:5791  BalanceOfPlayer[msg.sender] -= withdrawAmount */\n      tag_80\n      swap1\n        /* \"contracts/lottery.sol\":5777:5791  withdrawAmount */\n      dup5\n      swap1\n        /* \"contracts/lottery.sol\":5746:5791  BalanceOfPlayer[msg.sender] -= withdrawAmount */\n      tag_81\n      jump\t// in\n    tag_80:\n      swap1\n      swap2\n      sstore\n      pop\n      pop\n      pop\n        /* \"contracts/lottery.sol\":5552:5803  if (withdrawAmount <= BalanceOfPlayer[msg.sender]) {\r... */\n    tag_69:\n      pop\n      pop\n        /* \"contracts/lottery.sol\":5836:5846  msg.sender */\n      caller\n        /* \"contracts/lottery.sol\":5820:5847  BalanceOfPlayer[msg.sender] */\n      0x00\n      swap1\n      dup2\n      mstore\n        /* \"contracts/lottery.sol\":5820:5835  BalanceOfPlayer */\n      0x03\n        /* \"contracts/lottery.sol\":5820:5847  BalanceOfPlayer[msg.sender] */\n      0x20\n      mstore\n      0x40\n      swap1\n      keccak256\n      sload\n      swap1\n        /* \"contracts/lottery.sol\":5393:5855  function withdraw(uint withdrawAmount) public returns (uint remainingBal) {\r... */\n      jump\t// out\n        /* \"contracts/lottery.sol\":780:829  mapping(uint256 => player[]) public completedBets */\n    tag_25:\n      mstore(0x20, 0x04)\n      dup2\n      0x00\n      mstore\n      keccak256(0x00, 0x40)\n      dup2\n      dup2\n      sload\n      dup2\n      lt\n      tag_82\n      jumpi\n      0x00\n      dup1\n      revert\n    tag_82:\n      0x00\n      swap2\n      dup3\n      mstore\n      0x20\n      swap1\n      swap2\n      keccak256\n      0x04\n      swap1\n      swap2\n      mul\n      add\n      dup1\n      sload\n      0x01\n      dup3\n      add\n      sload\n      0x02\n      dup4\n      add\n      sload\n      0x03\n      swap1\n      swap4\n      add\n      sload\n      0xff\n      swap3\n      dup4\n      and\n      swap6\n      pop\n      swap1\n      swap4\n      pop\n      sub(exp(0x02, 0xa0), 0x01)\n      dup2\n      and\n      swap2\n      exp(0x02, 0xa0)\n      swap1\n      swap2\n      div\n      and\n      dup6\n      jump\t// out\n        /* \"contracts/lottery.sol\":4060:4134  function pickWinner() public adminOnly{\r... */\n    tag_39:\n        /* \"contracts/lottery.sol\":6246:6256  msg.sender */\n      caller\n      sub(exp(0x02, 0xa0), 0x01)\n        /* \"contracts/lottery.sol\":6260:6267  i_admin */\n      immutable(\"0x857e85748da10ccbe81de0660ded5eadee8cb2ec5755eca1592043b0a2bb582b\")\n        /* \"contracts/lottery.sol\":6246:6267  msg.sender == i_admin */\n      and\n      eq\n        /* \"contracts/lottery.sol\":6238:6281  require(msg.sender == i_admin, \"Not admin\") */\n      tag_85\n      jumpi\n      mload(0x40)\n      mul(0x461bcd, exp(0x02, 0xe5))\n      dup2\n      mstore\n        /* \"#utility.yul\":7607:7609   */\n      0x20\n        /* \"contracts/lottery.sol\":6238:6281  require(msg.sender == i_admin, \"Not admin\") */\n      0x04\n      dup3\n      add\n        /* \"#utility.yul\":7589:7610   */\n      mstore\n        /* \"#utility.yul\":7646:7647   */\n      0x09\n        /* \"#utility.yul\":7626:7644   */\n      0x24\n      dup3\n      add\n        /* \"#utility.yul\":7619:7648   */\n      mstore\n        /* \"#utility.yul\":7684:7695   */\n      0x4e6f742061646d696e0000000000000000000000000000000000000000000000\n        /* \"#utility.yul\":7664:7682   */\n      0x44\n      dup3\n      add\n        /* \"#utility.yul\":7657:7696   */\n      mstore\n        /* \"#utility.yul\":7713:7731   */\n      0x64\n      add\n        /* \"contracts/lottery.sol\":6238:6281  require(msg.sender == i_admin, \"Not admin\") */\n      tag_78\n        /* \"#utility.yul\":7405:7737   */\n      jump\n        /* \"contracts/lottery.sol\":6238:6281  require(msg.sender == i_admin, \"Not admin\") */\n    tag_85:\n        /* \"contracts/lottery.sol\":4109:4126  getRandomNumber() */\n      tag_89\n        /* \"contracts/lottery.sol\":4109:4124  getRandomNumber */\n      tag_60\n        /* \"contracts/lottery.sol\":4109:4126  getRandomNumber() */\n      jump\t// in\n    tag_89:\n      pop\n        /* \"contracts/lottery.sol\":4060:4134  function pickWinner() public adminOnly{\r... */\n      jump\t// out\n        /* \"contracts/lottery.sol\":2833:3897  function enterLotery(uint256 _betNum,uint256 _amount)public {\r... */\n    tag_43:\n        /* \"contracts/lottery.sol\":2988:2998  msg.sender */\n      caller\n        /* \"contracts/lottery.sol\":2978:2999  Playermap[msg.sender] */\n      0x00\n      swap1\n      dup2\n      mstore\n        /* \"contracts/lottery.sol\":2978:2987  Playermap */\n      0x02\n        /* \"contracts/lottery.sol\":2978:2999  Playermap[msg.sender] */\n      0x20\n      mstore\n      0x40\n      swap1\n      keccak256\n        /* \"contracts/lottery.sol\":2978:3015  Playermap[msg.sender].IsInLotteryPool */\n      sload\n      0xff\n      and\n        /* \"contracts/lottery.sol\":2977:3015  !Playermap[msg.sender].IsInLotteryPool */\n      iszero\n        /* \"contracts/lottery.sol\":2955:3075  require(\r... */\n      tag_91\n      jumpi\n      mload(0x40)\n      mul(0x461bcd, exp(0x02, 0xe5))\n      dup2\n      mstore\n        /* \"#utility.yul\":5145:5147   */\n      0x20\n        /* \"contracts/lottery.sol\":2955:3075  require(\r... */\n      0x04\n      dup3\n      add\n        /* \"#utility.yul\":5127:5148   */\n      dup2\n      swap1\n      mstore\n        /* \"#utility.yul\":5164:5182   */\n      0x24\n      dup3\n      add\n        /* \"#utility.yul\":5157:5187   */\n      mstore\n        /* \"#utility.yul\":5223:5257   */\n      0x54686520706c6179657220616c726561647920697320696e206c6f7474657279\n        /* \"#utility.yul\":5203:5221   */\n      0x44\n      dup3\n      add\n        /* \"#utility.yul\":5196:5258   */\n      mstore\n        /* \"#utility.yul\":5275:5293   */\n      0x64\n      add\n        /* \"contracts/lottery.sol\":2955:3075  require(\r... */\n      tag_78\n        /* \"#utility.yul\":4943:5299   */\n      jump\n        /* \"contracts/lottery.sol\":2955:3075  require(\r... */\n    tag_91:\n        /* \"contracts/lottery.sol\":3206:3232  player memory playerPusher */\n      0x00\n        /* \"contracts/lottery.sol\":3233:3476  player(\r... */\n      mload(0x40)\n      dup1\n      0xa0\n      add\n      0x40\n      mstore\n      dup1\n        /* \"contracts/lottery.sol\":3289:3293  true */\n      0x01\n        /* \"contracts/lottery.sol\":3233:3476  player(\r... */\n      iszero\n      iszero\n      dup2\n      mstore\n      0x20\n      add\n        /* \"contracts/lottery.sol\":3322:3329  _betNum */\n      dup5\n        /* \"contracts/lottery.sol\":3233:3476  player(\r... */\n      dup2\n      mstore\n      0x20\n      add\n        /* \"contracts/lottery.sol\":3355:3362  _amount */\n      dup4\n        /* \"contracts/lottery.sol\":3233:3476  player(\r... */\n      dup2\n      mstore\n      0x20\n      add\n        /* \"contracts/lottery.sol\":3395:3405  msg.sender */\n      caller\n      sub(exp(0x02, 0xa0), 0x01)\n        /* \"contracts/lottery.sol\":3233:3476  player(\r... */\n      and\n      dup2\n      mstore\n      0x20\n      add\n        /* \"contracts/lottery.sol\":3440:3460  IsBalancecreditted() */\n      tag_94\n        /* \"contracts/lottery.sol\":3440:3458  IsBalancecreditted */\n      tag_95\n        /* \"contracts/lottery.sol\":3440:3460  IsBalancecreditted() */\n      jump\t// in\n    tag_94:\n        /* \"contracts/lottery.sol\":3233:3476  player(\r... */\n      iszero\n      iszero\n      swap1\n      mstore\n        /* \"contracts/lottery.sol\":3206:3476  player memory playerPusher=player(\r... */\n      swap1\n      pop\n        /* \"contracts/lottery.sol\":3495:3505  _betNum==0 */\n      dup3\n      iszero\n      dup1\n        /* \"contracts/lottery.sol\":3495:3519  _betNum==0 || _betNum==1 */\n      tag_96\n      jumpi\n      pop\n        /* \"contracts/lottery.sol\":3509:3516  _betNum */\n      dup3\n        /* \"contracts/lottery.sol\":3518:3519  1 */\n      0x01\n        /* \"contracts/lottery.sol\":3509:3519  _betNum==1 */\n      eq\n        /* \"contracts/lottery.sol\":3495:3519  _betNum==0 || _betNum==1 */\n    tag_96:\n        /* \"contracts/lottery.sol\":3487:3544  require(_betNum==0 || _betNum==1 , \"enter valid betting\") */\n      tag_97\n      jumpi\n      mload(0x40)\n      mul(0x461bcd, exp(0x02, 0xe5))\n      dup2\n      mstore\n        /* \"#utility.yul\":6567:6569   */\n      0x20\n        /* \"contracts/lottery.sol\":3487:3544  require(_betNum==0 || _betNum==1 , \"enter valid betting\") */\n      0x04\n      dup3\n      add\n        /* \"#utility.yul\":6549:6570   */\n      mstore\n        /* \"#utility.yul\":6606:6608   */\n      0x13\n        /* \"#utility.yul\":6586:6604   */\n      0x24\n      dup3\n      add\n        /* \"#utility.yul\":6579:6609   */\n      mstore\n        /* \"#utility.yul\":6645:6666   */\n      0x656e7465722076616c69642062657474696e6700000000000000000000000000\n        /* \"#utility.yul\":6625:6643   */\n      0x44\n      dup3\n      add\n        /* \"#utility.yul\":6618:6667   */\n      mstore\n        /* \"#utility.yul\":6684:6702   */\n      0x64\n      add\n        /* \"contracts/lottery.sol\":3487:3544  require(_betNum==0 || _betNum==1 , \"enter valid betting\") */\n      tag_78\n        /* \"#utility.yul\":6365:6708   */\n      jump\n        /* \"contracts/lottery.sol\":3487:3544  require(_betNum==0 || _betNum==1 , \"enter valid betting\") */\n    tag_97:\n        /* \"contracts/lottery.sol\":3573:3574  0 */\n      0x00\n        /* \"contracts/lottery.sol\":3563:3570  _amount */\n      dup3\n        /* \"contracts/lottery.sol\":3563:3574  _amount > 0 */\n      gt\n        /* \"contracts/lottery.sol\":3563:3616  _amount > 0 && _amount <= BalanceOfPlayer[msg.sender] */\n      dup1\n      iszero\n      tag_100\n      jumpi\n      pop\n        /* \"contracts/lottery.sol\":3605:3615  msg.sender */\n      caller\n        /* \"contracts/lottery.sol\":3589:3616  BalanceOfPlayer[msg.sender] */\n      0x00\n      swap1\n      dup2\n      mstore\n        /* \"contracts/lottery.sol\":3589:3604  BalanceOfPlayer */\n      0x03\n        /* \"contracts/lottery.sol\":3589:3616  BalanceOfPlayer[msg.sender] */\n      0x20\n      mstore\n      0x40\n      swap1\n      keccak256\n      sload\n        /* \"contracts/lottery.sol\":3578:3616  _amount <= BalanceOfPlayer[msg.sender] */\n      dup3\n      gt\n      iszero\n        /* \"contracts/lottery.sol\":3563:3616  _amount > 0 && _amount <= BalanceOfPlayer[msg.sender] */\n    tag_100:\n        /* \"contracts/lottery.sol\":3555:3640  require(_amount > 0 && _amount <= BalanceOfPlayer[msg.sender],\"check the bet amount\") */\n      tag_101\n      jumpi\n      mload(0x40)\n      mul(0x461bcd, exp(0x02, 0xe5))\n      dup2\n      mstore\n        /* \"#utility.yul\":6915:6917   */\n      0x20\n        /* \"contracts/lottery.sol\":3555:3640  require(_amount > 0 && _amount <= BalanceOfPlayer[msg.sender],\"check the bet amount\") */\n      0x04\n      dup3\n      add\n        /* \"#utility.yul\":6897:6918   */\n      mstore\n        /* \"#utility.yul\":6954:6956   */\n      0x14\n        /* \"#utility.yul\":6934:6952   */\n      0x24\n      dup3\n      add\n        /* \"#utility.yul\":6927:6957   */\n      mstore\n        /* \"#utility.yul\":6993:7015   */\n      0x636865636b207468652062657420616d6f756e74000000000000000000000000\n        /* \"#utility.yul\":6973:6991   */\n      0x44\n      dup3\n      add\n        /* \"#utility.yul\":6966:7016   */\n      mstore\n        /* \"#utility.yul\":7033:7051   */\n      0x64\n      add\n        /* \"contracts/lottery.sol\":3555:3640  require(_amount > 0 && _amount <= BalanceOfPlayer[msg.sender],\"check the bet amount\") */\n      tag_78\n        /* \"#utility.yul\":6713:7057   */\n      jump\n        /* \"contracts/lottery.sol\":3555:3640  require(_amount > 0 && _amount <= BalanceOfPlayer[msg.sender],\"check the bet amount\") */\n    tag_101:\n        /* \"contracts/lottery.sol\":3651:3658  Players */\n      0x01\n        /* \"contracts/lottery.sol\":3651:3677  Players.push(playerPusher) */\n      dup1\n      sload\n      dup1\n      dup3\n      add\n      dup3\n      sstore\n      0x00\n      dup3\n      dup2\n      mstore\n      dup4\n      mload\n      0x04\n      swap1\n      swap3\n      mul\n      0xb10e2d527612073b26eecdfd717e6a320cf44b4afac2b0732d9fcbe2b7fa0cf6\n      dup2\n      add\n      dup1\n      sload\n      swap4\n      iszero\n      iszero\n      not(0xff)\n      swap5\n      dup6\n      and\n      or\n      swap1\n      sstore\n      0x20\n      dup1\n      dup7\n      add\n      dup1\n      mload\n      0xb10e2d527612073b26eecdfd717e6a320cf44b4afac2b0732d9fcbe2b7fa0cf7\n      dup5\n      add\n      sstore\n      0x40\n      dup1\n      dup9\n      add\n      dup1\n      mload\n      0xb10e2d527612073b26eecdfd717e6a320cf44b4afac2b0732d9fcbe2b7fa0cf8\n      dup7\n      add\n      sstore\n      0x60\n      dup10\n      add\n      dup1\n      mload\n      0xb10e2d527612073b26eecdfd717e6a320cf44b4afac2b0732d9fcbe2b7fa0cf9\n      swap1\n      swap7\n      add\n      dup1\n      sload\n      0x80\n      dup13\n      add\n      dup1\n      mload\n      iszero\n      iszero\n      exp(0x02, 0xa0)\n      swap1\n      dup2\n      mul\n      not(0xffffffffffffffffffffffffffffffffffffffffff)\n      swap4\n      dup5\n      and\n      sub(exp(0x02, 0xa0), 0x01)\n      swap12\n      dup13\n      and\n      or\n      or\n      swap1\n      swap4\n      sstore\n        /* \"contracts/lottery.sol\":3698:3708  msg.sender */\n      caller\n        /* \"contracts/lottery.sol\":3688:3709  Playermap[msg.sender] */\n      dup11\n      mstore\n        /* \"contracts/lottery.sol\":3651:3677  Players.push(playerPusher) */\n      0x02\n        /* \"contracts/lottery.sol\":3688:3709  Playermap[msg.sender] */\n      dup1\n      dup10\n      mstore\n      dup7\n      dup12\n      keccak256\n        /* \"contracts/lottery.sol\":3688:3722  Playermap[msg.sender]=playerPusher */\n      dup15\n      mload\n      dup2\n      sload\n      swap1\n      iszero\n      iszero\n      swap14\n      and\n      swap13\n      swap1\n      swap13\n      or\n      dup13\n      sstore\n      swap7\n      mload\n      swap12\n      dup12\n      add\n      swap12\n      swap1\n      swap12\n      sstore\n      swap3\n      mload\n      swap5\n      dup10\n      add\n      swap5\n      swap1\n      swap5\n      sstore\n      mload\n        /* \"contracts/lottery.sol\":3651:3677  Players.push(playerPusher) */\n      0x03\n        /* \"contracts/lottery.sol\":3688:3722  Playermap[msg.sender]=playerPusher */\n      swap8\n      dup9\n      add\n      dup1\n      sload\n      swap10\n      mload\n      iszero\n      iszero\n      swap1\n      swap5\n      mul\n      swap9\n      swap1\n      swap2\n      and\n      swap5\n      and\n      swap4\n      swap1\n      swap4\n      or\n      swap6\n      swap1\n      swap6\n      or\n      swap1\n      swap5\n      sstore\n        /* \"contracts/lottery.sol\":3807:3834  BalanceOfPlayer[msg.sender] */\n      swap2\n      swap1\n      swap3\n      mstore\n      dup2\n      keccak256\n        /* \"contracts/lottery.sol\":3807:3845  BalanceOfPlayer[msg.sender] -= _amount */\n      dup1\n      sload\n        /* \"contracts/lottery.sol\":3838:3845  _amount */\n      dup5\n      swap3\n      swap1\n        /* \"contracts/lottery.sol\":3807:3845  BalanceOfPlayer[msg.sender] -= _amount */\n      tag_105\n      swap1\n        /* \"contracts/lottery.sol\":3838:3845  _amount */\n      dup5\n      swap1\n        /* \"contracts/lottery.sol\":3807:3845  BalanceOfPlayer[msg.sender] -= _amount */\n      tag_81\n      jump\t// in\n    tag_105:\n      swap1\n      swap2\n      sstore\n      pop\n      pop\n      sub(exp(0x02, 0xa0), 0x01)\n        /* \"contracts/lottery.sol\":3872:3879  i_admin */\n      immutable(\"0x857e85748da10ccbe81de0660ded5eadee8cb2ec5755eca1592043b0a2bb582b\")\n        /* \"contracts/lottery.sol\":3856:3880  BalanceOfPlayer[i_admin] */\n      and\n      0x00\n      swap1\n      dup2\n      mstore\n        /* \"contracts/lottery.sol\":3856:3871  BalanceOfPlayer */\n      0x03\n        /* \"contracts/lottery.sol\":3856:3880  BalanceOfPlayer[i_admin] */\n      0x20\n      mstore\n      0x40\n      dup2\n      keccak256\n        /* \"contracts/lottery.sol\":3856:3889  BalanceOfPlayer[i_admin]+=_amount */\n      dup1\n      sload\n        /* \"contracts/lottery.sol\":3882:3889  _amount */\n      dup5\n      swap3\n        /* \"contracts/lottery.sol\":3856:3880  BalanceOfPlayer[i_admin] */\n      swap1\n        /* \"contracts/lottery.sol\":3856:3889  BalanceOfPlayer[i_admin]+=_amount */\n      tag_106\n      swap1\n        /* \"contracts/lottery.sol\":3882:3889  _amount */\n      dup5\n      swap1\n        /* \"contracts/lottery.sol\":3856:3889  BalanceOfPlayer[i_admin]+=_amount */\n      tag_107\n      jump\t// in\n    tag_106:\n      swap1\n      swap2\n      sstore\n      pop\n      pop\n      pop\n      pop\n      pop\n        /* \"contracts/lottery.sol\":2833:3897  function enterLotery(uint256 _betNum,uint256 _amount)public {\r... */\n      jump\t// out\n        /* \"@chainlink/contracts/src/v0.8/VRFConsumerBase.sol\":9576:9783  function rawFulfillRandomness(bytes32 requestId, uint256 randomness) external {... */\n    tag_48:\n        /* \"@chainlink/contracts/src/v0.8/VRFConsumerBase.sol\":9668:9678  msg.sender */\n      caller\n      sub(exp(0x02, 0xa0), 0x01)\n        /* \"@chainlink/contracts/src/v0.8/VRFConsumerBase.sol\":9682:9696  vrfCoordinator */\n      immutable(\"0x6dbb33232cde86c8a04f90a8bed9fc1c5ef520188a14538d96eb100d69bc2a94\")\n        /* \"@chainlink/contracts/src/v0.8/VRFConsumerBase.sol\":9668:9696  msg.sender == vrfCoordinator */\n      and\n      eq\n        /* \"@chainlink/contracts/src/v0.8/VRFConsumerBase.sol\":9660:9732  require(msg.sender == vrfCoordinator, \"Only VRFCoordinator can fulfill\") */\n      tag_109\n      jumpi\n      mload(0x40)\n      mul(0x461bcd, exp(0x02, 0xe5))\n      dup2\n      mstore\n        /* \"#utility.yul\":6207:6209   */\n      0x20\n        /* \"@chainlink/contracts/src/v0.8/VRFConsumerBase.sol\":9660:9732  require(msg.sender == vrfCoordinator, \"Only VRFCoordinator can fulfill\") */\n      0x04\n      dup3\n      add\n        /* \"#utility.yul\":6189:6210   */\n      mstore\n        /* \"#utility.yul\":6246:6248   */\n      0x1f\n        /* \"#utility.yul\":6226:6244   */\n      0x24\n      dup3\n      add\n        /* \"#utility.yul\":6219:6249   */\n      mstore\n        /* \"#utility.yul\":6285:6318   */\n      0x4f6e6c7920565246436f6f7264696e61746f722063616e2066756c66696c6c00\n        /* \"#utility.yul\":6265:6283   */\n      0x44\n      dup3\n      add\n        /* \"#utility.yul\":6258:6319   */\n      mstore\n        /* \"#utility.yul\":6336:6354   */\n      0x64\n      add\n        /* \"@chainlink/contracts/src/v0.8/VRFConsumerBase.sol\":9660:9732  require(msg.sender == vrfCoordinator, \"Only VRFCoordinator can fulfill\") */\n      tag_78\n        /* \"#utility.yul\":6005:6360   */\n      jump\n        /* \"@chainlink/contracts/src/v0.8/VRFConsumerBase.sol\":9660:9732  require(msg.sender == vrfCoordinator, \"Only VRFCoordinator can fulfill\") */\n    tag_109:\n        /* \"@chainlink/contracts/src/v0.8/VRFConsumerBase.sol\":9738:9778  fulfillRandomness(requestId, randomness) */\n      tag_112\n        /* \"@chainlink/contracts/src/v0.8/VRFConsumerBase.sol\":9756:9765  requestId */\n      dup3\n        /* \"@chainlink/contracts/src/v0.8/VRFConsumerBase.sol\":9767:9777  randomness */\n      dup3\n        /* \"@chainlink/contracts/src/v0.8/VRFConsumerBase.sol\":9738:9755  fulfillRandomness */\n      tag_113\n        /* \"@chainlink/contracts/src/v0.8/VRFConsumerBase.sol\":9738:9778  fulfillRandomness(requestId, randomness) */\n      jump\t// in\n    tag_112:\n        /* \"@chainlink/contracts/src/v0.8/VRFConsumerBase.sol\":9576:9783  function rawFulfillRandomness(bytes32 requestId, uint256 randomness) external {... */\n      pop\n      pop\n      jump\t// out\n        /* \"contracts/lottery.sol\":5994:6197  function deposit() public payable returns (uint256){\r... */\n    tag_56:\n        /* \"contracts/lottery.sol\":6037:6044  uint256 */\n      0x00\n        /* \"contracts/lottery.sol\":6075:6085  0.001*1e18 */\n      0x038d7ea4c68000\n        /* \"contracts/lottery.sol\":6064:6073  msg.value */\n      callvalue\n        /* \"contracts/lottery.sol\":6064:6085  msg.value> 0.001*1e18 */\n      gt\n        /* \"contracts/lottery.sol\":6056:6103  require(msg.value> 0.001*1e18,\"not enough eth\") */\n      tag_115\n      jumpi\n      mload(0x40)\n      mul(0x461bcd, exp(0x02, 0xe5))\n      dup2\n      mstore\n        /* \"#utility.yul\":7264:7266   */\n      0x20\n        /* \"contracts/lottery.sol\":6056:6103  require(msg.value> 0.001*1e18,\"not enough eth\") */\n      0x04\n      dup3\n      add\n        /* \"#utility.yul\":7246:7267   */\n      mstore\n        /* \"#utility.yul\":7303:7305   */\n      0x0e\n        /* \"#utility.yul\":7283:7301   */\n      0x24\n      dup3\n      add\n        /* \"#utility.yul\":7276:7306   */\n      mstore\n        /* \"#utility.yul\":7342:7358   */\n      0x6e6f7420656e6f75676820657468000000000000000000000000000000000000\n        /* \"#utility.yul\":7322:7340   */\n      0x44\n      dup3\n      add\n        /* \"#utility.yul\":7315:7359   */\n      mstore\n        /* \"#utility.yul\":7376:7394   */\n      0x64\n      add\n        /* \"contracts/lottery.sol\":6056:6103  require(msg.value> 0.001*1e18,\"not enough eth\") */\n      tag_78\n        /* \"#utility.yul\":7062:7400   */\n      jump\n        /* \"contracts/lottery.sol\":6056:6103  require(msg.value> 0.001*1e18,\"not enough eth\") */\n    tag_115:\n        /* \"contracts/lottery.sol\":6143:6157  msg.value/1e15 */\n      tag_118\n        /* \"contracts/lottery.sol\":6153:6157  1e15 */\n      0x038d7ea4c68000\n        /* \"contracts/lottery.sol\":6143:6152  msg.value */\n      callvalue\n        /* \"contracts/lottery.sol\":6143:6157  msg.value/1e15 */\n      tag_119\n      jump\t// in\n    tag_118:\n        /* \"contracts/lottery.sol\":6130:6140  msg.sender */\n      caller\n        /* \"contracts/lottery.sol\":6114:6141  BalanceOfPlayer[msg.sender] */\n      0x00\n      swap1\n      dup2\n      mstore\n        /* \"contracts/lottery.sol\":6114:6129  BalanceOfPlayer */\n      0x03\n        /* \"contracts/lottery.sol\":6114:6141  BalanceOfPlayer[msg.sender] */\n      0x20\n      mstore\n      0x40\n      dup2\n      keccak256\n        /* \"contracts/lottery.sol\":6114:6157  BalanceOfPlayer[msg.sender]+=msg.value/1e15 */\n      dup1\n      sload\n        /* \"contracts/lottery.sol\":6114:6141  BalanceOfPlayer[msg.sender] */\n      swap1\n      swap2\n      swap1\n        /* \"contracts/lottery.sol\":6114:6157  BalanceOfPlayer[msg.sender]+=msg.value/1e15 */\n      tag_120\n      swap1\n      dup5\n      swap1\n      tag_107\n      jump\t// in\n    tag_120:\n      swap1\n      swap2\n      sstore\n      pop\n        /* \"contracts/lottery.sol\":6175:6189  msg.value/1e15 */\n      tag_121\n      swap1\n      pop\n        /* \"contracts/lottery.sol\":6185:6189  1e15 */\n      0x038d7ea4c68000\n        /* \"contracts/lottery.sol\":6175:6184  msg.value */\n      callvalue\n        /* \"contracts/lottery.sol\":6175:6189  msg.value/1e15 */\n      tag_119\n      jump\t// in\n    tag_121:\n        /* \"contracts/lottery.sol\":6168:6189  return msg.value/1e15 */\n      swap1\n      pop\n        /* \"contracts/lottery.sol\":5994:6197  function deposit() public payable returns (uint256){\r... */\n      swap1\n      jump\t// out\n        /* \"contracts/lottery.sol\":1815:2021  function getRandomNumber() public returns (bytes32 requestId) {\r... */\n    tag_60:\n        /* \"contracts/lottery.sol\":1929:1932  fee */\n      sload(0x07)\n        /* \"contracts/lottery.sol\":1896:1925  LINK.balanceOf(address(this)) */\n      mload(0x40)\n      0x70a0823100000000000000000000000000000000000000000000000000000000\n      dup2\n      mstore\n        /* \"contracts/lottery.sol\":1919:1923  this */\n      address\n        /* \"contracts/lottery.sol\":1896:1925  LINK.balanceOf(address(this)) */\n      0x04\n      dup3\n      add\n        /* \"#utility.yul\":2098:2172   */\n      mstore\n        /* \"contracts/lottery.sol\":1858:1875  bytes32 requestId */\n      0x00\n      swap2\n        /* \"contracts/lottery.sol\":1929:1932  fee */\n      swap1\n      sub(exp(0x02, 0xa0), 0x01)\n        /* \"contracts/lottery.sol\":1896:1900  LINK */\n      immutable(\"0xb2219b801710730437d0358146c829b62297a059eceaa0b40b27aea2daecf595\")\n        /* \"contracts/lottery.sol\":1896:1910  LINK.balanceOf */\n      and\n      swap1\n      0x70a08231\n      swap1\n        /* \"#utility.yul\":2071:2089   */\n      0x24\n      add\n        /* \"contracts/lottery.sol\":1896:1925  LINK.balanceOf(address(this)) */\n      0x20\n      mload(0x40)\n      dup1\n      dup4\n      sub\n      dup2\n      dup7\n      dup1\n      extcodesize\n      iszero\n      dup1\n      iszero\n      tag_125\n      jumpi\n      0x00\n      dup1\n      revert\n    tag_125:\n      pop\n      gas\n      staticcall\n      iszero\n      dup1\n      iszero\n      tag_127\n      jumpi\n      returndatasize\n      0x00\n      dup1\n      returndatacopy\n      revert(0x00, returndatasize)\n    tag_127:\n      pop\n      pop\n      pop\n      pop\n      mload(0x40)\n      returndatasize\n      not(0x1f)\n      0x1f\n      dup3\n      add\n      and\n      dup3\n      add\n      dup1\n      0x40\n      mstore\n      pop\n      dup2\n      add\n      swap1\n      tag_128\n      swap2\n      swap1\n      tag_129\n      jump\t// in\n    tag_128:\n        /* \"contracts/lottery.sol\":1896:1932  LINK.balanceOf(address(this)) >= fee */\n      lt\n      iszero\n        /* \"contracts/lottery.sol\":1888:1964  require(LINK.balanceOf(address(this)) >= fee, \"Not enough LINK in contract\") */\n      tag_130\n      jumpi\n      mload(0x40)\n      mul(0x461bcd, exp(0x02, 0xe5))\n      dup2\n      mstore\n        /* \"#utility.yul\":5851:5853   */\n      0x20\n        /* \"contracts/lottery.sol\":1888:1964  require(LINK.balanceOf(address(this)) >= fee, \"Not enough LINK in contract\") */\n      0x04\n      dup3\n      add\n        /* \"#utility.yul\":5833:5854   */\n      mstore\n        /* \"#utility.yul\":5890:5892   */\n      0x1b\n        /* \"#utility.yul\":5870:5888   */\n      0x24\n      dup3\n      add\n        /* \"#utility.yul\":5863:5893   */\n      mstore\n        /* \"#utility.yul\":5929:5958   */\n      0x4e6f7420656e6f756768204c494e4b20696e20636f6e74726163740000000000\n        /* \"#utility.yul\":5909:5927   */\n      0x44\n      dup3\n      add\n        /* \"#utility.yul\":5902:5959   */\n      mstore\n        /* \"#utility.yul\":5976:5994   */\n      0x64\n      add\n        /* \"contracts/lottery.sol\":1888:1964  require(LINK.balanceOf(address(this)) >= fee, \"Not enough LINK in contract\") */\n      tag_78\n        /* \"#utility.yul\":5649:6000   */\n      jump\n        /* \"contracts/lottery.sol\":1888:1964  require(LINK.balanceOf(address(this)) >= fee, \"Not enough LINK in contract\") */\n    tag_130:\n        /* \"contracts/lottery.sol\":1982:2013  requestRandomness(keyHash, fee) */\n      tag_121\n        /* \"contracts/lottery.sol\":2000:2007  keyHash */\n      sload(0x06)\n        /* \"contracts/lottery.sol\":2009:2012  fee */\n      sload(0x07)\n        /* \"contracts/lottery.sol\":1982:1999  requestRandomness */\n      tag_134\n        /* \"contracts/lottery.sol\":1982:2013  requestRandomness(keyHash, fee) */\n      jump\t// in\n        /* \"contracts/lottery.sol\":2189:2382  function getBalance(address _playerAddress) public view returns(uint256 balance){\r... */\n    tag_66:\n        /* \"contracts/lottery.sol\":2253:2268  uint256 balance */\n      0x00\n        /* \"contracts/lottery.sol\":2283:2293  msg.sender */\n      caller\n      sub(exp(0x02, 0xa0), 0x01)\n        /* \"contracts/lottery.sol\":2283:2309  msg.sender==_playerAddress */\n      dup4\n      and\n      eq\n        /* \"contracts/lottery.sol\":2280:2375  if(msg.sender==_playerAddress){\r... */\n      iszero\n      tag_136\n      jumpi\n      pop\n      sub(exp(0x02, 0xa0), 0x01)\n        /* \"contracts/lottery.sol\":2332:2363  BalanceOfPlayer[_playerAddress] */\n      and\n      0x00\n      swap1\n      dup2\n      mstore\n        /* \"contracts/lottery.sol\":2332:2347  BalanceOfPlayer */\n      0x03\n        /* \"contracts/lottery.sol\":2332:2363  BalanceOfPlayer[_playerAddress] */\n      0x20\n      mstore\n      0x40\n      swap1\n      keccak256\n      sload\n      swap1\n        /* \"contracts/lottery.sol\":2189:2382  function getBalance(address _playerAddress) public view returns(uint256 balance){\r... */\n      jump\t// out\n        /* \"contracts/lottery.sol\":2280:2375  if(msg.sender==_playerAddress){\r... */\n    tag_136:\n        /* \"contracts/lottery.sol\":2189:2382  function getBalance(address _playerAddress) public view returns(uint256 balance){\r... */\n      swap2\n      swap1\n      pop\n      jump\t// out\n        /* \"contracts/lottery.sol\":2437:2732  function IsBalancecreditted()private returns(bool){\r... */\n    tag_95:\n        /* \"contracts/lottery.sol\":2511:2521  msg.sender */\n      caller\n        /* \"contracts/lottery.sol\":2482:2486  bool */\n      0x00\n        /* \"contracts/lottery.sol\":2501:2522  Playermap[msg.sender] */\n      swap1\n      dup2\n      mstore\n        /* \"contracts/lottery.sol\":2501:2510  Playermap */\n      0x02\n        /* \"contracts/lottery.sol\":2501:2522  Playermap[msg.sender] */\n      0x20\n      mstore\n      0x40\n      dup2\n      keccak256\n        /* \"contracts/lottery.sol\":2501:2538  Playermap[msg.sender].BalanceCredited */\n      0x03\n      add\n      sload\n      exp(0x02, 0xa0)\n      swap1\n      div\n      0xff\n      and\n        /* \"contracts/lottery.sol\":2498:2666  if(Playermap[msg.sender].BalanceCredited ==false){\r... */\n      tag_138\n      jumpi\n        /* \"contracts/lottery.sol\":2578:2588  msg.sender */\n      caller\n        /* \"contracts/lottery.sol\":2562:2589  BalanceOfPlayer[msg.sender] */\n      0x00\n      swap1\n      dup2\n      mstore\n        /* \"contracts/lottery.sol\":2562:2577  BalanceOfPlayer */\n      0x03\n        /* \"contracts/lottery.sol\":2562:2589  BalanceOfPlayer[msg.sender] */\n      0x20\n      dup2\n      dup2\n      mstore\n      0x40\n      dup1\n      dup5\n      keccak256\n        /* \"contracts/lottery.sol\":2590:2593  100 */\n      0x64\n        /* \"contracts/lottery.sol\":2562:2593  BalanceOfPlayer[msg.sender]=100 */\n      swap1\n      sstore\n        /* \"contracts/lottery.sol\":2608:2617  Playermap */\n      0x02\n        /* \"contracts/lottery.sol\":2608:2629  Playermap[msg.sender] */\n      swap1\n      swap2\n      mstore\n      swap1\n      swap2\n      keccak256\n        /* \"contracts/lottery.sol\":2608:2645  Playermap[msg.sender].BalanceCredited */\n      add\n        /* \"contracts/lottery.sol\":2608:2650  Playermap[msg.sender].BalanceCredited=true */\n      dup1\n      sload\n      not(0xff0000000000000000000000000000000000000000)\n      and\n      exp(0x02, 0xa0)\n      or\n      swap1\n      sstore\n        /* \"contracts/lottery.sol\":2498:2666  if(Playermap[msg.sender].BalanceCredited ==false){\r... */\n    tag_138:\n      pop\n        /* \"contracts/lottery.sol\":2697:2707  msg.sender */\n      caller\n        /* \"contracts/lottery.sol\":2687:2708  Playermap[msg.sender] */\n      0x00\n      swap1\n      dup2\n      mstore\n        /* \"contracts/lottery.sol\":2687:2696  Playermap */\n      0x02\n        /* \"contracts/lottery.sol\":2687:2708  Playermap[msg.sender] */\n      0x20\n      mstore\n      0x40\n      swap1\n      keccak256\n        /* \"contracts/lottery.sol\":2687:2724  Playermap[msg.sender].BalanceCredited */\n      0x03\n      add\n      sload\n      exp(0x02, 0xa0)\n      swap1\n      div\n      0xff\n      and\n      swap1\n        /* \"contracts/lottery.sol\":2437:2732  function IsBalancecreditted()private returns(bool){\r... */\n      jump\t// out\n        /* \"contracts/lottery.sol\":2029:2177  function fulfillRandomness(bytes32 requestId, uint randomness) internal override {\r... */\n    tag_113:\n        /* \"contracts/lottery.sol\":2121:2133  randomResult */\n      0x08\n        /* \"contracts/lottery.sol\":2121:2146  randomResult = randomness */\n      dup2\n      swap1\n      sstore\n        /* \"contracts/lottery.sol\":2157:2169  rewardsBet() */\n      tag_112\n        /* \"contracts/lottery.sol\":2157:2167  rewardsBet */\n      tag_141\n        /* \"contracts/lottery.sol\":2157:2169  rewardsBet() */\n      jump\t// in\n        /* \"@chainlink/contracts/src/v0.8/VRFConsumerBase.sol\":7732:8752  function requestRandomness(bytes32 _keyHash, uint256 _fee) internal returns (bytes32 requestId) {... */\n    tag_134:\n        /* \"@chainlink/contracts/src/v0.8/VRFConsumerBase.sol\":7809:7826  bytes32 requestId */\n      0x00\n        /* \"@chainlink/contracts/src/v0.8/VRFConsumerBase.sol\":7834:7838  LINK */\n      immutable(\"0xb2219b801710730437d0358146c829b62297a059eceaa0b40b27aea2daecf595\")\n      sub(exp(0x02, 0xa0), 0x01)\n        /* \"@chainlink/contracts/src/v0.8/VRFConsumerBase.sol\":7834:7854  LINK.transferAndCall */\n      and\n      0x4000aea0\n        /* \"@chainlink/contracts/src/v0.8/VRFConsumerBase.sol\":7855:7869  vrfCoordinator */\n      immutable(\"0x6dbb33232cde86c8a04f90a8bed9fc1c5ef520188a14538d96eb100d69bc2a94\")\n        /* \"@chainlink/contracts/src/v0.8/VRFConsumerBase.sol\":7871:7875  _fee */\n      dup5\n        /* \"@chainlink/contracts/src/v0.8/VRFConsumerBase.sol\":7888:7896  _keyHash */\n      dup7\n        /* \"@chainlink/contracts/src/v0.8/VRFConsumerBase.sol\":6589:6590  0 */\n      0x00\n        /* \"@chainlink/contracts/src/v0.8/VRFConsumerBase.sol\":7877:7920  abi.encode(_keyHash, USER_SEED_PLACEHOLDER) */\n      add(0x20, mload(0x40))\n      tag_143\n      swap3\n      swap2\n      swap1\n        /* \"#utility.yul\":4419:4444   */\n      swap2\n      dup3\n      mstore\n        /* \"#utility.yul\":4475:4477   */\n      0x20\n        /* \"#utility.yul\":4460:4478   */\n      dup3\n      add\n        /* \"#utility.yul\":4453:4487   */\n      mstore\n        /* \"#utility.yul\":4407:4409   */\n      0x40\n        /* \"#utility.yul\":4392:4410   */\n      add\n      swap1\n        /* \"#utility.yul\":4245:4493   */\n      jump\n        /* \"@chainlink/contracts/src/v0.8/VRFConsumerBase.sol\":7877:7920  abi.encode(_keyHash, USER_SEED_PLACEHOLDER) */\n    tag_143:\n      0x40\n      dup1\n      mload\n      not(0x1f)\n      dup2\n      dup5\n      sub\n      add\n      dup2\n      mstore\n      swap1\n      dup3\n      swap1\n      mstore\n        /* \"@chainlink/contracts/src/v0.8/VRFConsumerBase.sol\":7834:7921  LINK.transferAndCall(vrfCoordinator, _fee, abi.encode(_keyHash, USER_SEED_PLACEHOLDER)) */\n      0x0100000000000000000000000000000000000000000000000000000000\n      0xffffffff\n      dup7\n      and\n      mul\n      dup3\n      mstore\n      tag_145\n      swap4\n      swap3\n      swap2\n      0x04\n      add\n      tag_146\n      jump\t// in\n    tag_145:\n      0x20\n      mload(0x40)\n      dup1\n      dup4\n      sub\n      dup2\n      0x00\n      dup8\n      dup1\n      extcodesize\n      iszero\n      dup1\n      iszero\n      tag_147\n      jumpi\n      0x00\n      dup1\n      revert\n    tag_147:\n      pop\n      gas\n      call\n      iszero\n      dup1\n      iszero\n      tag_149\n      jumpi\n      returndatasize\n      0x00\n      dup1\n      returndatacopy\n      revert(0x00, returndatasize)\n    tag_149:\n      pop\n      pop\n      pop\n      pop\n      mload(0x40)\n      returndatasize\n      not(0x1f)\n      0x1f\n      dup3\n      add\n      and\n      dup3\n      add\n      dup1\n      0x40\n      mstore\n      pop\n      dup2\n      add\n      swap1\n      tag_150\n      swap2\n      swap1\n      tag_151\n      jump\t// in\n    tag_150:\n      pop\n        /* \"@chainlink/contracts/src/v0.8/VRFConsumerBase.sol\":8152:8167  uint256 vRFSeed */\n      0x00\n        /* \"@chainlink/contracts/src/v0.8/VRFConsumerBase.sol\":8235:8251  nonces[_keyHash] */\n      dup4\n      dup2\n      mstore\n      0x20\n      dup2\n      dup2\n      mstore\n      0x40\n      dup1\n      dup4\n      keccak256\n      sload\n        /* \"@chainlink/contracts/src/v0.8/VRFRequestIDBase.sol\":978:1029  abi.encode(_keyHash, _userSeed, _requester, _nonce) */\n      dup2\n      mload\n      dup1\n      dup5\n      add\n        /* \"#utility.yul\":4729:4754   */\n      dup9\n      swap1\n      mstore\n        /* \"#utility.yul\":4770:4788   */\n      dup1\n      dup4\n      add\n        /* \"#utility.yul\":4763:4797   */\n      dup6\n      swap1\n      mstore\n        /* \"@chainlink/contracts/src/v0.8/VRFConsumerBase.sol\":8228:8232  this */\n      address\n        /* \"#utility.yul\":4813:4831   */\n      0x60\n      dup3\n      add\n        /* \"#utility.yul\":4806:4889   */\n      mstore\n        /* \"#utility.yul\":4905:4923   */\n      0x80\n      dup1\n      dup3\n      add\n        /* \"#utility.yul\":4898:4932   */\n      dup4\n      swap1\n      mstore\n        /* \"@chainlink/contracts/src/v0.8/VRFRequestIDBase.sol\":978:1029  abi.encode(_keyHash, _userSeed, _requester, _nonce) */\n      dup4\n      mload\n      dup1\n      dup4\n      sub\n      swap1\n      swap2\n      add\n      dup2\n      mstore\n        /* \"#utility.yul\":4701:4720   */\n      0xa0\n      swap1\n      swap2\n      add\n        /* \"@chainlink/contracts/src/v0.8/VRFRequestIDBase.sol\":978:1029  abi.encode(_keyHash, _userSeed, _requester, _nonce) */\n      swap1\n      swap3\n      mstore\n        /* \"@chainlink/contracts/src/v0.8/VRFRequestIDBase.sol\":968:1030  keccak256(abi.encode(_keyHash, _userSeed, _requester, _nonce)) */\n      dup2\n      mload\n      swap2\n      dup4\n      add\n      swap2\n      swap1\n      swap2\n      keccak256\n        /* \"@chainlink/contracts/src/v0.8/VRFConsumerBase.sol\":8682:8698  nonces[_keyHash] */\n      dup7\n      dup5\n      mstore\n      swap3\n      swap1\n      swap2\n      mstore\n        /* \"@chainlink/contracts/src/v0.8/VRFConsumerBase.sol\":8682:8702  nonces[_keyHash] + 1 */\n      tag_154\n      swap1\n        /* \"@chainlink/contracts/src/v0.8/VRFConsumerBase.sol\":8701:8702  1 */\n      0x01\n        /* \"@chainlink/contracts/src/v0.8/VRFConsumerBase.sol\":8682:8702  nonces[_keyHash] + 1 */\n      tag_107\n      jump\t// in\n    tag_154:\n        /* \"@chainlink/contracts/src/v0.8/VRFConsumerBase.sol\":8663:8669  nonces */\n      0x00\n        /* \"@chainlink/contracts/src/v0.8/VRFConsumerBase.sol\":8663:8679  nonces[_keyHash] */\n      dup6\n      dup2\n      mstore\n      0x20\n      dup2\n      dup2\n      mstore\n      0x40\n      swap2\n      dup3\n      swap1\n      keccak256\n        /* \"@chainlink/contracts/src/v0.8/VRFConsumerBase.sol\":8663:8702  nonces[_keyHash] = nonces[_keyHash] + 1 */\n      swap3\n      swap1\n      swap3\n      sstore\n        /* \"@chainlink/contracts/src/v0.8/VRFRequestIDBase.sol\":1535:1576  abi.encodePacked(_keyHash, _vRFInputSeed) */\n      dup1\n      mload\n      dup1\n      dup4\n      add\n        /* \"#utility.yul\":1647:1666   */\n      dup8\n      swap1\n      mstore\n        /* \"#utility.yul\":1682:1694   */\n      dup1\n      dup3\n      add\n        /* \"#utility.yul\":1675:1703   */\n      dup5\n      swap1\n      mstore\n        /* \"@chainlink/contracts/src/v0.8/VRFRequestIDBase.sol\":1535:1576  abi.encodePacked(_keyHash, _vRFInputSeed) */\n      dup2\n      mload\n      dup1\n      dup3\n      sub\n      dup4\n      add\n      dup2\n      mstore\n        /* \"#utility.yul\":1719:1731   */\n      0x60\n      swap1\n      swap2\n      add\n        /* \"@chainlink/contracts/src/v0.8/VRFRequestIDBase.sol\":1535:1576  abi.encodePacked(_keyHash, _vRFInputSeed) */\n      swap1\n      swap2\n      mstore\n        /* \"@chainlink/contracts/src/v0.8/VRFRequestIDBase.sol\":1525:1577  keccak256(abi.encodePacked(_keyHash, _vRFInputSeed)) */\n      dup1\n      mload\n      swap2\n      add\n      keccak256\n        /* \"@chainlink/contracts/src/v0.8/VRFConsumerBase.sol\":8708:8747  return makeRequestId(_keyHash, vRFSeed) */\n      swap5\n        /* \"@chainlink/contracts/src/v0.8/VRFConsumerBase.sol\":7732:8752  function requestRandomness(bytes32 _keyHash, uint256 _fee) internal returns (bytes32 requestId) {... */\n      swap4\n      pop\n      pop\n      pop\n      pop\n      jump\t// out\n        /* \"contracts/lottery.sol\":4188:5295  function rewardsBet() internal {  \r... */\n    tag_141:\n        /* \"contracts/lottery.sol\":4293:4310  uint256 winningNo */\n      0x00\n        /* \"contracts/lottery.sol\":4328:4329  2 */\n      0x02\n        /* \"contracts/lottery.sol\":4313:4325  randomResult */\n      sload(0x08)\n        /* \"contracts/lottery.sol\":4313:4329  randomResult % 2 */\n      tag_158\n      swap2\n      swap1\n      tag_159\n      jump\t// in\n    tag_158:\n        /* \"contracts/lottery.sol\":4293:4329  uint256 winningNo = randomResult % 2 */\n      swap1\n      pop\n        /* \"contracts/lottery.sol\":4442:4455  uint256 index */\n      0x00\n        /* \"contracts/lottery.sol\":4438:5101  for(uint256 index=0; index < Players.length ; index++){\r... */\n    tag_160:\n        /* \"contracts/lottery.sol\":4467:4474  Players */\n      0x01\n        /* \"contracts/lottery.sol\":4467:4481  Players.length */\n      sload\n        /* \"contracts/lottery.sol\":4459:4481  index < Players.length */\n      dup2\n      lt\n        /* \"contracts/lottery.sol\":4438:5101  for(uint256 index=0; index < Players.length ; index++){\r... */\n      iszero\n      tag_161\n      jumpi\n        /* \"contracts/lottery.sol\":4538:4547  winningNo */\n      dup2\n        /* \"contracts/lottery.sol\":4512:4519  Players */\n      0x01\n        /* \"contracts/lottery.sol\":4520:4525  index */\n      dup3\n        /* \"contracts/lottery.sol\":4512:4526  Players[index] */\n      dup2\n      sload\n      dup2\n      lt\n      tag_164\n      jumpi\n      tag_164\n      tag_165\n      jump\t// in\n    tag_164:\n      swap1\n      0x00\n      mstore\n      keccak256(0x00, 0x20)\n      swap1\n      0x04\n      mul\n      add\n        /* \"contracts/lottery.sol\":4512:4536  Players[index].betingNum */\n      0x01\n      add\n      sload\n        /* \"contracts/lottery.sol\":4512:4547  Players[index].betingNum==winningNo */\n      eq\n        /* \"contracts/lottery.sol\":4509:4953  if(Players[index].betingNum==winningNo){\r... */\n      iszero\n      tag_167\n      jumpi\n        /* \"contracts/lottery.sol\":4567:4581  uint256 amount */\n      0x00\n        /* \"contracts/lottery.sol\":4582:4589  Players */\n      0x01\n        /* \"contracts/lottery.sol\":4590:4595  index */\n      dup3\n        /* \"contracts/lottery.sol\":4582:4596  Players[index] */\n      dup2\n      sload\n      dup2\n      lt\n      tag_169\n      jumpi\n      tag_169\n      tag_165\n      jump\t// in\n    tag_169:\n      swap1\n      0x00\n      mstore\n      keccak256(0x00, 0x20)\n      swap1\n      0x04\n      mul\n      add\n        /* \"contracts/lottery.sol\":4582:4603  Players[index].amount */\n      0x02\n      add\n      sload\n        /* \"contracts/lottery.sol\":4604:4605  2 */\n      0x02\n        /* \"contracts/lottery.sol\":4582:4605  Players[index].amount*2 */\n      tag_171\n      swap2\n      swap1\n      tag_71\n      jump\t// in\n    tag_171:\n        /* \"contracts/lottery.sol\":4567:4605  uint256 amount=Players[index].amount*2 */\n      swap1\n      pop\n        /* \"contracts/lottery.sol\":4671:4677  amount */\n      dup1\n        /* \"contracts/lottery.sol\":4624:4639  BalanceOfPlayer */\n      0x03\n        /* \"contracts/lottery.sol\":4624:4669  BalanceOfPlayer[Players[index].playerAddress] */\n      0x00\n        /* \"contracts/lottery.sol\":4640:4647  Players */\n      0x01\n        /* \"contracts/lottery.sol\":4648:4653  index */\n      dup6\n        /* \"contracts/lottery.sol\":4640:4654  Players[index] */\n      dup2\n      sload\n      dup2\n      lt\n      tag_173\n      jumpi\n      tag_173\n      tag_165\n      jump\t// in\n    tag_173:\n      0x00\n      swap2\n      dup3\n      mstore\n      0x20\n      dup1\n      dup4\n      keccak256\n        /* \"contracts/lottery.sol\":4640:4668  Players[index].playerAddress */\n      0x03\n        /* \"contracts/lottery.sol\":4640:4654  Players[index] */\n      0x04\n      swap1\n      swap4\n      mul\n      add\n        /* \"contracts/lottery.sol\":4640:4668  Players[index].playerAddress */\n      swap2\n      swap1\n      swap2\n      add\n      sload\n      sub(exp(0x02, 0xa0), 0x01)\n      and\n        /* \"contracts/lottery.sol\":4624:4669  BalanceOfPlayer[Players[index].playerAddress] */\n      dup4\n      mstore\n      dup3\n      add\n      swap3\n      swap1\n      swap3\n      mstore\n      0x40\n      add\n      dup2\n      keccak256\n        /* \"contracts/lottery.sol\":4624:4677  BalanceOfPlayer[Players[index].playerAddress]+=amount */\n      dup1\n      sload\n        /* \"contracts/lottery.sol\":4624:4669  BalanceOfPlayer[Players[index].playerAddress] */\n      swap1\n      swap2\n        /* \"contracts/lottery.sol\":4640:4654  Players[index] */\n      swap1\n        /* \"contracts/lottery.sol\":4624:4677  BalanceOfPlayer[Players[index].playerAddress]+=amount */\n      tag_175\n      swap1\n      dup5\n      swap1\n      tag_107\n      jump\t// in\n    tag_175:\n      swap1\n      swap2\n      sstore\n      pop\n      pop\n      sub(exp(0x02, 0xa0), 0x01)\n        /* \"contracts/lottery.sol\":4712:4719  i_admin */\n      immutable(\"0x857e85748da10ccbe81de0660ded5eadee8cb2ec5755eca1592043b0a2bb582b\")\n        /* \"contracts/lottery.sol\":4696:4720  BalanceOfPlayer[i_admin] */\n      and\n      0x00\n      swap1\n      dup2\n      mstore\n        /* \"contracts/lottery.sol\":4696:4711  BalanceOfPlayer */\n      0x03\n        /* \"contracts/lottery.sol\":4696:4720  BalanceOfPlayer[i_admin] */\n      0x20\n      mstore\n      0x40\n      dup2\n      keccak256\n        /* \"contracts/lottery.sol\":4696:4728  BalanceOfPlayer[i_admin]-=amount */\n      dup1\n      sload\n        /* \"contracts/lottery.sol\":4722:4728  amount */\n      dup4\n      swap3\n        /* \"contracts/lottery.sol\":4696:4720  BalanceOfPlayer[i_admin] */\n      swap1\n        /* \"contracts/lottery.sol\":4696:4728  BalanceOfPlayer[i_admin]-=amount */\n      tag_176\n      swap1\n        /* \"contracts/lottery.sol\":4722:4728  amount */\n      dup5\n      swap1\n        /* \"contracts/lottery.sol\":4696:4728  BalanceOfPlayer[i_admin]-=amount */\n      tag_81\n      jump\t// in\n    tag_176:\n      swap3\n      pop\n      pop\n      dup2\n      swap1\n      sstore\n      pop\n        /* \"contracts/lottery.sol\":4795:4919  Winner(\r... */\n      0x9c2270628a9b29d30ae96b6c4c14ed646ee134febdce38a5b77f2bde9cea2e20\n        /* \"contracts/lottery.sol\":4824:4831  Players */\n      0x01\n        /* \"contracts/lottery.sol\":4832:4837  index */\n      dup4\n        /* \"contracts/lottery.sol\":4824:4838  Players[index] */\n      dup2\n      sload\n      dup2\n      lt\n      tag_178\n      jumpi\n      tag_178\n      tag_165\n      jump\t// in\n    tag_178:\n      swap1\n      0x00\n      mstore\n      keccak256(0x00, 0x20)\n      swap1\n      0x04\n      mul\n      add\n        /* \"contracts/lottery.sol\":4824:4852  Players[index].playerAddress */\n      0x03\n      add\n      0x00\n      swap1\n      sload\n      swap1\n      0x0100\n      exp\n      swap1\n      div\n      sub(exp(0x02, 0xa0), 0x01)\n      and\n        /* \"contracts/lottery.sol\":4875:4882  Players */\n      0x01\n        /* \"contracts/lottery.sol\":4883:4888  index */\n      dup5\n        /* \"contracts/lottery.sol\":4875:4889  Players[index] */\n      dup2\n      sload\n      dup2\n      lt\n      tag_181\n      jumpi\n      tag_181\n      tag_165\n      jump\t// in\n    tag_181:\n      0x00\n      swap2\n      dup3\n      mstore\n      0x20\n      swap2\n      dup3\n      swap1\n      keccak256\n        /* \"contracts/lottery.sol\":4875:4896  Players[index].amount */\n      0x02\n        /* \"contracts/lottery.sol\":4875:4889  Players[index] */\n      0x04\n      swap1\n      swap3\n      mul\n      add\n        /* \"contracts/lottery.sol\":4875:4896  Players[index].amount */\n      add\n      sload\n        /* \"contracts/lottery.sol\":4795:4919  Winner(\r... */\n      0x40\n      dup1\n      mload\n      sub(exp(0x02, 0xa0), 0x01)\n        /* \"#utility.yul\":2622:2677   */\n      swap1\n      swap5\n      and\n        /* \"#utility.yul\":2604:2678   */\n      dup5\n      mstore\n        /* \"#utility.yul\":2694:2712   */\n      swap2\n      dup4\n      add\n        /* \"#utility.yul\":2687:2721   */\n      mstore\n        /* \"#utility.yul\":2577:2595   */\n      add\n        /* \"contracts/lottery.sol\":4795:4919  Winner(\r... */\n      mload(0x40)\n      dup1\n      swap2\n      sub\n      swap1\n      log1\n        /* \"contracts/lottery.sol\":4548:4953  {\r... */\n      pop\n        /* \"contracts/lottery.sol\":4509:4953  if(Players[index].betingNum==winningNo){\r... */\n    tag_167:\n        /* \"contracts/lottery.sol\":5084:5089  false */\n      0x00\n        /* \"contracts/lottery.sol\":5053:5060  Players */\n      0x01\n        /* \"contracts/lottery.sol\":5061:5066  index */\n      dup3\n        /* \"contracts/lottery.sol\":5053:5067  Players[index] */\n      dup2\n      sload\n      dup2\n      lt\n      tag_186\n      jumpi\n      tag_186\n      tag_165\n      jump\t// in\n    tag_186:\n      0x00\n      swap2\n      dup3\n      mstore\n      0x20\n      swap1\n      swap2\n      keccak256\n      0x04\n      swap1\n      swap2\n      mul\n      add\n        /* \"contracts/lottery.sol\":5053:5089  Players[index].IsInLotteryPool=false */\n      dup1\n      sload\n      not(0xff)\n      and\n      swap2\n      iszero\n      iszero\n      swap2\n      swap1\n      swap2\n      or\n      swap1\n      sstore\n        /* \"contracts/lottery.sol\":4484:4491  index++ */\n      dup1\n      tag_188\n      dup2\n      tag_189\n      jump\t// in\n    tag_188:\n      swap2\n      pop\n      pop\n        /* \"contracts/lottery.sol\":4438:5101  for(uint256 index=0; index < Players.length ; index++){\r... */\n      jump(tag_160)\n    tag_161:\n      pop\n        /* \"contracts/lottery.sol\":5162:5179  completedBetCount */\n      sload(0x05)\n        /* \"contracts/lottery.sol\":5148:5180  completedBets[completedBetCount] */\n      0x00\n      swap1\n      dup2\n      mstore\n        /* \"contracts/lottery.sol\":5148:5161  completedBets */\n      0x04\n        /* \"contracts/lottery.sol\":5148:5180  completedBets[completedBetCount] */\n      0x20\n      mstore\n      0x40\n      swap1\n      keccak256\n        /* \"contracts/lottery.sol\":5181:5188  Players */\n      0x01\n        /* \"contracts/lottery.sol\":5148:5188  completedBets[completedBetCount]=Players */\n      dup1\n      sload\n      tag_190\n      swap3\n        /* \"contracts/lottery.sol\":5148:5180  completedBets[completedBetCount] */\n      swap2\n        /* \"contracts/lottery.sol\":5181:5188  Players */\n      swap1\n        /* \"contracts/lottery.sol\":5148:5188  completedBets[completedBetCount]=Players */\n      tag_191\n      jump\t// in\n    tag_190:\n      pop\n        /* \"contracts/lottery.sol\":5199:5216  completedBetCount */\n      0x05\n        /* \"contracts/lottery.sol\":5199:5218  completedBetCount++ */\n      dup1\n      sload\n      swap1\n        /* \"contracts/lottery.sol\":5199:5216  completedBetCount */\n      0x00\n        /* \"contracts/lottery.sol\":5199:5218  completedBetCount++ */\n      tag_192\n      dup4\n      tag_189\n      jump\t// in\n    tag_192:\n      swap1\n      swap2\n      sstore\n      pop\n        /* \"contracts/lottery.sol\":5273:5287  delete Players */\n      tag_89\n      swap1\n      pop\n        /* \"contracts/lottery.sol\":5280:5287  Players */\n      0x01\n      0x00\n        /* \"contracts/lottery.sol\":5273:5287  delete Players */\n      tag_194\n      jump\t// in\n    tag_191:\n      dup3\n      dup1\n      sload\n      dup3\n      dup3\n      sstore\n      swap1\n      0x00\n      mstore\n      keccak256(0x00, 0x20)\n      swap1\n      0x04\n      mul\n      dup2\n      add\n      swap3\n      dup3\n      iszero\n      tag_203\n      jumpi\n      0x00\n      mstore\n      keccak256(0x00, 0x20)\n      swap2\n      0x04\n      mul\n      dup3\n      add\n    tag_202:\n      dup3\n      dup2\n      gt\n      iszero\n      tag_203\n      jumpi\n      dup3\n      sload\n      dup3\n      sload\n      0xff\n      swap2\n      dup3\n      and\n      iszero\n      iszero\n      not(0xff)\n      swap1\n      swap2\n      and\n      or\n      dup4\n      sstore\n      0x01\n      dup1\n      dup6\n      add\n      sload\n      swap1\n      dup5\n      add\n      sstore\n      0x02\n      dup1\n      dup6\n      add\n      sload\n      swap1\n      dup5\n      add\n      sstore\n      0x03\n      dup1\n      dup6\n      add\n      dup1\n      sload\n      swap2\n      dup6\n      add\n      dup1\n      sload\n      not(0xffffffffffffffffffffffffffffffffffffffff)\n      dup2\n      and\n      sub(exp(0x02, 0xa0), 0x01)\n      swap1\n      swap5\n      and\n      swap4\n      dup5\n      or\n      dup3\n      sstore\n      swap2\n      sload\n      exp(0x02, 0xa0)\n      swap1\n      dup2\n      swap1\n      div\n      swap1\n      swap5\n      and\n      iszero\n      iszero\n      swap1\n      swap4\n      mul\n      not(0xffffffffffffffffffffffffffffffffffffffffff)\n      swap1\n      swap2\n      and\n      swap1\n      swap2\n      or\n      or\n      swap1\n      sstore\n      0x04\n      swap3\n      dup4\n      add\n      swap3\n      swap1\n      swap2\n      add\n      swap1\n      jump(tag_202)\n    tag_203:\n      pop\n      tag_204\n      swap3\n      swap2\n      pop\n      tag_205\n      jump\t// in\n    tag_204:\n      pop\n      swap1\n      jump\t// out\n    tag_194:\n      pop\n      dup1\n      sload\n      0x00\n      dup3\n      sstore\n      0x04\n      mul\n      swap1\n      0x00\n      mstore\n      keccak256(0x00, 0x20)\n      swap1\n      dup2\n      add\n      swap1\n      tag_89\n      swap2\n      swap1\n    tag_205:\n    tag_208:\n      dup1\n      dup3\n      gt\n      iszero\n      tag_204\n      jumpi\n      dup1\n      sload\n      not(0xff)\n      and\n      dup2\n      sstore\n      0x00\n      0x01\n      dup3\n      add\n      dup2\n      swap1\n      sstore\n      0x02\n      dup3\n      add\n      sstore\n      0x03\n      dup2\n      add\n      dup1\n      sload\n      not(0xffffffffffffffffffffffffffffffffffffffffff)\n      and\n      swap1\n      sstore\n      0x04\n      add\n      jump(tag_208)\n        /* \"#utility.yul\":14:323   */\n    tag_52:\n        /* \"#utility.yul\":73:79   */\n      0x00\n        /* \"#utility.yul\":126:128   */\n      0x20\n        /* \"#utility.yul\":114:123   */\n      dup3\n        /* \"#utility.yul\":105:112   */\n      dup5\n        /* \"#utility.yul\":101:124   */\n      sub\n        /* \"#utility.yul\":97:129   */\n      slt\n        /* \"#utility.yul\":94:146   */\n      iszero\n      tag_212\n      jumpi\n        /* \"#utility.yul\":142:143   */\n      0x00\n        /* \"#utility.yul\":139:140   */\n      dup1\n        /* \"#utility.yul\":132:144   */\n      revert\n        /* \"#utility.yul\":94:146   */\n    tag_212:\n        /* \"#utility.yul\":181:190   */\n      dup2\n        /* \"#utility.yul\":168:191   */\n      calldataload\n      sub(exp(0x02, 0xa0), 0x01)\n        /* \"#utility.yul\":224:229   */\n      dup2\n        /* \"#utility.yul\":220:274   */\n      and\n        /* \"#utility.yul\":213:218   */\n      dup2\n        /* \"#utility.yul\":210:275   */\n      eq\n        /* \"#utility.yul\":200:293   */\n      tag_213\n      jumpi\n        /* \"#utility.yul\":289:290   */\n      0x00\n        /* \"#utility.yul\":286:287   */\n      dup1\n        /* \"#utility.yul\":279:291   */\n      revert\n        /* \"#utility.yul\":200:293   */\n    tag_213:\n        /* \"#utility.yul\":312:317   */\n      swap4\n        /* \"#utility.yul\":14:323   */\n      swap3\n      pop\n      pop\n      pop\n      jump\t// out\n        /* \"#utility.yul\":328:605   */\n    tag_151:\n        /* \"#utility.yul\":395:401   */\n      0x00\n        /* \"#utility.yul\":448:450   */\n      0x20\n        /* \"#utility.yul\":436:445   */\n      dup3\n        /* \"#utility.yul\":427:434   */\n      dup5\n        /* \"#utility.yul\":423:446   */\n      sub\n        /* \"#utility.yul\":419:451   */\n      slt\n        /* \"#utility.yul\":416:468   */\n      iszero\n      tag_215\n      jumpi\n        /* \"#utility.yul\":464:465   */\n      0x00\n        /* \"#utility.yul\":461:462   */\n      dup1\n        /* \"#utility.yul\":454:466   */\n      revert\n        /* \"#utility.yul\":416:468   */\n    tag_215:\n        /* \"#utility.yul\":496:505   */\n      dup2\n        /* \"#utility.yul\":490:506   */\n      mload\n        /* \"#utility.yul\":549:554   */\n      dup1\n        /* \"#utility.yul\":542:555   */\n      iszero\n        /* \"#utility.yul\":535:556   */\n      iszero\n        /* \"#utility.yul\":528:533   */\n      dup2\n        /* \"#utility.yul\":525:557   */\n      eq\n        /* \"#utility.yul\":515:575   */\n      tag_213\n      jumpi\n        /* \"#utility.yul\":571:572   */\n      0x00\n        /* \"#utility.yul\":568:569   */\n      dup1\n        /* \"#utility.yul\":561:573   */\n      revert\n        /* \"#utility.yul\":610:858   */\n    tag_47:\n        /* \"#utility.yul\":678:684   */\n      0x00\n        /* \"#utility.yul\":686:692   */\n      dup1\n        /* \"#utility.yul\":739:741   */\n      0x40\n        /* \"#utility.yul\":727:736   */\n      dup4\n        /* \"#utility.yul\":718:725   */\n      dup6\n        /* \"#utility.yul\":714:737   */\n      sub\n        /* \"#utility.yul\":710:742   */\n      slt\n        /* \"#utility.yul\":707:759   */\n      iszero\n      tag_218\n      jumpi\n        /* \"#utility.yul\":755:756   */\n      0x00\n        /* \"#utility.yul\":752:753   */\n      dup1\n        /* \"#utility.yul\":745:757   */\n      revert\n        /* \"#utility.yul\":707:759   */\n    tag_218:\n      pop\n      pop\n        /* \"#utility.yul\":778:801   */\n      dup1\n      calldataload\n      swap3\n        /* \"#utility.yul\":848:850   */\n      0x20\n        /* \"#utility.yul\":833:851   */\n      swap1\n      swap2\n      add\n        /* \"#utility.yul\":820:852   */\n      calldataload\n      swap2\n      pop\n        /* \"#utility.yul\":610:858   */\n      jump\t// out\n        /* \"#utility.yul\":863:1043   */\n    tag_17:\n        /* \"#utility.yul\":922:928   */\n      0x00\n        /* \"#utility.yul\":975:977   */\n      0x20\n        /* \"#utility.yul\":963:972   */\n      dup3\n        /* \"#utility.yul\":954:961   */\n      dup5\n        /* \"#utility.yul\":950:973   */\n      sub\n        /* \"#utility.yul\":946:978   */\n      slt\n        /* \"#utility.yul\":943:995   */\n      iszero\n      tag_220\n      jumpi\n        /* \"#utility.yul\":991:992   */\n      0x00\n        /* \"#utility.yul\":988:989   */\n      dup1\n        /* \"#utility.yul\":981:993   */\n      revert\n        /* \"#utility.yul\":943:995   */\n    tag_220:\n      pop\n        /* \"#utility.yul\":1014:1037   */\n      calldataload\n      swap2\n        /* \"#utility.yul\":863:1043   */\n      swap1\n      pop\n      jump\t// out\n        /* \"#utility.yul\":1048:1232   */\n    tag_129:\n        /* \"#utility.yul\":1118:1124   */\n      0x00\n        /* \"#utility.yul\":1171:1173   */\n      0x20\n        /* \"#utility.yul\":1159:1168   */\n      dup3\n        /* \"#utility.yul\":1150:1157   */\n      dup5\n        /* \"#utility.yul\":1146:1169   */\n      sub\n        /* \"#utility.yul\":1142:1174   */\n      slt\n        /* \"#utility.yul\":1139:1191   */\n      iszero\n      tag_222\n      jumpi\n        /* \"#utility.yul\":1187:1188   */\n      0x00\n        /* \"#utility.yul\":1184:1185   */\n      dup1\n        /* \"#utility.yul\":1177:1189   */\n      revert\n        /* \"#utility.yul\":1139:1191   */\n    tag_222:\n      pop\n        /* \"#utility.yul\":1210:1226   */\n      mload\n      swap2\n        /* \"#utility.yul\":1048:1232   */\n      swap1\n      pop\n      jump\t// out\n        /* \"#utility.yul\":2732:3521   */\n    tag_146:\n      sub(exp(0x02, 0xa0), 0x01)\n        /* \"#utility.yul\":2939:2945   */\n      dup5\n        /* \"#utility.yul\":2935:2990   */\n      and\n        /* \"#utility.yul\":2924:2933   */\n      dup2\n        /* \"#utility.yul\":2917:2991   */\n      mstore\n        /* \"#utility.yul\":2898:2902   */\n      0x00\n        /* \"#utility.yul\":3010:3012   */\n      0x20\n        /* \"#utility.yul\":3048:3054   */\n      dup5\n        /* \"#utility.yul\":3043:3045   */\n      dup2\n        /* \"#utility.yul\":3032:3041   */\n      dup5\n        /* \"#utility.yul\":3028:3046   */\n      add\n        /* \"#utility.yul\":3021:3055   */\n      mstore\n        /* \"#utility.yul\":3091:3093   */\n      0x60\n        /* \"#utility.yul\":3086:3088   */\n      0x40\n        /* \"#utility.yul\":3075:3084   */\n      dup5\n        /* \"#utility.yul\":3071:3089   */\n      add\n        /* \"#utility.yul\":3064:3094   */\n      mstore\n        /* \"#utility.yul\":3123:3129   */\n      dup4\n        /* \"#utility.yul\":3117:3130   */\n      mload\n        /* \"#utility.yul\":3166:3172   */\n      dup1\n        /* \"#utility.yul\":3161:3163   */\n      0x60\n        /* \"#utility.yul\":3150:3159   */\n      dup6\n        /* \"#utility.yul\":3146:3164   */\n      add\n        /* \"#utility.yul\":3139:3173   */\n      mstore\n        /* \"#utility.yul\":3191:3192   */\n      0x00\n        /* \"#utility.yul\":3201:3342   */\n    tag_231:\n        /* \"#utility.yul\":3215:3221   */\n      dup2\n        /* \"#utility.yul\":3212:3213   */\n      dup2\n        /* \"#utility.yul\":3209:3222   */\n      lt\n        /* \"#utility.yul\":3201:3342   */\n      iszero\n      tag_233\n      jumpi\n        /* \"#utility.yul\":3311:3325   */\n      dup6\n      dup2\n      add\n        /* \"#utility.yul\":3307:3330   */\n      dup4\n      add\n        /* \"#utility.yul\":3301:3331   */\n      mload\n        /* \"#utility.yul\":3276:3293   */\n      dup6\n      dup3\n      add\n        /* \"#utility.yul\":3295:3298   */\n      0x80\n        /* \"#utility.yul\":3272:3299   */\n      add\n        /* \"#utility.yul\":3265:3332   */\n      mstore\n        /* \"#utility.yul\":3230:3240   */\n      dup3\n      add\n        /* \"#utility.yul\":3201:3342   */\n      jump(tag_231)\n    tag_233:\n        /* \"#utility.yul\":3360:3366   */\n      dup2\n        /* \"#utility.yul\":3357:3358   */\n      dup2\n        /* \"#utility.yul\":3354:3367   */\n      gt\n        /* \"#utility.yul\":3351:3443   */\n      iszero\n      tag_234\n      jumpi\n        /* \"#utility.yul\":3431:3432   */\n      0x00\n        /* \"#utility.yul\":3425:3428   */\n      0x80\n        /* \"#utility.yul\":3416:3422   */\n      dup4\n        /* \"#utility.yul\":3405:3414   */\n      dup8\n        /* \"#utility.yul\":3401:3423   */\n      add\n        /* \"#utility.yul\":3397:3429   */\n      add\n        /* \"#utility.yul\":3390:3433   */\n      mstore\n        /* \"#utility.yul\":3351:3443   */\n    tag_234:\n      pop\n        /* \"#utility.yul\":3504:3506   */\n      0x1f\n        /* \"#utility.yul\":3483:3498   */\n      add\n      not(0x1f)\n        /* \"#utility.yul\":3479:3508   */\n      and\n        /* \"#utility.yul\":3464:3509   */\n      swap3\n      swap1\n      swap3\n      add\n        /* \"#utility.yul\":3511:3514   */\n      0x80\n        /* \"#utility.yul\":3460:3515   */\n      add\n      swap6\n        /* \"#utility.yul\":2732:3521   */\n      swap5\n      pop\n      pop\n      pop\n      pop\n      pop\n      jump\t// out\n        /* \"#utility.yul\":7924:8052   */\n    tag_107:\n        /* \"#utility.yul\":7964:7967   */\n      0x00\n        /* \"#utility.yul\":7995:7996   */\n      dup3\n        /* \"#utility.yul\":7991:7997   */\n      not\n        /* \"#utility.yul\":7988:7989   */\n      dup3\n        /* \"#utility.yul\":7985:7998   */\n      gt\n        /* \"#utility.yul\":7982:8021   */\n      iszero\n      tag_250\n      jumpi\n        /* \"#utility.yul\":8001:8019   */\n      tag_250\n      tag_251\n      jump\t// in\n    tag_250:\n      pop\n        /* \"#utility.yul\":8037:8046   */\n      add\n      swap1\n        /* \"#utility.yul\":7924:8052   */\n      jump\t// out\n        /* \"#utility.yul\":8057:8177   */\n    tag_119:\n        /* \"#utility.yul\":8097:8098   */\n      0x00\n        /* \"#utility.yul\":8123:8124   */\n      dup3\n        /* \"#utility.yul\":8113:8148   */\n      tag_254\n      jumpi\n        /* \"#utility.yul\":8128:8146   */\n      tag_254\n      tag_255\n      jump\t// in\n    tag_254:\n      pop\n        /* \"#utility.yul\":8162:8171   */\n      div\n      swap1\n        /* \"#utility.yul\":8057:8177   */\n      jump\t// out\n        /* \"#utility.yul\":8182:8350   */\n    tag_71:\n        /* \"#utility.yul\":8222:8229   */\n      0x00\n        /* \"#utility.yul\":8288:8289   */\n      dup2\n        /* \"#utility.yul\":8284:8285   */\n      0x00\n        /* \"#utility.yul\":8280:8286   */\n      not\n        /* \"#utility.yul\":8276:8290   */\n      div\n        /* \"#utility.yul\":8273:8274   */\n      dup4\n        /* \"#utility.yul\":8270:8291   */\n      gt\n        /* \"#utility.yul\":8265:8266   */\n      dup3\n        /* \"#utility.yul\":8258:8267   */\n      iszero\n        /* \"#utility.yul\":8251:8268   */\n      iszero\n        /* \"#utility.yul\":8247:8292   */\n      and\n        /* \"#utility.yul\":8244:8315   */\n      iszero\n      tag_258\n      jumpi\n        /* \"#utility.yul\":8295:8313   */\n      tag_258\n      tag_251\n      jump\t// in\n    tag_258:\n      pop\n        /* \"#utility.yul\":8335:8344   */\n      mul\n      swap1\n        /* \"#utility.yul\":8182:8350   */\n      jump\t// out\n        /* \"#utility.yul\":8355:8480   */\n    tag_81:\n        /* \"#utility.yul\":8395:8399   */\n      0x00\n        /* \"#utility.yul\":8423:8424   */\n      dup3\n        /* \"#utility.yul\":8420:8421   */\n      dup3\n        /* \"#utility.yul\":8417:8425   */\n      lt\n        /* \"#utility.yul\":8414:8448   */\n      iszero\n      tag_261\n      jumpi\n        /* \"#utility.yul\":8428:8446   */\n      tag_261\n      tag_251\n      jump\t// in\n    tag_261:\n      pop\n        /* \"#utility.yul\":8465:8474   */\n      sub\n      swap1\n        /* \"#utility.yul\":8355:8480   */\n      jump\t// out\n        /* \"#utility.yul\":8485:8620   */\n    tag_189:\n        /* \"#utility.yul\":8524:8527   */\n      0x00\n      not(0x00)\n        /* \"#utility.yul\":8545:8562   */\n      dup3\n      eq\n        /* \"#utility.yul\":8542:8585   */\n      iszero\n      tag_264\n      jumpi\n        /* \"#utility.yul\":8565:8583   */\n      tag_264\n      tag_251\n      jump\t// in\n    tag_264:\n      pop\n        /* \"#utility.yul\":8612:8613   */\n      0x01\n        /* \"#utility.yul\":8601:8614   */\n      add\n      swap1\n        /* \"#utility.yul\":8485:8620   */\n      jump\t// out\n        /* \"#utility.yul\":8625:8737   */\n    tag_159:\n        /* \"#utility.yul\":8657:8658   */\n      0x00\n        /* \"#utility.yul\":8683:8684   */\n      dup3\n        /* \"#utility.yul\":8673:8708   */\n      tag_267\n      jumpi\n        /* \"#utility.yul\":8688:8706   */\n      tag_267\n      tag_255\n      jump\t// in\n    tag_267:\n      pop\n        /* \"#utility.yul\":8722:8731   */\n      mod\n      swap1\n        /* \"#utility.yul\":8625:8737   */\n      jump\t// out\n        /* \"#utility.yul\":8742:8926   */\n    tag_251:\n        /* \"#utility.yul\":8794:8871   */\n      0x4e487b7100000000000000000000000000000000000000000000000000000000\n        /* \"#utility.yul\":8791:8792   */\n      0x00\n        /* \"#utility.yul\":8784:8872   */\n      mstore\n        /* \"#utility.yul\":8891:8895   */\n      0x11\n        /* \"#utility.yul\":8888:8889   */\n      0x04\n        /* \"#utility.yul\":8881:8896   */\n      mstore\n        /* \"#utility.yul\":8915:8919   */\n      0x24\n        /* \"#utility.yul\":8912:8913   */\n      0x00\n        /* \"#utility.yul\":8905:8920   */\n      revert\n        /* \"#utility.yul\":8931:9115   */\n    tag_255:\n        /* \"#utility.yul\":8983:9060   */\n      0x4e487b7100000000000000000000000000000000000000000000000000000000\n        /* \"#utility.yul\":8980:8981   */\n      0x00\n        /* \"#utility.yul\":8973:9061   */\n      mstore\n        /* \"#utility.yul\":9080:9084   */\n      0x12\n        /* \"#utility.yul\":9077:9078   */\n      0x04\n        /* \"#utility.yul\":9070:9085   */\n      mstore\n        /* \"#utility.yul\":9104:9108   */\n      0x24\n        /* \"#utility.yul\":9101:9102   */\n      0x00\n        /* \"#utility.yul\":9094:9109   */\n      revert\n        /* \"#utility.yul\":9120:9304   */\n    tag_165:\n        /* \"#utility.yul\":9172:9249   */\n      0x4e487b7100000000000000000000000000000000000000000000000000000000\n        /* \"#utility.yul\":9169:9170   */\n      0x00\n        /* \"#utility.yul\":9162:9250   */\n      mstore\n        /* \"#utility.yul\":9269:9273   */\n      0x32\n        /* \"#utility.yul\":9266:9267   */\n      0x04\n        /* \"#utility.yul\":9259:9274   */\n      mstore\n        /* \"#utility.yul\":9293:9297   */\n      0x24\n        /* \"#utility.yul\":9290:9291   */\n      0x00\n        /* \"#utility.yul\":9283:9298   */\n      revert\n\n    auxdata: 0xa26469706673582212206658278f5b7a2a7949166f48e974fe80d98c021d74dcb959fcf5571f8aa1000064736f6c63430008070033\n}\n",
				"bytecode": {
					"linkReferences": {},
					"object": "60e060408181527fb3dccb4cf7a26f6cf6b120cf5a73875b7bbc655b00000000000000000000000060a0527f01be23585060835e02b77ef475b0cc51aa1e07090000000000000000000000006080527f2ed0feb3e7fd2022120aa84fab1945545a9f2ffc9076fd6156fa96eaff4c131160065567016345785d8a0000600755336c01000000000000000000000000810260c0526000818152600360205291822061271090559091662386f26fc10000908381818185875af1925050503d80600081146100e7576040519150601f19603f3d011682016040523d82523d6000602084013e6100ec565b606091505b505090508061015b576040517f08c379a000000000000000000000000000000000000000000000000000000000815260206004820152600e60248201527f63616e27742073656e7420657468000000000000000000000000000000000000604482015260640160405180910390fd5b503060009081526003602052604090206103e890556080516c01000000000000000000000000900460a0516c01000000000000000000000000900460c0516c0100000000000000000000000090046112516101f26000396000818161016e015281816104000152818161075a0152610d350152600081816107ad0152610ae001526000818161090f0152610ab101526112516000f3fe6080604052600436106100b9576000357c01000000000000000000000000000000000000000000000000000000009004806387e19a2c1161008157806387e19a2c146101bf57806394985ddd146101df578063aaffe698146101ff578063d0e30db01461025a578063dbdff2c114610262578063f8b2cb4f1461027757600080fd5b80632e1a7d4d146100be5780632f33b820146100f157806342619f66146101465780634c43d2841461015c5780635d495aea146101a8575b600080fd5b3480156100ca57600080fd5b506100de6100d936600461105e565b610297565b6040519081526020015b60405180910390f35b3480156100fd57600080fd5b5061011161010c36600461103c565b610396565b604080519515158652602086019490945292840191909152600160a060020a031660608301521515608082015260a0016100e8565b34801561015257600080fd5b506100de60085481565b34801561016857600080fd5b506101907f000000000000000000000000000000000000000000000000000000000000000081565b604051600160a060020a0390911681526020016100e8565b3480156101b457600080fd5b506101bd6103f5565b005b3480156101cb57600080fd5b506101bd6101da36600461103c565b61047b565b3480156101eb57600080fd5b506101bd6101fa36600461103c565b6107a2565b34801561020b57600080fd5b5061011161021a366004610fea565b6002602081905260009182526040909120805460018201549282015460039092015460ff918216939291600160a060020a0382169160a060020a90041685565b6100de61082b565b34801561026e57600080fd5b506100de6108d2565b34801561028357600080fd5b506100de610292366004610fea565b6109e8565b336000908152600360205260408120548211610381576000336102c18466038d7ea4c68000611129565b604051600081818185875af1925050503d80600081146102fd576040519150601f19603f3d011682016040523d82523d6000602084013e610302565b606091505b505090508061035b5760405160e560020a62461bcd02815260206004820152601060248201527f2063616e2774207769746864726177200000000000000000000000000000000060448201526064015b60405180910390fd5b336000908152600360205260408120805485929061037a908490611148565b9091555050505b50503360009081526003602052604090205490565b600460205281600052604060002081815481106103b257600080fd5b6000918252602090912060049091020180546001820154600283015460039093015460ff9283169550909350600160a060020a0381169160a060020a9091041685565b33600160a060020a037f000000000000000000000000000000000000000000000000000000000000000016146104705760405160e560020a62461bcd02815260206004820152600960248201527f4e6f742061646d696e00000000000000000000000000000000000000000000006044820152606401610352565b6104786108d2565b50565b3360009081526002602052604090205460ff16156104de5760405160e560020a62461bcd02815260206004820181905260248201527f54686520706c6179657220616c726561647920697320696e206c6f74746572796044820152606401610352565b60006040518060a0016040528060011515815260200184815260200183815260200133600160a060020a03168152602001610517610a1c565b15159052905082158061052a5750826001145b6105795760405160e560020a62461bcd02815260206004820152601360248201527f656e7465722076616c69642062657474696e67000000000000000000000000006044820152606401610352565b6000821180156105985750336000908152600360205260409020548211155b6105e75760405160e560020a62461bcd02815260206004820152601460248201527f636865636b207468652062657420616d6f756e740000000000000000000000006044820152606401610352565b6001805480820182556000828152835160049092027fb10e2d527612073b26eecdfd717e6a320cf44b4afac2b0732d9fcbe2b7fa0cf68101805493151560ff19948516179055602080860180517fb10e2d527612073b26eecdfd717e6a320cf44b4afac2b0732d9fcbe2b7fa0cf7840155604080880180517fb10e2d527612073b26eecdfd717e6a320cf44b4afac2b0732d9fcbe2b7fa0cf88601556060890180517fb10e2d527612073b26eecdfd717e6a320cf44b4afac2b0732d9fcbe2b7fa0cf9909601805460808c018051151560a060020a90810274ffffffffffffffffffffffffffffffffffffffffff19938416600160a060020a039b8c161717909355338a526002808952868b208e5181549015159d169c909c178c5596519b8b019b909b559251948901949094555160039788018054995115159094029890911694169390931795909517909455919092528120805484929061074b908490611148565b9091555050600160a060020a037f000000000000000000000000000000000000000000000000000000000000000016600090815260036020526040812080548492906107989084906110fd565b9091555050505050565b33600160a060020a037f0000000000000000000000000000000000000000000000000000000000000000161461081d5760405160e560020a62461bcd02815260206004820152601f60248201527f4f6e6c7920565246436f6f7264696e61746f722063616e2066756c66696c6c006044820152606401610352565b6108278282610aa0565b5050565b600066038d7ea4c6800034116108865760405160e560020a62461bcd02815260206004820152600e60248201527f6e6f7420656e6f756768206574680000000000000000000000000000000000006044820152606401610352565b61089766038d7ea4c6800034611115565b33600090815260036020526040812080549091906108b69084906110fd565b909155506108cd905066038d7ea4c6800034611115565b905090565b6007546040517f70a0823100000000000000000000000000000000000000000000000000000000815230600482015260009190600160a060020a037f000000000000000000000000000000000000000000000000000000000000000016906370a082319060240160206040518083038186803b15801561095157600080fd5b505afa158015610965573d6000803e3d6000fd5b505050506040513d601f19601f820116820180604052508101906109899190611077565b10156109da5760405160e560020a62461bcd02815260206004820152601b60248201527f4e6f7420656e6f756768204c494e4b20696e20636f6e747261637400000000006044820152606401610352565b6108cd600654600754610aad565b600033600160a060020a0383161415610a175750600160a060020a031660009081526003602052604090205490565b919050565b3360009081526002602052604081206003015460a060020a900460ff16610a7f5733600090815260036020818152604080842060649055600290915290912001805474ff0000000000000000000000000000000000000000191660a060020a1790555b503360009081526002602052604090206003015460a060020a900460ff1690565b6008819055610827610c50565b60007f0000000000000000000000000000000000000000000000000000000000000000600160a060020a0316634000aea07f000000000000000000000000000000000000000000000000000000000000000084866000604051602001610b1d929190918252602082015260400190565b60408051601f19818403018152908290527c010000000000000000000000000000000000000000000000000000000063ffffffff8616028252610b64939291600401611090565b602060405180830381600087803b158015610b7e57600080fd5b505af1158015610b92573d6000803e3d6000fd5b505050506040513d601f19601f82011682018060405250810190610bb6919061101a565b5060008381526020818152604080832054815180840188905280830185905230606082015260808082018390528351808303909101815260a090910190925281519183019190912086845292909152610c109060016110fd565b6000858152602081815260409182902092909255805180830187905280820184905281518082038301815260609091019091528051910120949350505050565b60006002600854610c61919061117a565b905060005b600154811015610e61578160018281548110610c8457610c846111ec565b9060005260206000209060040201600101541415610e1b57600060018281548110610cb157610cb16111ec565b9060005260206000209060040201600201546002610ccf9190611129565b9050806003600060018581548110610ce957610ce96111ec565b6000918252602080832060036004909302019190910154600160a060020a0316835282019290925260400181208054909190610d269084906110fd565b9091555050600160a060020a037f00000000000000000000000000000000000000000000000000000000000000001660009081526003602052604081208054839290610d73908490611148565b925050819055507f9c2270628a9b29d30ae96b6c4c14ed646ee134febdce38a5b77f2bde9cea2e2060018381548110610dae57610dae6111ec565b906000526020600020906004020160030160009054906101000a9004600160a060020a031660018481548110610de657610de66111ec565b60009182526020918290206002600490920201015460408051600160a060020a039094168452918301520160405180910390a1505b600060018281548110610e3057610e306111ec565b60009182526020909120600490910201805460ff191691151591909117905580610e598161115f565b915050610c66565b50600554600090815260046020526040902060018054610e82929190610ea5565b5060058054906000610e938361115f565b90915550610478905060016000610f86565b828054828255906000526020600020906004028101928215610f765760005260206000209160040282015b82811115610f76578254825460ff918216151560ff19909116178355600180850154908401556002808501549084015560038085018054918501805473ffffffffffffffffffffffffffffffffffffffff198116600160a060020a039094169384178255915460a060020a90819004909416151590930274ffffffffffffffffffffffffffffffffffffffffff1990911690911717905560049283019290910190610ed0565b50610f82929150610fa3565b5090565b508054600082556004029060005260206000209081019061047891905b5b80821115610f8257805460ff19168155600060018201819055600282015560038101805474ffffffffffffffffffffffffffffffffffffffffff19169055600401610fa4565b600060208284031215610ffc57600080fd5b8135600160a060020a038116811461101357600080fd5b9392505050565b60006020828403121561102c57600080fd5b8151801515811461101357600080fd5b6000806040838503121561104f57600080fd5b50508035926020909101359150565b60006020828403121561107057600080fd5b5035919050565b60006020828403121561108957600080fd5b5051919050565b600160a060020a038416815260006020848184015260606040840152835180606085015260005b818110156110d3578581018301518582016080015282016110b7565b818111156110e5576000608083870101525b50601f01601f19169290920160800195945050505050565b600082198211156111105761111061118e565b500190565b600082611124576111246111bd565b500490565b60008160001904831182151516156111435761114361118e565b500290565b60008282101561115a5761115a61118e565b500390565b60006000198214156111735761117361118e565b5060010190565b600082611189576111896111bd565b500690565b7f4e487b7100000000000000000000000000000000000000000000000000000000600052601160045260246000fd5b7f4e487b7100000000000000000000000000000000000000000000000000000000600052601260045260246000fd5b7f4e487b7100000000000000000000000000000000000000000000000000000000600052603260045260246000fdfea26469706673582212206658278f5b7a2a7949166f48e974fe80d98c021d74dcb959fcf5571f8aa1000064736f6c63430008070033",
					"opcodes": "PUSH1 0xE0 PUSH1 0x40 DUP2 DUP2 MSTORE PUSH32 0xB3DCCB4CF7A26F6CF6B120CF5A73875B7BBC655B000000000000000000000000 PUSH1 0xA0 MSTORE PUSH32 0x1BE23585060835E02B77EF475B0CC51AA1E0709000000000000000000000000 PUSH1 0x80 MSTORE PUSH32 0x2ED0FEB3E7FD2022120AA84FAB1945545A9F2FFC9076FD6156FA96EAFF4C1311 PUSH1 0x6 SSTORE PUSH8 0x16345785D8A0000 PUSH1 0x7 SSTORE CALLER PUSH13 0x1000000000000000000000000 DUP2 MUL PUSH1 0xC0 MSTORE PUSH1 0x0 DUP2 DUP2 MSTORE PUSH1 0x3 PUSH1 0x20 MSTORE SWAP2 DUP3 KECCAK256 PUSH2 0x2710 SWAP1 SSTORE SWAP1 SWAP2 PUSH7 0x2386F26FC10000 SWAP1 DUP4 DUP2 DUP2 DUP2 DUP6 DUP8 GAS CALL SWAP3 POP POP POP RETURNDATASIZE DUP1 PUSH1 0x0 DUP2 EQ PUSH2 0xE7 JUMPI PUSH1 0x40 MLOAD SWAP2 POP PUSH1 0x1F NOT PUSH1 0x3F RETURNDATASIZE ADD AND DUP3 ADD PUSH1 0x40 MSTORE RETURNDATASIZE DUP3 MSTORE RETURNDATASIZE PUSH1 0x0 PUSH1 0x20 DUP5 ADD RETURNDATACOPY PUSH2 0xEC JUMP JUMPDEST PUSH1 0x60 SWAP2 POP JUMPDEST POP POP SWAP1 POP DUP1 PUSH2 0x15B JUMPI PUSH1 0x40 MLOAD PUSH32 0x8C379A000000000000000000000000000000000000000000000000000000000 DUP2 MSTORE PUSH1 0x20 PUSH1 0x4 DUP3 ADD MSTORE PUSH1 0xE PUSH1 0x24 DUP3 ADD MSTORE PUSH32 0x63616E27742073656E7420657468000000000000000000000000000000000000 PUSH1 0x44 DUP3 ADD MSTORE PUSH1 0x64 ADD PUSH1 0x40 MLOAD DUP1 SWAP2 SUB SWAP1 REVERT JUMPDEST POP ADDRESS PUSH1 0x0 SWAP1 DUP2 MSTORE PUSH1 0x3 PUSH1 0x20 MSTORE PUSH1 0x40 SWAP1 KECCAK256 PUSH2 0x3E8 SWAP1 SSTORE PUSH1 0x80 MLOAD PUSH13 0x1000000000000000000000000 SWAP1 DIV PUSH1 0xA0 MLOAD PUSH13 0x1000000000000000000000000 SWAP1 DIV PUSH1 0xC0 MLOAD PUSH13 0x1000000000000000000000000 SWAP1 DIV PUSH2 0x1251 PUSH2 0x1F2 PUSH1 0x0 CODECOPY PUSH1 0x0 DUP2 DUP2 PUSH2 0x16E ADD MSTORE DUP2 DUP2 PUSH2 0x400 ADD MSTORE DUP2 DUP2 PUSH2 0x75A ADD MSTORE PUSH2 0xD35 ADD MSTORE PUSH1 0x0 DUP2 DUP2 PUSH2 0x7AD ADD MSTORE PUSH2 0xAE0 ADD MSTORE PUSH1 0x0 DUP2 DUP2 PUSH2 0x90F ADD MSTORE PUSH2 0xAB1 ADD MSTORE PUSH2 0x1251 PUSH1 0x0 RETURN INVALID PUSH1 0x80 PUSH1 0x40 MSTORE PUSH1 0x4 CALLDATASIZE LT PUSH2 0xB9 JUMPI PUSH1 0x0 CALLDATALOAD PUSH29 0x100000000000000000000000000000000000000000000000000000000 SWAP1 DIV DUP1 PUSH4 0x87E19A2C GT PUSH2 0x81 JUMPI DUP1 PUSH4 0x87E19A2C EQ PUSH2 0x1BF JUMPI DUP1 PUSH4 0x94985DDD EQ PUSH2 0x1DF JUMPI DUP1 PUSH4 0xAAFFE698 EQ PUSH2 0x1FF JUMPI DUP1 PUSH4 0xD0E30DB0 EQ PUSH2 0x25A JUMPI DUP1 PUSH4 0xDBDFF2C1 EQ PUSH2 0x262 JUMPI DUP1 PUSH4 0xF8B2CB4F EQ PUSH2 0x277 JUMPI PUSH1 0x0 DUP1 REVERT JUMPDEST DUP1 PUSH4 0x2E1A7D4D EQ PUSH2 0xBE JUMPI DUP1 PUSH4 0x2F33B820 EQ PUSH2 0xF1 JUMPI DUP1 PUSH4 0x42619F66 EQ PUSH2 0x146 JUMPI DUP1 PUSH4 0x4C43D284 EQ PUSH2 0x15C JUMPI DUP1 PUSH4 0x5D495AEA EQ PUSH2 0x1A8 JUMPI JUMPDEST PUSH1 0x0 DUP1 REVERT JUMPDEST CALLVALUE DUP1 ISZERO PUSH2 0xCA JUMPI PUSH1 0x0 DUP1 REVERT JUMPDEST POP PUSH2 0xDE PUSH2 0xD9 CALLDATASIZE PUSH1 0x4 PUSH2 0x105E JUMP JUMPDEST PUSH2 0x297 JUMP JUMPDEST PUSH1 0x40 MLOAD SWAP1 DUP2 MSTORE PUSH1 0x20 ADD JUMPDEST PUSH1 0x40 MLOAD DUP1 SWAP2 SUB SWAP1 RETURN JUMPDEST CALLVALUE DUP1 ISZERO PUSH2 0xFD JUMPI PUSH1 0x0 DUP1 REVERT JUMPDEST POP PUSH2 0x111 PUSH2 0x10C CALLDATASIZE PUSH1 0x4 PUSH2 0x103C JUMP JUMPDEST PUSH2 0x396 JUMP JUMPDEST PUSH1 0x40 DUP1 MLOAD SWAP6 ISZERO ISZERO DUP7 MSTORE PUSH1 0x20 DUP7 ADD SWAP5 SWAP1 SWAP5 MSTORE SWAP3 DUP5 ADD SWAP2 SWAP1 SWAP2 MSTORE PUSH1 0x1 PUSH1 0xA0 PUSH1 0x2 EXP SUB AND PUSH1 0x60 DUP4 ADD MSTORE ISZERO ISZERO PUSH1 0x80 DUP3 ADD MSTORE PUSH1 0xA0 ADD PUSH2 0xE8 JUMP JUMPDEST CALLVALUE DUP1 ISZERO PUSH2 0x152 JUMPI PUSH1 0x0 DUP1 REVERT JUMPDEST POP PUSH2 0xDE PUSH1 0x8 SLOAD DUP2 JUMP JUMPDEST CALLVALUE DUP1 ISZERO PUSH2 0x168 JUMPI PUSH1 0x0 DUP1 REVERT JUMPDEST POP PUSH2 0x190 PUSH32 0x0 DUP2 JUMP JUMPDEST PUSH1 0x40 MLOAD PUSH1 0x1 PUSH1 0xA0 PUSH1 0x2 EXP SUB SWAP1 SWAP2 AND DUP2 MSTORE PUSH1 0x20 ADD PUSH2 0xE8 JUMP JUMPDEST CALLVALUE DUP1 ISZERO PUSH2 0x1B4 JUMPI PUSH1 0x0 DUP1 REVERT JUMPDEST POP PUSH2 0x1BD PUSH2 0x3F5 JUMP JUMPDEST STOP JUMPDEST CALLVALUE DUP1 ISZERO PUSH2 0x1CB JUMPI PUSH1 0x0 DUP1 REVERT JUMPDEST POP PUSH2 0x1BD PUSH2 0x1DA CALLDATASIZE PUSH1 0x4 PUSH2 0x103C JUMP JUMPDEST PUSH2 0x47B JUMP JUMPDEST CALLVALUE DUP1 ISZERO PUSH2 0x1EB JUMPI PUSH1 0x0 DUP1 REVERT JUMPDEST POP PUSH2 0x1BD PUSH2 0x1FA CALLDATASIZE PUSH1 0x4 PUSH2 0x103C JUMP JUMPDEST PUSH2 0x7A2 JUMP JUMPDEST CALLVALUE DUP1 ISZERO PUSH2 0x20B JUMPI PUSH1 0x0 DUP1 REVERT JUMPDEST POP PUSH2 0x111 PUSH2 0x21A CALLDATASIZE PUSH1 0x4 PUSH2 0xFEA JUMP JUMPDEST PUSH1 0x2 PUSH1 0x20 DUP2 SWAP1 MSTORE PUSH1 0x0 SWAP2 DUP3 MSTORE PUSH1 0x40 SWAP1 SWAP2 KECCAK256 DUP1 SLOAD PUSH1 0x1 DUP3 ADD SLOAD SWAP3 DUP3 ADD SLOAD PUSH1 0x3 SWAP1 SWAP3 ADD SLOAD PUSH1 0xFF SWAP2 DUP3 AND SWAP4 SWAP3 SWAP2 PUSH1 0x1 PUSH1 0xA0 PUSH1 0x2 EXP SUB DUP3 AND SWAP2 PUSH1 0xA0 PUSH1 0x2 EXP SWAP1 DIV AND DUP6 JUMP JUMPDEST PUSH2 0xDE PUSH2 0x82B JUMP JUMPDEST CALLVALUE DUP1 ISZERO PUSH2 0x26E JUMPI PUSH1 0x0 DUP1 REVERT JUMPDEST POP PUSH2 0xDE PUSH2 0x8D2 JUMP JUMPDEST CALLVALUE DUP1 ISZERO PUSH2 0x283 JUMPI PUSH1 0x0 DUP1 REVERT JUMPDEST POP PUSH2 0xDE PUSH2 0x292 CALLDATASIZE PUSH1 0x4 PUSH2 0xFEA JUMP JUMPDEST PUSH2 0x9E8 JUMP JUMPDEST CALLER PUSH1 0x0 SWAP1 DUP2 MSTORE PUSH1 0x3 PUSH1 0x20 MSTORE PUSH1 0x40 DUP2 KECCAK256 SLOAD DUP3 GT PUSH2 0x381 JUMPI PUSH1 0x0 CALLER PUSH2 0x2C1 DUP5 PUSH7 0x38D7EA4C68000 PUSH2 0x1129 JUMP JUMPDEST PUSH1 0x40 MLOAD PUSH1 0x0 DUP2 DUP2 DUP2 DUP6 DUP8 GAS CALL SWAP3 POP POP POP RETURNDATASIZE DUP1 PUSH1 0x0 DUP2 EQ PUSH2 0x2FD JUMPI PUSH1 0x40 MLOAD SWAP2 POP PUSH1 0x1F NOT PUSH1 0x3F RETURNDATASIZE ADD AND DUP3 ADD PUSH1 0x40 MSTORE RETURNDATASIZE DUP3 MSTORE RETURNDATASIZE PUSH1 0x0 PUSH1 0x20 DUP5 ADD RETURNDATACOPY PUSH2 0x302 JUMP JUMPDEST PUSH1 0x60 SWAP2 POP JUMPDEST POP POP SWAP1 POP DUP1 PUSH2 0x35B JUMPI PUSH1 0x40 MLOAD PUSH1 0xE5 PUSH1 0x2 EXP PUSH3 0x461BCD MUL DUP2 MSTORE PUSH1 0x20 PUSH1 0x4 DUP3 ADD MSTORE PUSH1 0x10 PUSH1 0x24 DUP3 ADD MSTORE PUSH32 0x2063616E27742077697468647261772000000000000000000000000000000000 PUSH1 0x44 DUP3 ADD MSTORE PUSH1 0x64 ADD JUMPDEST PUSH1 0x40 MLOAD DUP1 SWAP2 SUB SWAP1 REVERT JUMPDEST CALLER PUSH1 0x0 SWAP1 DUP2 MSTORE PUSH1 0x3 PUSH1 0x20 MSTORE PUSH1 0x40 DUP2 KECCAK256 DUP1 SLOAD DUP6 SWAP3 SWAP1 PUSH2 0x37A SWAP1 DUP5 SWAP1 PUSH2 0x1148 JUMP JUMPDEST SWAP1 SWAP2 SSTORE POP POP POP JUMPDEST POP POP CALLER PUSH1 0x0 SWAP1 DUP2 MSTORE PUSH1 0x3 PUSH1 0x20 MSTORE PUSH1 0x40 SWAP1 KECCAK256 SLOAD SWAP1 JUMP JUMPDEST PUSH1 0x4 PUSH1 0x20 MSTORE DUP2 PUSH1 0x0 MSTORE PUSH1 0x40 PUSH1 0x0 KECCAK256 DUP2 DUP2 SLOAD DUP2 LT PUSH2 0x3B2 JUMPI PUSH1 0x0 DUP1 REVERT JUMPDEST PUSH1 0x0 SWAP2 DUP3 MSTORE PUSH1 0x20 SWAP1 SWAP2 KECCAK256 PUSH1 0x4 SWAP1 SWAP2 MUL ADD DUP1 SLOAD PUSH1 0x1 DUP3 ADD SLOAD PUSH1 0x2 DUP4 ADD SLOAD PUSH1 0x3 SWAP1 SWAP4 ADD SLOAD PUSH1 0xFF SWAP3 DUP4 AND SWAP6 POP SWAP1 SWAP4 POP PUSH1 0x1 PUSH1 0xA0 PUSH1 0x2 EXP SUB DUP2 AND SWAP2 PUSH1 0xA0 PUSH1 0x2 EXP SWAP1 SWAP2 DIV AND DUP6 JUMP JUMPDEST CALLER PUSH1 0x1 PUSH1 0xA0 PUSH1 0x2 EXP SUB PUSH32 0x0 AND EQ PUSH2 0x470 JUMPI PUSH1 0x40 MLOAD PUSH1 0xE5 PUSH1 0x2 EXP PUSH3 0x461BCD MUL DUP2 MSTORE PUSH1 0x20 PUSH1 0x4 DUP3 ADD MSTORE PUSH1 0x9 PUSH1 0x24 DUP3 ADD MSTORE PUSH32 0x4E6F742061646D696E0000000000000000000000000000000000000000000000 PUSH1 0x44 DUP3 ADD MSTORE PUSH1 0x64 ADD PUSH2 0x352 JUMP JUMPDEST PUSH2 0x478 PUSH2 0x8D2 JUMP JUMPDEST POP JUMP JUMPDEST CALLER PUSH1 0x0 SWAP1 DUP2 MSTORE PUSH1 0x2 PUSH1 0x20 MSTORE PUSH1 0x40 SWAP1 KECCAK256 SLOAD PUSH1 0xFF AND ISZERO PUSH2 0x4DE JUMPI PUSH1 0x40 MLOAD PUSH1 0xE5 PUSH1 0x2 EXP PUSH3 0x461BCD MUL DUP2 MSTORE PUSH1 0x20 PUSH1 0x4 DUP3 ADD DUP2 SWAP1 MSTORE PUSH1 0x24 DUP3 ADD MSTORE PUSH32 0x54686520706C6179657220616C726561647920697320696E206C6F7474657279 PUSH1 0x44 DUP3 ADD MSTORE PUSH1 0x64 ADD PUSH2 0x352 JUMP JUMPDEST PUSH1 0x0 PUSH1 0x40 MLOAD DUP1 PUSH1 0xA0 ADD PUSH1 0x40 MSTORE DUP1 PUSH1 0x1 ISZERO ISZERO DUP2 MSTORE PUSH1 0x20 ADD DUP5 DUP2 MSTORE PUSH1 0x20 ADD DUP4 DUP2 MSTORE PUSH1 0x20 ADD CALLER PUSH1 0x1 PUSH1 0xA0 PUSH1 0x2 EXP SUB AND DUP2 MSTORE PUSH1 0x20 ADD PUSH2 0x517 PUSH2 0xA1C JUMP JUMPDEST ISZERO ISZERO SWAP1 MSTORE SWAP1 POP DUP3 ISZERO DUP1 PUSH2 0x52A JUMPI POP DUP3 PUSH1 0x1 EQ JUMPDEST PUSH2 0x579 JUMPI PUSH1 0x40 MLOAD PUSH1 0xE5 PUSH1 0x2 EXP PUSH3 0x461BCD MUL DUP2 MSTORE PUSH1 0x20 PUSH1 0x4 DUP3 ADD MSTORE PUSH1 0x13 PUSH1 0x24 DUP3 ADD MSTORE PUSH32 0x656E7465722076616C69642062657474696E6700000000000000000000000000 PUSH1 0x44 DUP3 ADD MSTORE PUSH1 0x64 ADD PUSH2 0x352 JUMP JUMPDEST PUSH1 0x0 DUP3 GT DUP1 ISZERO PUSH2 0x598 JUMPI POP CALLER PUSH1 0x0 SWAP1 DUP2 MSTORE PUSH1 0x3 PUSH1 0x20 MSTORE PUSH1 0x40 SWAP1 KECCAK256 SLOAD DUP3 GT ISZERO JUMPDEST PUSH2 0x5E7 JUMPI PUSH1 0x40 MLOAD PUSH1 0xE5 PUSH1 0x2 EXP PUSH3 0x461BCD MUL DUP2 MSTORE PUSH1 0x20 PUSH1 0x4 DUP3 ADD MSTORE PUSH1 0x14 PUSH1 0x24 DUP3 ADD MSTORE PUSH32 0x636865636B207468652062657420616D6F756E74000000000000000000000000 PUSH1 0x44 DUP3 ADD MSTORE PUSH1 0x64 ADD PUSH2 0x352 JUMP JUMPDEST PUSH1 0x1 DUP1 SLOAD DUP1 DUP3 ADD DUP3 SSTORE PUSH1 0x0 DUP3 DUP2 MSTORE DUP4 MLOAD PUSH1 0x4 SWAP1 SWAP3 MUL PUSH32 0xB10E2D527612073B26EECDFD717E6A320CF44B4AFAC2B0732D9FCBE2B7FA0CF6 DUP2 ADD DUP1 SLOAD SWAP4 ISZERO ISZERO PUSH1 0xFF NOT SWAP5 DUP6 AND OR SWAP1 SSTORE PUSH1 0x20 DUP1 DUP7 ADD DUP1 MLOAD PUSH32 0xB10E2D527612073B26EECDFD717E6A320CF44B4AFAC2B0732D9FCBE2B7FA0CF7 DUP5 ADD SSTORE PUSH1 0x40 DUP1 DUP9 ADD DUP1 MLOAD PUSH32 0xB10E2D527612073B26EECDFD717E6A320CF44B4AFAC2B0732D9FCBE2B7FA0CF8 DUP7 ADD SSTORE PUSH1 0x60 DUP10 ADD DUP1 MLOAD PUSH32 0xB10E2D527612073B26EECDFD717E6A320CF44B4AFAC2B0732D9FCBE2B7FA0CF9 SWAP1 SWAP7 ADD DUP1 SLOAD PUSH1 0x80 DUP13 ADD DUP1 MLOAD ISZERO ISZERO PUSH1 0xA0 PUSH1 0x2 EXP SWAP1 DUP2 MUL PUSH21 0xFFFFFFFFFFFFFFFFFFFFFFFFFFFFFFFFFFFFFFFFFF NOT SWAP4 DUP5 AND PUSH1 0x1 PUSH1 0xA0 PUSH1 0x2 EXP SUB SWAP12 DUP13 AND OR OR SWAP1 SWAP4 SSTORE CALLER DUP11 MSTORE PUSH1 0x2 DUP1 DUP10 MSTORE DUP7 DUP12 KECCAK256 DUP15 MLOAD DUP2 SLOAD SWAP1 ISZERO ISZERO SWAP14 AND SWAP13 SWAP1 SWAP13 OR DUP13 SSTORE SWAP7 MLOAD SWAP12 DUP12 ADD SWAP12 SWAP1 SWAP12 SSTORE SWAP3 MLOAD SWAP5 DUP10 ADD SWAP5 SWAP1 SWAP5 SSTORE MLOAD PUSH1 0x3 SWAP8 DUP9 ADD DUP1 SLOAD SWAP10 MLOAD ISZERO ISZERO SWAP1 SWAP5 MUL SWAP9 SWAP1 SWAP2 AND SWAP5 AND SWAP4 SWAP1 SWAP4 OR SWAP6 SWAP1 SWAP6 OR SWAP1 SWAP5 SSTORE SWAP2 SWAP1 SWAP3 MSTORE DUP2 KECCAK256 DUP1 SLOAD DUP5 SWAP3 SWAP1 PUSH2 0x74B SWAP1 DUP5 SWAP1 PUSH2 0x1148 JUMP JUMPDEST SWAP1 SWAP2 SSTORE POP POP PUSH1 0x1 PUSH1 0xA0 PUSH1 0x2 EXP SUB PUSH32 0x0 AND PUSH1 0x0 SWAP1 DUP2 MSTORE PUSH1 0x3 PUSH1 0x20 MSTORE PUSH1 0x40 DUP2 KECCAK256 DUP1 SLOAD DUP5 SWAP3 SWAP1 PUSH2 0x798 SWAP1 DUP5 SWAP1 PUSH2 0x10FD JUMP JUMPDEST SWAP1 SWAP2 SSTORE POP POP POP POP POP JUMP JUMPDEST CALLER PUSH1 0x1 PUSH1 0xA0 PUSH1 0x2 EXP SUB PUSH32 0x0 AND EQ PUSH2 0x81D JUMPI PUSH1 0x40 MLOAD PUSH1 0xE5 PUSH1 0x2 EXP PUSH3 0x461BCD MUL DUP2 MSTORE PUSH1 0x20 PUSH1 0x4 DUP3 ADD MSTORE PUSH1 0x1F PUSH1 0x24 DUP3 ADD MSTORE PUSH32 0x4F6E6C7920565246436F6F7264696E61746F722063616E2066756C66696C6C00 PUSH1 0x44 DUP3 ADD MSTORE PUSH1 0x64 ADD PUSH2 0x352 JUMP JUMPDEST PUSH2 0x827 DUP3 DUP3 PUSH2 0xAA0 JUMP JUMPDEST POP POP JUMP JUMPDEST PUSH1 0x0 PUSH7 0x38D7EA4C68000 CALLVALUE GT PUSH2 0x886 JUMPI PUSH1 0x40 MLOAD PUSH1 0xE5 PUSH1 0x2 EXP PUSH3 0x461BCD MUL DUP2 MSTORE PUSH1 0x20 PUSH1 0x4 DUP3 ADD MSTORE PUSH1 0xE PUSH1 0x24 DUP3 ADD MSTORE PUSH32 0x6E6F7420656E6F75676820657468000000000000000000000000000000000000 PUSH1 0x44 DUP3 ADD MSTORE PUSH1 0x64 ADD PUSH2 0x352 JUMP JUMPDEST PUSH2 0x897 PUSH7 0x38D7EA4C68000 CALLVALUE PUSH2 0x1115 JUMP JUMPDEST CALLER PUSH1 0x0 SWAP1 DUP2 MSTORE PUSH1 0x3 PUSH1 0x20 MSTORE PUSH1 0x40 DUP2 KECCAK256 DUP1 SLOAD SWAP1 SWAP2 SWAP1 PUSH2 0x8B6 SWAP1 DUP5 SWAP1 PUSH2 0x10FD JUMP JUMPDEST SWAP1 SWAP2 SSTORE POP PUSH2 0x8CD SWAP1 POP PUSH7 0x38D7EA4C68000 CALLVALUE PUSH2 0x1115 JUMP JUMPDEST SWAP1 POP SWAP1 JUMP JUMPDEST PUSH1 0x7 SLOAD PUSH1 0x40 MLOAD PUSH32 0x70A0823100000000000000000000000000000000000000000000000000000000 DUP2 MSTORE ADDRESS PUSH1 0x4 DUP3 ADD MSTORE PUSH1 0x0 SWAP2 SWAP1 PUSH1 0x1 PUSH1 0xA0 PUSH1 0x2 EXP SUB PUSH32 0x0 AND SWAP1 PUSH4 0x70A08231 SWAP1 PUSH1 0x24 ADD PUSH1 0x20 PUSH1 0x40 MLOAD DUP1 DUP4 SUB DUP2 DUP7 DUP1 EXTCODESIZE ISZERO DUP1 ISZERO PUSH2 0x951 JUMPI PUSH1 0x0 DUP1 REVERT JUMPDEST POP GAS STATICCALL ISZERO DUP1 ISZERO PUSH2 0x965 JUMPI RETURNDATASIZE PUSH1 0x0 DUP1 RETURNDATACOPY RETURNDATASIZE PUSH1 0x0 REVERT JUMPDEST POP POP POP POP PUSH1 0x40 MLOAD RETURNDATASIZE PUSH1 0x1F NOT PUSH1 0x1F DUP3 ADD AND DUP3 ADD DUP1 PUSH1 0x40 MSTORE POP DUP2 ADD SWAP1 PUSH2 0x989 SWAP2 SWAP1 PUSH2 0x1077 JUMP JUMPDEST LT ISZERO PUSH2 0x9DA JUMPI PUSH1 0x40 MLOAD PUSH1 0xE5 PUSH1 0x2 EXP PUSH3 0x461BCD MUL DUP2 MSTORE PUSH1 0x20 PUSH1 0x4 DUP3 ADD MSTORE PUSH1 0x1B PUSH1 0x24 DUP3 ADD MSTORE PUSH32 0x4E6F7420656E6F756768204C494E4B20696E20636F6E74726163740000000000 PUSH1 0x44 DUP3 ADD MSTORE PUSH1 0x64 ADD PUSH2 0x352 JUMP JUMPDEST PUSH2 0x8CD PUSH1 0x6 SLOAD PUSH1 0x7 SLOAD PUSH2 0xAAD JUMP JUMPDEST PUSH1 0x0 CALLER PUSH1 0x1 PUSH1 0xA0 PUSH1 0x2 EXP SUB DUP4 AND EQ ISZERO PUSH2 0xA17 JUMPI POP PUSH1 0x1 PUSH1 0xA0 PUSH1 0x2 EXP SUB AND PUSH1 0x0 SWAP1 DUP2 MSTORE PUSH1 0x3 PUSH1 0x20 MSTORE PUSH1 0x40 SWAP1 KECCAK256 SLOAD SWAP1 JUMP JUMPDEST SWAP2 SWAP1 POP JUMP JUMPDEST CALLER PUSH1 0x0 SWAP1 DUP2 MSTORE PUSH1 0x2 PUSH1 0x20 MSTORE PUSH1 0x40 DUP2 KECCAK256 PUSH1 0x3 ADD SLOAD PUSH1 0xA0 PUSH1 0x2 EXP SWAP1 DIV PUSH1 0xFF AND PUSH2 0xA7F JUMPI CALLER PUSH1 0x0 SWAP1 DUP2 MSTORE PUSH1 0x3 PUSH1 0x20 DUP2 DUP2 MSTORE PUSH1 0x40 DUP1 DUP5 KECCAK256 PUSH1 0x64 SWAP1 SSTORE PUSH1 0x2 SWAP1 SWAP2 MSTORE SWAP1 SWAP2 KECCAK256 ADD DUP1 SLOAD PUSH21 0xFF0000000000000000000000000000000000000000 NOT AND PUSH1 0xA0 PUSH1 0x2 EXP OR SWAP1 SSTORE JUMPDEST POP CALLER PUSH1 0x0 SWAP1 DUP2 MSTORE PUSH1 0x2 PUSH1 0x20 MSTORE PUSH1 0x40 SWAP1 KECCAK256 PUSH1 0x3 ADD SLOAD PUSH1 0xA0 PUSH1 0x2 EXP SWAP1 DIV PUSH1 0xFF AND SWAP1 JUMP JUMPDEST PUSH1 0x8 DUP2 SWAP1 SSTORE PUSH2 0x827 PUSH2 0xC50 JUMP JUMPDEST PUSH1 0x0 PUSH32 0x0 PUSH1 0x1 PUSH1 0xA0 PUSH1 0x2 EXP SUB AND PUSH4 0x4000AEA0 PUSH32 0x0 DUP5 DUP7 PUSH1 0x0 PUSH1 0x40 MLOAD PUSH1 0x20 ADD PUSH2 0xB1D SWAP3 SWAP2 SWAP1 SWAP2 DUP3 MSTORE PUSH1 0x20 DUP3 ADD MSTORE PUSH1 0x40 ADD SWAP1 JUMP JUMPDEST PUSH1 0x40 DUP1 MLOAD PUSH1 0x1F NOT DUP2 DUP5 SUB ADD DUP2 MSTORE SWAP1 DUP3 SWAP1 MSTORE PUSH29 0x100000000000000000000000000000000000000000000000000000000 PUSH4 0xFFFFFFFF DUP7 AND MUL DUP3 MSTORE PUSH2 0xB64 SWAP4 SWAP3 SWAP2 PUSH1 0x4 ADD PUSH2 0x1090 JUMP JUMPDEST PUSH1 0x20 PUSH1 0x40 MLOAD DUP1 DUP4 SUB DUP2 PUSH1 0x0 DUP8 DUP1 EXTCODESIZE ISZERO DUP1 ISZERO PUSH2 0xB7E JUMPI PUSH1 0x0 DUP1 REVERT JUMPDEST POP GAS CALL ISZERO DUP1 ISZERO PUSH2 0xB92 JUMPI RETURNDATASIZE PUSH1 0x0 DUP1 RETURNDATACOPY RETURNDATASIZE PUSH1 0x0 REVERT JUMPDEST POP POP POP POP PUSH1 0x40 MLOAD RETURNDATASIZE PUSH1 0x1F NOT PUSH1 0x1F DUP3 ADD AND DUP3 ADD DUP1 PUSH1 0x40 MSTORE POP DUP2 ADD SWAP1 PUSH2 0xBB6 SWAP2 SWAP1 PUSH2 0x101A JUMP JUMPDEST POP PUSH1 0x0 DUP4 DUP2 MSTORE PUSH1 0x20 DUP2 DUP2 MSTORE PUSH1 0x40 DUP1 DUP4 KECCAK256 SLOAD DUP2 MLOAD DUP1 DUP5 ADD DUP9 SWAP1 MSTORE DUP1 DUP4 ADD DUP6 SWAP1 MSTORE ADDRESS PUSH1 0x60 DUP3 ADD MSTORE PUSH1 0x80 DUP1 DUP3 ADD DUP4 SWAP1 MSTORE DUP4 MLOAD DUP1 DUP4 SUB SWAP1 SWAP2 ADD DUP2 MSTORE PUSH1 0xA0 SWAP1 SWAP2 ADD SWAP1 SWAP3 MSTORE DUP2 MLOAD SWAP2 DUP4 ADD SWAP2 SWAP1 SWAP2 KECCAK256 DUP7 DUP5 MSTORE SWAP3 SWAP1 SWAP2 MSTORE PUSH2 0xC10 SWAP1 PUSH1 0x1 PUSH2 0x10FD JUMP JUMPDEST PUSH1 0x0 DUP6 DUP2 MSTORE PUSH1 0x20 DUP2 DUP2 MSTORE PUSH1 0x40 SWAP2 DUP3 SWAP1 KECCAK256 SWAP3 SWAP1 SWAP3 SSTORE DUP1 MLOAD DUP1 DUP4 ADD DUP8 SWAP1 MSTORE DUP1 DUP3 ADD DUP5 SWAP1 MSTORE DUP2 MLOAD DUP1 DUP3 SUB DUP4 ADD DUP2 MSTORE PUSH1 0x60 SWAP1 SWAP2 ADD SWAP1 SWAP2 MSTORE DUP1 MLOAD SWAP2 ADD KECCAK256 SWAP5 SWAP4 POP POP POP POP JUMP JUMPDEST PUSH1 0x0 PUSH1 0x2 PUSH1 0x8 SLOAD PUSH2 0xC61 SWAP2 SWAP1 PUSH2 0x117A JUMP JUMPDEST SWAP1 POP PUSH1 0x0 JUMPDEST PUSH1 0x1 SLOAD DUP2 LT ISZERO PUSH2 0xE61 JUMPI DUP2 PUSH1 0x1 DUP3 DUP2 SLOAD DUP2 LT PUSH2 0xC84 JUMPI PUSH2 0xC84 PUSH2 0x11EC JUMP JUMPDEST SWAP1 PUSH1 0x0 MSTORE PUSH1 0x20 PUSH1 0x0 KECCAK256 SWAP1 PUSH1 0x4 MUL ADD PUSH1 0x1 ADD SLOAD EQ ISZERO PUSH2 0xE1B JUMPI PUSH1 0x0 PUSH1 0x1 DUP3 DUP2 SLOAD DUP2 LT PUSH2 0xCB1 JUMPI PUSH2 0xCB1 PUSH2 0x11EC JUMP JUMPDEST SWAP1 PUSH1 0x0 MSTORE PUSH1 0x20 PUSH1 0x0 KECCAK256 SWAP1 PUSH1 0x4 MUL ADD PUSH1 0x2 ADD SLOAD PUSH1 0x2 PUSH2 0xCCF SWAP2 SWAP1 PUSH2 0x1129 JUMP JUMPDEST SWAP1 POP DUP1 PUSH1 0x3 PUSH1 0x0 PUSH1 0x1 DUP6 DUP2 SLOAD DUP2 LT PUSH2 0xCE9 JUMPI PUSH2 0xCE9 PUSH2 0x11EC JUMP JUMPDEST PUSH1 0x0 SWAP2 DUP3 MSTORE PUSH1 0x20 DUP1 DUP4 KECCAK256 PUSH1 0x3 PUSH1 0x4 SWAP1 SWAP4 MUL ADD SWAP2 SWAP1 SWAP2 ADD SLOAD PUSH1 0x1 PUSH1 0xA0 PUSH1 0x2 EXP SUB AND DUP4 MSTORE DUP3 ADD SWAP3 SWAP1 SWAP3 MSTORE PUSH1 0x40 ADD DUP2 KECCAK256 DUP1 SLOAD SWAP1 SWAP2 SWAP1 PUSH2 0xD26 SWAP1 DUP5 SWAP1 PUSH2 0x10FD JUMP JUMPDEST SWAP1 SWAP2 SSTORE POP POP PUSH1 0x1 PUSH1 0xA0 PUSH1 0x2 EXP SUB PUSH32 0x0 AND PUSH1 0x0 SWAP1 DUP2 MSTORE PUSH1 0x3 PUSH1 0x20 MSTORE PUSH1 0x40 DUP2 KECCAK256 DUP1 SLOAD DUP4 SWAP3 SWAP1 PUSH2 0xD73 SWAP1 DUP5 SWAP1 PUSH2 0x1148 JUMP JUMPDEST SWAP3 POP POP DUP2 SWAP1 SSTORE POP PUSH32 0x9C2270628A9B29D30AE96B6C4C14ED646EE134FEBDCE38A5B77F2BDE9CEA2E20 PUSH1 0x1 DUP4 DUP2 SLOAD DUP2 LT PUSH2 0xDAE JUMPI PUSH2 0xDAE PUSH2 0x11EC JUMP JUMPDEST SWAP1 PUSH1 0x0 MSTORE PUSH1 0x20 PUSH1 0x0 KECCAK256 SWAP1 PUSH1 0x4 MUL ADD PUSH1 0x3 ADD PUSH1 0x0 SWAP1 SLOAD SWAP1 PUSH2 0x100 EXP SWAP1 DIV PUSH1 0x1 PUSH1 0xA0 PUSH1 0x2 EXP SUB AND PUSH1 0x1 DUP5 DUP2 SLOAD DUP2 LT PUSH2 0xDE6 JUMPI PUSH2 0xDE6 PUSH2 0x11EC JUMP JUMPDEST PUSH1 0x0 SWAP2 DUP3 MSTORE PUSH1 0x20 SWAP2 DUP3 SWAP1 KECCAK256 PUSH1 0x2 PUSH1 0x4 SWAP1 SWAP3 MUL ADD ADD SLOAD PUSH1 0x40 DUP1 MLOAD PUSH1 0x1 PUSH1 0xA0 PUSH1 0x2 EXP SUB SWAP1 SWAP5 AND DUP5 MSTORE SWAP2 DUP4 ADD MSTORE ADD PUSH1 0x40 MLOAD DUP1 SWAP2 SUB SWAP1 LOG1 POP JUMPDEST PUSH1 0x0 PUSH1 0x1 DUP3 DUP2 SLOAD DUP2 LT PUSH2 0xE30 JUMPI PUSH2 0xE30 PUSH2 0x11EC JUMP JUMPDEST PUSH1 0x0 SWAP2 DUP3 MSTORE PUSH1 0x20 SWAP1 SWAP2 KECCAK256 PUSH1 0x4 SWAP1 SWAP2 MUL ADD DUP1 SLOAD PUSH1 0xFF NOT AND SWAP2 ISZERO ISZERO SWAP2 SWAP1 SWAP2 OR SWAP1 SSTORE DUP1 PUSH2 0xE59 DUP2 PUSH2 0x115F JUMP JUMPDEST SWAP2 POP POP PUSH2 0xC66 JUMP JUMPDEST POP PUSH1 0x5 SLOAD PUSH1 0x0 SWAP1 DUP2 MSTORE PUSH1 0x4 PUSH1 0x20 MSTORE PUSH1 0x40 SWAP1 KECCAK256 PUSH1 0x1 DUP1 SLOAD PUSH2 0xE82 SWAP3 SWAP2 SWAP1 PUSH2 0xEA5 JUMP JUMPDEST POP PUSH1 0x5 DUP1 SLOAD SWAP1 PUSH1 0x0 PUSH2 0xE93 DUP4 PUSH2 0x115F JUMP JUMPDEST SWAP1 SWAP2 SSTORE POP PUSH2 0x478 SWAP1 POP PUSH1 0x1 PUSH1 0x0 PUSH2 0xF86 JUMP JUMPDEST DUP3 DUP1 SLOAD DUP3 DUP3 SSTORE SWAP1 PUSH1 0x0 MSTORE PUSH1 0x20 PUSH1 0x0 KECCAK256 SWAP1 PUSH1 0x4 MUL DUP2 ADD SWAP3 DUP3 ISZERO PUSH2 0xF76 JUMPI PUSH1 0x0 MSTORE PUSH1 0x20 PUSH1 0x0 KECCAK256 SWAP2 PUSH1 0x4 MUL DUP3 ADD JUMPDEST DUP3 DUP2 GT ISZERO PUSH2 0xF76 JUMPI DUP3 SLOAD DUP3 SLOAD PUSH1 0xFF SWAP2 DUP3 AND ISZERO ISZERO PUSH1 0xFF NOT SWAP1 SWAP2 AND OR DUP4 SSTORE PUSH1 0x1 DUP1 DUP6 ADD SLOAD SWAP1 DUP5 ADD SSTORE PUSH1 0x2 DUP1 DUP6 ADD SLOAD SWAP1 DUP5 ADD SSTORE PUSH1 0x3 DUP1 DUP6 ADD DUP1 SLOAD SWAP2 DUP6 ADD DUP1 SLOAD PUSH20 0xFFFFFFFFFFFFFFFFFFFFFFFFFFFFFFFFFFFFFFFF NOT DUP2 AND PUSH1 0x1 PUSH1 0xA0 PUSH1 0x2 EXP SUB SWAP1 SWAP5 AND SWAP4 DUP5 OR DUP3 SSTORE SWAP2 SLOAD PUSH1 0xA0 PUSH1 0x2 EXP SWAP1 DUP2 SWAP1 DIV SWAP1 SWAP5 AND ISZERO ISZERO SWAP1 SWAP4 MUL PUSH21 0xFFFFFFFFFFFFFFFFFFFFFFFFFFFFFFFFFFFFFFFFFF NOT SWAP1 SWAP2 AND SWAP1 SWAP2 OR OR SWAP1 SSTORE PUSH1 0x4 SWAP3 DUP4 ADD SWAP3 SWAP1 SWAP2 ADD SWAP1 PUSH2 0xED0 JUMP JUMPDEST POP PUSH2 0xF82 SWAP3 SWAP2 POP PUSH2 0xFA3 JUMP JUMPDEST POP SWAP1 JUMP JUMPDEST POP DUP1 SLOAD PUSH1 0x0 DUP3 SSTORE PUSH1 0x4 MUL SWAP1 PUSH1 0x0 MSTORE PUSH1 0x20 PUSH1 0x0 KECCAK256 SWAP1 DUP2 ADD SWAP1 PUSH2 0x478 SWAP2 SWAP1 JUMPDEST JUMPDEST DUP1 DUP3 GT ISZERO PUSH2 0xF82 JUMPI DUP1 SLOAD PUSH1 0xFF NOT AND DUP2 SSTORE PUSH1 0x0 PUSH1 0x1 DUP3 ADD DUP2 SWAP1 SSTORE PUSH1 0x2 DUP3 ADD SSTORE PUSH1 0x3 DUP2 ADD DUP1 SLOAD PUSH21 0xFFFFFFFFFFFFFFFFFFFFFFFFFFFFFFFFFFFFFFFFFF NOT AND SWAP1 SSTORE PUSH1 0x4 ADD PUSH2 0xFA4 JUMP JUMPDEST PUSH1 0x0 PUSH1 0x20 DUP3 DUP5 SUB SLT ISZERO PUSH2 0xFFC JUMPI PUSH1 0x0 DUP1 REVERT JUMPDEST DUP2 CALLDATALOAD PUSH1 0x1 PUSH1 0xA0 PUSH1 0x2 EXP SUB DUP2 AND DUP2 EQ PUSH2 0x1013 JUMPI PUSH1 0x0 DUP1 REVERT JUMPDEST SWAP4 SWAP3 POP POP POP JUMP JUMPDEST PUSH1 0x0 PUSH1 0x20 DUP3 DUP5 SUB SLT ISZERO PUSH2 0x102C JUMPI PUSH1 0x0 DUP1 REVERT JUMPDEST DUP2 MLOAD DUP1 ISZERO ISZERO DUP2 EQ PUSH2 0x1013 JUMPI PUSH1 0x0 DUP1 REVERT JUMPDEST PUSH1 0x0 DUP1 PUSH1 0x40 DUP4 DUP6 SUB SLT ISZERO PUSH2 0x104F JUMPI PUSH1 0x0 DUP1 REVERT JUMPDEST POP POP DUP1 CALLDATALOAD SWAP3 PUSH1 0x20 SWAP1 SWAP2 ADD CALLDATALOAD SWAP2 POP JUMP JUMPDEST PUSH1 0x0 PUSH1 0x20 DUP3 DUP5 SUB SLT ISZERO PUSH2 0x1070 JUMPI PUSH1 0x0 DUP1 REVERT JUMPDEST POP CALLDATALOAD SWAP2 SWAP1 POP JUMP JUMPDEST PUSH1 0x0 PUSH1 0x20 DUP3 DUP5 SUB SLT ISZERO PUSH2 0x1089 JUMPI PUSH1 0x0 DUP1 REVERT JUMPDEST POP MLOAD SWAP2 SWAP1 POP JUMP JUMPDEST PUSH1 0x1 PUSH1 0xA0 PUSH1 0x2 EXP SUB DUP5 AND DUP2 MSTORE PUSH1 0x0 PUSH1 0x20 DUP5 DUP2 DUP5 ADD MSTORE PUSH1 0x60 PUSH1 0x40 DUP5 ADD MSTORE DUP4 MLOAD DUP1 PUSH1 0x60 DUP6 ADD MSTORE PUSH1 0x0 JUMPDEST DUP2 DUP2 LT ISZERO PUSH2 0x10D3 JUMPI DUP6 DUP2 ADD DUP4 ADD MLOAD DUP6 DUP3 ADD PUSH1 0x80 ADD MSTORE DUP3 ADD PUSH2 0x10B7 JUMP JUMPDEST DUP2 DUP2 GT ISZERO PUSH2 0x10E5 JUMPI PUSH1 0x0 PUSH1 0x80 DUP4 DUP8 ADD ADD MSTORE JUMPDEST POP PUSH1 0x1F ADD PUSH1 0x1F NOT AND SWAP3 SWAP1 SWAP3 ADD PUSH1 0x80 ADD SWAP6 SWAP5 POP POP POP POP POP JUMP JUMPDEST PUSH1 0x0 DUP3 NOT DUP3 GT ISZERO PUSH2 0x1110 JUMPI PUSH2 0x1110 PUSH2 0x118E JUMP JUMPDEST POP ADD SWAP1 JUMP JUMPDEST PUSH1 0x0 DUP3 PUSH2 0x1124 JUMPI PUSH2 0x1124 PUSH2 0x11BD JUMP JUMPDEST POP DIV SWAP1 JUMP JUMPDEST PUSH1 0x0 DUP2 PUSH1 0x0 NOT DIV DUP4 GT DUP3 ISZERO ISZERO AND ISZERO PUSH2 0x1143 JUMPI PUSH2 0x1143 PUSH2 0x118E JUMP JUMPDEST POP MUL SWAP1 JUMP JUMPDEST PUSH1 0x0 DUP3 DUP3 LT ISZERO PUSH2 0x115A JUMPI PUSH2 0x115A PUSH2 0x118E JUMP JUMPDEST POP SUB SWAP1 JUMP JUMPDEST PUSH1 0x0 PUSH1 0x0 NOT DUP3 EQ ISZERO PUSH2 0x1173 JUMPI PUSH2 0x1173 PUSH2 0x118E JUMP JUMPDEST POP PUSH1 0x1 ADD SWAP1 JUMP JUMPDEST PUSH1 0x0 DUP3 PUSH2 0x1189 JUMPI PUSH2 0x1189 PUSH2 0x11BD JUMP JUMPDEST POP MOD SWAP1 JUMP JUMPDEST PUSH32 0x4E487B7100000000000000000000000000000000000000000000000000000000 PUSH1 0x0 MSTORE PUSH1 0x11 PUSH1 0x4 MSTORE PUSH1 0x24 PUSH1 0x0 REVERT JUMPDEST PUSH32 0x4E487B7100000000000000000000000000000000000000000000000000000000 PUSH1 0x0 MSTORE PUSH1 0x12 PUSH1 0x4 MSTORE PUSH1 0x24 PUSH1 0x0 REVERT JUMPDEST PUSH32 0x4E487B7100000000000000000000000000000000000000000000000000000000 PUSH1 0x0 MSTORE PUSH1 0x32 PUSH1 0x4 MSTORE PUSH1 0x24 PUSH1 0x0 REVERT INVALID LOG2 PUSH5 0x6970667358 0x22 SLT KECCAK256 PUSH7 0x58278F5B7A2A79 0x49 AND PUSH16 0x48E974FE80D98C021D74DCB959FCF557 0x1F DUP11 LOG1 STOP STOP PUSH5 0x736F6C6343 STOP ADDMOD SMOD STOP CALLER "
				},
				"gasEstimates": {
					"creation": {
						"codeDepositCost": "937800",
						"executionCost": "infinite",
						"totalCost": "infinite"
					},
					"external": {
						"Playermap(address)": "1679",
						"completedBets(uint256,uint256)": "1885",
						"deposit()": "infinite",
						"enterLotery(uint256,uint256)": "infinite",
						"getBalance(address)": "936",
						"getRandomNumber()": "infinite",
						"i_admin()": "infinite",
						"pickWinner()": "infinite",
						"randomResult()": "434",
						"rawFulfillRandomness(bytes32,uint256)": "infinite",
						"withdraw(uint256)": "infinite"
					},
					"internal": {
						"IsBalancecreditted()": "41181",
						"fulfillRandomness(bytes32,uint256)": "infinite",
						"rewardsBet()": "infinite"
					}
				},
				"methodIdentifiers": {
					"Playermap(address)": "aaffe698",
					"completedBets(uint256,uint256)": "2f33b820",
					"deposit()": "d0e30db0",
					"enterLotery(uint256,uint256)": "87e19a2c",
					"getBalance(address)": "f8b2cb4f",
					"getRandomNumber()": "dbdff2c1",
					"i_admin()": "4c43d284",
					"pickWinner()": "5d495aea",
					"randomResult()": "42619f66",
					"rawFulfillRandomness(bytes32,uint256)": "94985ddd",
					"withdraw(uint256)": "2e1a7d4d"
				}
			},
			"storageLayout": {
				"storage": [
					{
						"astId": 79,
						"contract": "contracts/lottery.sol:enterLottery",
						"label": "nonces",
						"offset": 0,
						"slot": "0",
						"type": "t_mapping(t_bytes32,t_uint256)"
					},
					{
						"astId": 287,
						"contract": "contracts/lottery.sol:enterLottery",
						"label": "Players",
						"offset": 0,
						"slot": "1",
						"type": "t_array(t_struct(player)281_storage)dyn_storage"
					},
					{
						"astId": 292,
						"contract": "contracts/lottery.sol:enterLottery",
						"label": "Playermap",
						"offset": 0,
						"slot": "2",
						"type": "t_mapping(t_address,t_struct(player)281_storage)"
					},
					{
						"astId": 296,
						"contract": "contracts/lottery.sol:enterLottery",
						"label": "BalanceOfPlayer",
						"offset": 0,
						"slot": "3",
						"type": "t_mapping(t_address,t_uint256)"
					},
					{
						"astId": 302,
						"contract": "contracts/lottery.sol:enterLottery",
						"label": "completedBets",
						"offset": 0,
						"slot": "4",
						"type": "t_mapping(t_uint256,t_array(t_struct(player)281_storage)dyn_storage)"
					},
					{
						"astId": 304,
						"contract": "contracts/lottery.sol:enterLottery",
						"label": "completedBetCount",
						"offset": 0,
						"slot": "5",
						"type": "t_uint256"
					},
					{
						"astId": 312,
						"contract": "contracts/lottery.sol:enterLottery",
						"label": "keyHash",
						"offset": 0,
						"slot": "6",
						"type": "t_bytes32"
					},
					{
						"astId": 314,
						"contract": "contracts/lottery.sol:enterLottery",
						"label": "fee",
						"offset": 0,
						"slot": "7",
						"type": "t_uint256"
					},
					{
						"astId": 316,
						"contract": "contracts/lottery.sol:enterLottery",
						"label": "randomResult",
						"offset": 0,
						"slot": "8",
						"type": "t_uint256"
					}
				],
				"types": {
					"t_address": {
						"encoding": "inplace",
						"label": "address",
						"numberOfBytes": "20"
					},
					"t_array(t_struct(player)281_storage)dyn_storage": {
						"base": "t_struct(player)281_storage",
						"encoding": "dynamic_array",
						"label": "struct enterLottery.player[]",
						"numberOfBytes": "32"
					},
					"t_bool": {
						"encoding": "inplace",
						"label": "bool",
						"numberOfBytes": "1"
					},
					"t_bytes32": {
						"encoding": "inplace",
						"label": "bytes32",
						"numberOfBytes": "32"
					},
					"t_mapping(t_address,t_struct(player)281_storage)": {
						"encoding": "mapping",
						"key": "t_address",
						"label": "mapping(address => struct enterLottery.player)",
						"numberOfBytes": "32",
						"value": "t_struct(player)281_storage"
					},
					"t_mapping(t_address,t_uint256)": {
						"encoding": "mapping",
						"key": "t_address",
						"label": "mapping(address => uint256)",
						"numberOfBytes": "32",
						"value": "t_uint256"
					},
					"t_mapping(t_bytes32,t_uint256)": {
						"encoding": "mapping",
						"key": "t_bytes32",
						"label": "mapping(bytes32 => uint256)",
						"numberOfBytes": "32",
						"value": "t_uint256"
					},
					"t_mapping(t_uint256,t_array(t_struct(player)281_storage)dyn_storage)": {
						"encoding": "mapping",
						"key": "t_uint256",
						"label": "mapping(uint256 => struct enterLottery.player[])",
						"numberOfBytes": "32",
						"value": "t_array(t_struct(player)281_storage)dyn_storage"
					},
					"t_struct(player)281_storage": {
						"encoding": "inplace",
						"label": "struct enterLottery.player",
						"members": [
							{
								"astId": 272,
								"contract": "contracts/lottery.sol:enterLottery",
								"label": "IsInLotteryPool",
								"offset": 0,
								"slot": "0",
								"type": "t_bool"
							},
							{
								"astId": 274,
								"contract": "contracts/lottery.sol:enterLottery",
								"label": "betingNum",
								"offset": 0,
								"slot": "1",
								"type": "t_uint256"
							},
							{
								"astId": 276,
								"contract": "contracts/lottery.sol:enterLottery",
								"label": "amount",
								"offset": 0,
								"slot": "2",
								"type": "t_uint256"
							},
							{
								"astId": 278,
								"contract": "contracts/lottery.sol:enterLottery",
								"label": "playerAddress",
								"offset": 0,
								"slot": "3",
								"type": "t_address"
							},
							{
								"astId": 280,
								"contract": "contracts/lottery.sol:enterLottery",
								"label": "BalanceCredited",
								"offset": 20,
								"slot": "3",
								"type": "t_bool"
							}
						],
						"numberOfBytes": "128"
					},
					"t_uint256": {
						"encoding": "inplace",
						"label": "uint256",
						"numberOfBytes": "32"
					}
				}
			},
			"userdoc": {
				"kind": "user",
				"methods": {},
				"version": 1
			}
		}
	}
}