{
	"contracts/lottery.sol": {
		"enterLottery": {
			"abi": [
				{
					"inputs": [],
					"stateMutability": "payable",
					"type": "constructor"
				},
				{
					"anonymous": false,
					"inputs": [
						{
							"indexed": false,
							"internalType": "address",
							"name": "winner",
							"type": "address"
						},
						{
							"indexed": false,
							"internalType": "uint256",
							"name": "Amount",
							"type": "uint256"
						}
					],
					"name": "Winner",
					"type": "event"
				},
				{
					"inputs": [
						{
							"internalType": "address",
							"name": "",
							"type": "address"
						}
					],
					"name": "Playermap",
					"outputs": [
						{
							"internalType": "bool",
							"name": "IsInLotteryPool",
							"type": "bool"
						},
						{
							"internalType": "uint256",
							"name": "betingNum",
							"type": "uint256"
						},
						{
							"internalType": "uint256",
							"name": "amount",
							"type": "uint256"
						},
						{
							"internalType": "address",
							"name": "playerAddress",
							"type": "address"
						},
						{
							"internalType": "bool",
							"name": "BalanceCredited",
							"type": "bool"
						}
					],
					"stateMutability": "view",
					"type": "function"
				},
				{
					"inputs": [
						{
							"internalType": "uint256",
							"name": "",
							"type": "uint256"
						},
						{
							"internalType": "uint256",
							"name": "",
							"type": "uint256"
						}
					],
					"name": "completedBets",
					"outputs": [
						{
							"internalType": "bool",
							"name": "IsInLotteryPool",
							"type": "bool"
						},
						{
							"internalType": "uint256",
							"name": "betingNum",
							"type": "uint256"
						},
						{
							"internalType": "uint256",
							"name": "amount",
							"type": "uint256"
						},
						{
							"internalType": "address",
							"name": "playerAddress",
							"type": "address"
						},
						{
							"internalType": "bool",
							"name": "BalanceCredited",
							"type": "bool"
						}
					],
					"stateMutability": "view",
					"type": "function"
				},
				{
					"inputs": [],
					"name": "deposit",
					"outputs": [
						{
							"internalType": "uint256",
							"name": "",
							"type": "uint256"
						}
					],
					"stateMutability": "payable",
					"type": "function"
				},
				{
					"inputs": [
						{
							"internalType": "uint256",
							"name": "_betNum",
							"type": "uint256"
						},
						{
							"internalType": "uint256",
							"name": "_amount",
							"type": "uint256"
						}
					],
					"name": "enterLotery",
					"outputs": [],
					"stateMutability": "nonpayable",
					"type": "function"
				},
				{
					"inputs": [
						{
							"internalType": "address",
							"name": "_playerAddress",
							"type": "address"
						}
					],
					"name": "getBalance",
					"outputs": [
						{
							"internalType": "uint256",
							"name": "balance",
							"type": "uint256"
						}
					],
					"stateMutability": "view",
					"type": "function"
				},
				{
					"inputs": [],
					"name": "getRandomNumber",
					"outputs": [
						{
							"internalType": "bytes32",
							"name": "requestId",
							"type": "bytes32"
						}
					],
					"stateMutability": "nonpayable",
					"type": "function"
				},
				{
					"inputs": [],
					"name": "i_admin",
					"outputs": [
						{
							"internalType": "address payable",
							"name": "",
							"type": "address"
						}
					],
					"stateMutability": "view",
					"type": "function"
				},
				{
					"inputs": [],
					"name": "pickWinner",
					"outputs": [],
					"stateMutability": "nonpayable",
					"type": "function"
				},
				{
					"inputs": [],
					"name": "randomResult",
					"outputs": [
						{
							"internalType": "uint256",
							"name": "",
							"type": "uint256"
						}
					],
					"stateMutability": "view",
					"type": "function"
				},
				{
					"inputs": [
						{
							"internalType": "bytes32",
							"name": "requestId",
							"type": "bytes32"
						},
						{
							"internalType": "uint256",
							"name": "randomness",
							"type": "uint256"
						}
					],
					"name": "rawFulfillRandomness",
					"outputs": [],
					"stateMutability": "nonpayable",
					"type": "function"
				},
				{
					"inputs": [
						{
							"internalType": "uint256",
							"name": "withdrawAmount",
							"type": "uint256"
						}
					],
					"name": "withdraw",
					"outputs": [
						{
							"internalType": "uint256",
							"name": "remainingBal",
							"type": "uint256"
						}
					],
					"stateMutability": "nonpayable",
					"type": "function"
				}
			],
			"devdoc": {
				"kind": "dev",
				"methods": {},
				"version": 1
			},
			"evm": {
				"assembly": "    /* \"contracts/lottery.sol\":213:7517  contract enterLottery is VRFConsumerBase{\r... */\n  0xe0\n  0x40\n  dup2\n  dup2\n  mstore\n    /* \"@chainlink/contracts/src/v0.8/VRFConsumerBase.sol\":9306:9338  vrfCoordinator = _vrfCoordinator */\n  mstore(0xa0, 0xb3dccb4cf7a26f6cf6b120cf5a73875b7bbc655b000000000000000000000000)\n    /* \"@chainlink/contracts/src/v0.8/VRFConsumerBase.sol\":9344:9376  LINK = LinkTokenInterface(_link) */\n  mstore(0x80, 0x01be23585060835e02b77ef475b0cc51aa1e0709000000000000000000000000)\n    /* \"contracts/lottery.sol\":1334:1400  0x2ed0feb3e7fd2022120aa84fab1945545a9f2ffc9076fd6156fa96eaff4c1311 */\n  0x2ed0feb3e7fd2022120aa84fab1945545a9f2ffc9076fd6156fa96eaff4c1311\n    /* \"contracts/lottery.sol\":1324:1331  keyHash */\n  0x06\n    /* \"contracts/lottery.sol\":1324:1400  keyHash = 0x2ed0feb3e7fd2022120aa84fab1945545a9f2ffc9076fd6156fa96eaff4c1311 */\n  sstore\n    /* \"contracts/lottery.sol\":1418:1432  0.1 * 10 ** 18 */\n  0x016345785d8a0000\n    /* \"contracts/lottery.sol\":1412:1415  fee */\n  0x07\n    /* \"contracts/lottery.sol\":1412:1432  fee = 0.1 * 10 ** 18 */\n  sstore\n    /* \"contracts/lottery.sol\":1508:1518  msg.sender */\n  caller\n    /* \"@chainlink/contracts/src/v0.8/VRFConsumerBase.sol\":9306:9338  vrfCoordinator = _vrfCoordinator */\n  0x01000000000000000000000000\n    /* \"contracts/lottery.sol\":1490:1519  i_admin = payable(msg.sender) */\n  dup2\n  mul\n  0xc0\n  mstore\n  0x00\n    /* \"contracts/lottery.sol\":1530:1557  BalanceOfPlayer[msg.sender] */\n  dup2\n  dup2\n  mstore\n    /* \"contracts/lottery.sol\":1530:1545  BalanceOfPlayer */\n  0x03\n  0x20\n    /* \"contracts/lottery.sol\":1530:1557  BalanceOfPlayer[msg.sender] */\n  mstore\n  swap2\n  dup3\n  keccak256\n    /* \"contracts/lottery.sol\":1560:1565  10000 */\n  0x2710\n    /* \"contracts/lottery.sol\":1530:1565  BalanceOfPlayer[msg.sender] = 10000 */\n  swap1\n  sstore\n  swap1\n  swap2\n    /* \"contracts/lottery.sol\":1656:1665  0.01*1e18 */\n  0x2386f26fc10000\n  swap1\n  dup4\n    /* \"contracts/lottery.sol\":213:7517  contract enterLottery is VRFConsumerBase{\r... */\n  dup2\n  dup2\n  dup2\n    /* \"contracts/lottery.sol\":1656:1665  0.01*1e18 */\n  dup6\n    /* \"contracts/lottery.sol\":1508:1518  msg.sender */\n  dup8\n    /* \"contracts/lottery.sol\":1634:1670  msg.sender.call{value:0.01*1e18}(\"\") */\n  gas\n  call\n  swap3\n  pop\n  pop\n  pop\n  returndatasize\n  dup1\n  0x00\n  dup2\n  eq\n  tag_9\n  jumpi\n  mload(0x40)\n  swap2\n  pop\n  and(add(returndatasize, 0x3f), not(0x1f))\n  dup3\n  add\n  0x40\n  mstore\n  returndatasize\n  dup3\n  mstore\n  returndatasize\n  0x00\n  0x20\n  dup5\n  add\n  returndatacopy\n  jump(tag_8)\ntag_9:\n  0x60\n  swap2\n  pop\ntag_8:\n  pop\n    /* \"contracts/lottery.sol\":1617:1670  (bool success,)= msg.sender.call{value:0.01*1e18}(\"\") */\n  pop\n  swap1\n  pop\n    /* \"contracts/lottery.sol\":1689:1696  success */\n  dup1\n    /* \"contracts/lottery.sol\":1681:1714  require(success,\"can't sent eth\") */\n  tag_10\n  jumpi\n  mload(0x40)\n  0x08c379a000000000000000000000000000000000000000000000000000000000\n  dup2\n  mstore\n    /* \"#utility.yul\":426:428   */\n  0x20\n    /* \"contracts/lottery.sol\":1681:1714  require(success,\"can't sent eth\") */\n  0x04\n  dup3\n  add\n    /* \"#utility.yul\":408:429   */\n  mstore\n    /* \"#utility.yul\":465:467   */\n  0x0e\n    /* \"#utility.yul\":445:463   */\n  0x24\n  dup3\n  add\n    /* \"#utility.yul\":438:468   */\n  mstore\n    /* \"#utility.yul\":504:520   */\n  0x63616e27742073656e7420657468000000000000000000000000000000000000\n    /* \"#utility.yul\":484:502   */\n  0x44\n  dup3\n  add\n    /* \"#utility.yul\":477:521   */\n  mstore\n    /* \"#utility.yul\":538:556   */\n  0x64\n  add\n    /* \"contracts/lottery.sol\":1681:1714  require(success,\"can't sent eth\") */\n  mload(0x40)\n  dup1\n  swap2\n  sub\n  swap1\n  revert\ntag_10:\n  pop\n    /* \"contracts/lottery.sol\":1749:1753  this */\n  address\n    /* \"contracts/lottery.sol\":1725:1755  BalanceOfPlayer[address(this)] */\n  0x00\n  swap1\n  dup2\n  mstore\n    /* \"contracts/lottery.sol\":1725:1740  BalanceOfPlayer */\n  0x03\n    /* \"contracts/lottery.sol\":1725:1755  BalanceOfPlayer[address(this)] */\n  0x20\n  mstore\n  0x40\n  swap1\n  keccak256\n    /* \"contracts/lottery.sol\":1758:1762  1000 */\n  0x03e8\n    /* \"contracts/lottery.sol\":1725:1762  BalanceOfPlayer[address(this)] = 1000 */\n  swap1\n  sstore\n    /* \"contracts/lottery.sol\":213:7517  contract enterLottery is VRFConsumerBase{\r... */\n  mload(0x80)\n  0x01000000000000000000000000\n  swap1\n  div\n  mload(0xa0)\n  0x01000000000000000000000000\n  swap1\n  div\n  mload(0xc0)\n  0x01000000000000000000000000\n  swap1\n  div\n  codecopy(0x00, dataOffset(sub_0), dataSize(sub_0))\n  0x00\n  assignImmutable(\"0x857e85748da10ccbe81de0660ded5eadee8cb2ec5755eca1592043b0a2bb582b\")\n  0x00\n  assignImmutable(\"0x6dbb33232cde86c8a04f90a8bed9fc1c5ef520188a14538d96eb100d69bc2a94\")\n  0x00\n  assignImmutable(\"0xb2219b801710730437d0358146c829b62297a059eceaa0b40b27aea2daecf595\")\n  return(0x00, dataSize(sub_0))\nstop\n\nsub_0: assembly {\n        /* \"contracts/lottery.sol\":213:7517  contract enterLottery is VRFConsumerBase{\r... */\n      mstore(0x40, 0x80)\n      jumpi(tag_1, lt(calldatasize, 0x04))\n      calldataload(0x00)\n      0x0100000000000000000000000000000000000000000000000000000000\n      swap1\n      div\n      dup1\n      0x87e19a2c\n      gt\n      tag_13\n      jumpi\n      dup1\n      0x87e19a2c\n      eq\n      tag_7\n      jumpi\n      dup1\n      0x94985ddd\n      eq\n      tag_8\n      jumpi\n      dup1\n      0xaaffe698\n      eq\n      tag_9\n      jumpi\n      dup1\n      0xd0e30db0\n      eq\n      tag_10\n      jumpi\n      dup1\n      0xdbdff2c1\n      eq\n      tag_11\n      jumpi\n      dup1\n      0xf8b2cb4f\n      eq\n      tag_12\n      jumpi\n      0x00\n      dup1\n      revert\n    tag_13:\n      dup1\n      0x2e1a7d4d\n      eq\n      tag_2\n      jumpi\n      dup1\n      0x2f33b820\n      eq\n      tag_3\n      jumpi\n      dup1\n      0x42619f66\n      eq\n      tag_4\n      jumpi\n      dup1\n      0x4c43d284\n      eq\n      tag_5\n      jumpi\n      dup1\n      0x5d495aea\n      eq\n      tag_6\n      jumpi\n    tag_1:\n      0x00\n      dup1\n      revert\n        /* \"contracts/lottery.sol\":6603:7065  function withdraw(uint withdrawAmount) public returns (uint remainingBal) {\r... */\n    tag_2:\n      callvalue\n      dup1\n      iszero\n      tag_14\n      jumpi\n      0x00\n      dup1\n      revert\n    tag_14:\n      pop\n      tag_15\n      tag_16\n      calldatasize\n      0x04\n      tag_17\n      jump\t// in\n    tag_16:\n      tag_18\n      jump\t// in\n    tag_15:\n      mload(0x40)\n        /* \"#utility.yul\":3907:3932   */\n      swap1\n      dup2\n      mstore\n        /* \"#utility.yul\":3895:3897   */\n      0x20\n        /* \"#utility.yul\":3880:3898   */\n      add\n        /* \"contracts/lottery.sol\":6603:7065  function withdraw(uint withdrawAmount) public returns (uint remainingBal) {\r... */\n    tag_19:\n      mload(0x40)\n      dup1\n      swap2\n      sub\n      swap1\n      return\n        /* \"contracts/lottery.sol\":752:801  mapping(uint256 => player[]) public completedBets */\n    tag_3:\n      callvalue\n      dup1\n      iszero\n      tag_21\n      jumpi\n      0x00\n      dup1\n      revert\n    tag_21:\n      pop\n      tag_22\n      tag_23\n      calldatasize\n      0x04\n      tag_47\n      jump\t// in\n    tag_23:\n      tag_25\n      jump\t// in\n    tag_22:\n      0x40\n      dup1\n      mload\n        /* \"#utility.yul\":3496:3510   */\n      swap6\n      iszero\n        /* \"#utility.yul\":3489:3511   */\n      iszero\n        /* \"#utility.yul\":3471:3512   */\n      dup7\n      mstore\n        /* \"#utility.yul\":3543:3545   */\n      0x20\n        /* \"#utility.yul\":3528:3546   */\n      dup7\n      add\n        /* \"#utility.yul\":3521:3555   */\n      swap5\n      swap1\n      swap5\n      mstore\n        /* \"#utility.yul\":3571:3589   */\n      swap3\n      dup5\n      add\n        /* \"#utility.yul\":3564:3598   */\n      swap2\n      swap1\n      swap2\n      mstore\n      sub(exp(0x02, 0xa0), 0x01)\n        /* \"#utility.yul\":3634:3689   */\n      and\n        /* \"#utility.yul\":3629:3631   */\n      0x60\n        /* \"#utility.yul\":3614:3632   */\n      dup4\n      add\n        /* \"#utility.yul\":3607:3690   */\n      mstore\n        /* \"#utility.yul\":3734:3748   */\n      iszero\n        /* \"#utility.yul\":3727:3749   */\n      iszero\n        /* \"#utility.yul\":3721:3724   */\n      0x80\n        /* \"#utility.yul\":3706:3725   */\n      dup3\n      add\n        /* \"#utility.yul\":3699:3750   */\n      mstore\n        /* \"#utility.yul\":3458:3461   */\n      0xa0\n        /* \"#utility.yul\":3443:3462   */\n      add\n        /* \"contracts/lottery.sol\":752:801  mapping(uint256 => player[]) public completedBets */\n      tag_19\n        /* \"#utility.yul\":3224:3756   */\n      jump\n        /* \"contracts/lottery.sol\":1060:1084  uint public randomResult */\n    tag_4:\n      callvalue\n      dup1\n      iszero\n      tag_28\n      jumpi\n      0x00\n      dup1\n      revert\n    tag_28:\n      pop\n      tag_15\n      sload(0x08)\n      dup2\n      jump\n        /* \"contracts/lottery.sol\":498:538  address payable public immutable i_admin */\n    tag_5:\n      callvalue\n      dup1\n      iszero\n      tag_32\n      jumpi\n      0x00\n      dup1\n      revert\n    tag_32:\n      pop\n      tag_33\n      immutable(\"0x857e85748da10ccbe81de0660ded5eadee8cb2ec5755eca1592043b0a2bb582b\")\n      dup2\n      jump\n    tag_33:\n      mload(0x40)\n      sub(exp(0x02, 0xa0), 0x01)\n        /* \"#utility.yul\":2116:2171   */\n      swap1\n      swap2\n      and\n        /* \"#utility.yul\":2098:2172   */\n      dup2\n      mstore\n        /* \"#utility.yul\":2086:2088   */\n      0x20\n        /* \"#utility.yul\":2071:2089   */\n      add\n        /* \"contracts/lottery.sol\":498:538  address payable public immutable i_admin */\n      tag_19\n        /* \"#utility.yul\":1952:2178   */\n      jump\n        /* \"contracts/lottery.sol\":5270:5344  function pickWinner() public adminOnly{\r... */\n    tag_6:\n      callvalue\n      dup1\n      iszero\n      tag_37\n      jumpi\n      0x00\n      dup1\n      revert\n    tag_37:\n      pop\n      tag_38\n      tag_39\n      jump\t// in\n    tag_38:\n      stop\n        /* \"contracts/lottery.sol\":4044:5107  function enterLotery(uint256 _betNum,uint256 _amount)public {\r... */\n    tag_7:\n      callvalue\n      dup1\n      iszero\n      tag_40\n      jumpi\n      0x00\n      dup1\n      revert\n    tag_40:\n      pop\n      tag_38\n      tag_42\n      calldatasize\n      0x04\n      tag_47\n      jump\t// in\n    tag_42:\n      tag_43\n      jump\t// in\n        /* \"@chainlink/contracts/src/v0.8/VRFConsumerBase.sol\":9576:9783  function rawFulfillRandomness(bytes32 requestId, uint256 randomness) external {... */\n    tag_8:\n      callvalue\n      dup1\n      iszero\n      tag_44\n      jumpi\n      0x00\n      dup1\n      revert\n    tag_44:\n      pop\n      tag_38\n      tag_46\n      calldatasize\n      0x04\n      tag_47\n      jump\t// in\n    tag_46:\n      tag_48\n      jump\t// in\n        /* \"contracts/lottery.sol\":609:653  mapping (address => player) public Playermap */\n    tag_9:\n      callvalue\n      dup1\n      iszero\n      tag_49\n      jumpi\n      0x00\n      dup1\n      revert\n    tag_49:\n      pop\n      tag_22\n      tag_51\n      calldatasize\n      0x04\n      tag_52\n      jump\t// in\n    tag_51:\n      0x02\n      0x20\n      dup2\n      swap1\n      mstore\n      0x00\n      swap2\n      dup3\n      mstore\n      0x40\n      swap1\n      swap2\n      keccak256\n      dup1\n      sload\n      0x01\n      dup3\n      add\n      sload\n      swap3\n      dup3\n      add\n      sload\n      0x03\n      swap1\n      swap3\n      add\n      sload\n      0xff\n      swap2\n      dup3\n      and\n      swap4\n      swap3\n      swap2\n      sub(exp(0x02, 0xa0), 0x01)\n      dup3\n      and\n      swap2\n      exp(0x02, 0xa0)\n      swap1\n      div\n      and\n      dup6\n      jump\n        /* \"contracts/lottery.sol\":7204:7407  function deposit() public payable returns (uint256){\r... */\n    tag_10:\n      tag_15\n      tag_56\n      jump\t// in\n        /* \"contracts/lottery.sol\":3024:3230  function getRandomNumber() public returns (bytes32 requestId) {\r... */\n    tag_11:\n      callvalue\n      dup1\n      iszero\n      tag_58\n      jumpi\n      0x00\n      dup1\n      revert\n    tag_58:\n      pop\n      tag_15\n      tag_60\n      jump\t// in\n        /* \"contracts/lottery.sol\":3400:3593  function getBalance(address _playerAddress) public view returns(uint256 balance){\r... */\n    tag_12:\n      callvalue\n      dup1\n      iszero\n      tag_63\n      jumpi\n      0x00\n      dup1\n      revert\n    tag_63:\n      pop\n      tag_15\n      tag_65\n      calldatasize\n      0x04\n      tag_52\n      jump\t// in\n    tag_65:\n      tag_66\n      jump\t// in\n        /* \"contracts/lottery.sol\":6603:7065  function withdraw(uint withdrawAmount) public returns (uint remainingBal) {\r... */\n    tag_18:\n        /* \"contracts/lottery.sol\":6800:6810  msg.sender */\n      caller\n        /* \"contracts/lottery.sol\":6658:6675  uint remainingBal */\n      0x00\n        /* \"contracts/lottery.sol\":6784:6811  BalanceOfPlayer[msg.sender] */\n      swap1\n      dup2\n      mstore\n        /* \"contracts/lottery.sol\":6784:6799  BalanceOfPlayer */\n      0x03\n        /* \"contracts/lottery.sol\":6784:6811  BalanceOfPlayer[msg.sender] */\n      0x20\n      mstore\n      0x40\n      dup2\n      keccak256\n      sload\n        /* \"contracts/lottery.sol\":6766:6811  withdrawAmount <= BalanceOfPlayer[msg.sender] */\n      dup3\n      gt\n        /* \"contracts/lottery.sol\":6762:7013  if (withdrawAmount <= BalanceOfPlayer[msg.sender]) {\r... */\n      tag_69\n      jumpi\n        /* \"contracts/lottery.sol\":6829:6841  bool success */\n      0x00\n        /* \"contracts/lottery.sol\":6845:6855  msg.sender */\n      caller\n        /* \"contracts/lottery.sol\":6867:6886  withdrawAmount*1e15 */\n      tag_70\n        /* \"contracts/lottery.sol\":6867:6881  withdrawAmount */\n      dup5\n        /* \"contracts/lottery.sol\":6882:6886  1e15 */\n      0x038d7ea4c68000\n        /* \"contracts/lottery.sol\":6867:6886  withdrawAmount*1e15 */\n      tag_71\n      jump\t// in\n    tag_70:\n        /* \"contracts/lottery.sol\":6845:6891  msg.sender.call{value:withdrawAmount*1e15}(\"\") */\n      mload(0x40)\n      0x00\n      dup2\n      dup2\n      dup2\n      dup6\n      dup8\n      gas\n      call\n      swap3\n      pop\n      pop\n      pop\n      returndatasize\n      dup1\n      0x00\n      dup2\n      eq\n      tag_76\n      jumpi\n      mload(0x40)\n      swap2\n      pop\n      and(add(returndatasize, 0x3f), not(0x1f))\n      dup3\n      add\n      0x40\n      mstore\n      returndatasize\n      dup3\n      mstore\n      returndatasize\n      0x00\n      0x20\n      dup5\n      add\n      returndatacopy\n      jump(tag_75)\n    tag_76:\n      0x60\n      swap2\n      pop\n    tag_75:\n      pop\n        /* \"contracts/lottery.sol\":6828:6891  (bool success,)= msg.sender.call{value:withdrawAmount*1e15}(\"\") */\n      pop\n      swap1\n      pop\n        /* \"contracts/lottery.sol\":6914:6921  success */\n      dup1\n        /* \"contracts/lottery.sol\":6906:6941  require(success,\" can't withdraw \") */\n      tag_77\n      jumpi\n      mload(0x40)\n      mul(0x461bcd, exp(0x02, 0xe5))\n      dup2\n      mstore\n        /* \"#utility.yul\":5204:5206   */\n      0x20\n        /* \"contracts/lottery.sol\":6906:6941  require(success,\" can't withdraw \") */\n      0x04\n      dup3\n      add\n        /* \"#utility.yul\":5186:5207   */\n      mstore\n        /* \"#utility.yul\":5243:5245   */\n      0x10\n        /* \"#utility.yul\":5223:5241   */\n      0x24\n      dup3\n      add\n        /* \"#utility.yul\":5216:5246   */\n      mstore\n        /* \"#utility.yul\":5282:5300   */\n      0x2063616e27742077697468647261772000000000000000000000000000000000\n        /* \"#utility.yul\":5262:5280   */\n      0x44\n      dup3\n      add\n        /* \"#utility.yul\":5255:5301   */\n      mstore\n        /* \"#utility.yul\":5318:5336   */\n      0x64\n      add\n        /* \"contracts/lottery.sol\":6906:6941  require(success,\" can't withdraw \") */\n    tag_78:\n      mload(0x40)\n      dup1\n      swap2\n      sub\n      swap1\n      revert\n    tag_77:\n        /* \"contracts/lottery.sol\":6972:6982  msg.sender */\n      caller\n        /* \"contracts/lottery.sol\":6956:6983  BalanceOfPlayer[msg.sender] */\n      0x00\n      swap1\n      dup2\n      mstore\n        /* \"contracts/lottery.sol\":6956:6971  BalanceOfPlayer */\n      0x03\n        /* \"contracts/lottery.sol\":6956:6983  BalanceOfPlayer[msg.sender] */\n      0x20\n      mstore\n      0x40\n      dup2\n      keccak256\n        /* \"contracts/lottery.sol\":6956:7001  BalanceOfPlayer[msg.sender] -= withdrawAmount */\n      dup1\n      sload\n        /* \"contracts/lottery.sol\":6987:7001  withdrawAmount */\n      dup6\n      swap3\n        /* \"contracts/lottery.sol\":6956:6983  BalanceOfPlayer[msg.sender] */\n      swap1\n        /* \"contracts/lottery.sol\":6956:7001  BalanceOfPlayer[msg.sender] -= withdrawAmount */\n      tag_80\n      swap1\n        /* \"contracts/lottery.sol\":6987:7001  withdrawAmount */\n      dup5\n      swap1\n        /* \"contracts/lottery.sol\":6956:7001  BalanceOfPlayer[msg.sender] -= withdrawAmount */\n      tag_81\n      jump\t// in\n    tag_80:\n      swap1\n      swap2\n      sstore\n      pop\n      pop\n      pop\n        /* \"contracts/lottery.sol\":6762:7013  if (withdrawAmount <= BalanceOfPlayer[msg.sender]) {\r... */\n    tag_69:\n      pop\n      pop\n        /* \"contracts/lottery.sol\":7046:7056  msg.sender */\n      caller\n        /* \"contracts/lottery.sol\":7030:7057  BalanceOfPlayer[msg.sender] */\n      0x00\n      swap1\n      dup2\n      mstore\n        /* \"contracts/lottery.sol\":7030:7045  BalanceOfPlayer */\n      0x03\n        /* \"contracts/lottery.sol\":7030:7057  BalanceOfPlayer[msg.sender] */\n      0x20\n      mstore\n      0x40\n      swap1\n      keccak256\n      sload\n      swap1\n        /* \"contracts/lottery.sol\":6603:7065  function withdraw(uint withdrawAmount) public returns (uint remainingBal) {\r... */\n      jump\t// out\n        /* \"contracts/lottery.sol\":752:801  mapping(uint256 => player[]) public completedBets */\n    tag_25:\n      mstore(0x20, 0x04)\n      dup2\n      0x00\n      mstore\n      keccak256(0x00, 0x40)\n      dup2\n      dup2\n      sload\n      dup2\n      lt\n      tag_82\n      jumpi\n      0x00\n      dup1\n      revert\n    tag_82:\n      0x00\n      swap2\n      dup3\n      mstore\n      0x20\n      swap1\n      swap2\n      keccak256\n      0x04\n      swap1\n      swap2\n      mul\n      add\n      dup1\n      sload\n      0x01\n      dup3\n      add\n      sload\n      0x02\n      dup4\n      add\n      sload\n      0x03\n      swap1\n      swap4\n      add\n      sload\n      0xff\n      swap3\n      dup4\n      and\n      swap6\n      pop\n      swap1\n      swap4\n      pop\n      sub(exp(0x02, 0xa0), 0x01)\n      dup2\n      and\n      swap2\n      exp(0x02, 0xa0)\n      swap1\n      swap2\n      div\n      and\n      dup6\n      jump\t// out\n        /* \"contracts/lottery.sol\":5270:5344  function pickWinner() public adminOnly{\r... */\n    tag_39:\n        /* \"contracts/lottery.sol\":7456:7466  msg.sender */\n      caller\n      sub(exp(0x02, 0xa0), 0x01)\n        /* \"contracts/lottery.sol\":7470:7477  i_admin */\n      immutable(\"0x857e85748da10ccbe81de0660ded5eadee8cb2ec5755eca1592043b0a2bb582b\")\n        /* \"contracts/lottery.sol\":7456:7477  msg.sender == i_admin */\n      and\n      eq\n        /* \"contracts/lottery.sol\":7448:7491  require(msg.sender == i_admin, \"Not admin\") */\n      tag_85\n      jumpi\n      mload(0x40)\n      mul(0x461bcd, exp(0x02, 0xe5))\n      dup2\n      mstore\n        /* \"#utility.yul\":7305:7307   */\n      0x20\n        /* \"contracts/lottery.sol\":7448:7491  require(msg.sender == i_admin, \"Not admin\") */\n      0x04\n      dup3\n      add\n        /* \"#utility.yul\":7287:7308   */\n      mstore\n        /* \"#utility.yul\":7344:7345   */\n      0x09\n        /* \"#utility.yul\":7324:7342   */\n      0x24\n      dup3\n      add\n        /* \"#utility.yul\":7317:7346   */\n      mstore\n        /* \"#utility.yul\":7382:7393   */\n      0x4e6f742061646d696e0000000000000000000000000000000000000000000000\n        /* \"#utility.yul\":7362:7380   */\n      0x44\n      dup3\n      add\n        /* \"#utility.yul\":7355:7394   */\n      mstore\n        /* \"#utility.yul\":7411:7429   */\n      0x64\n      add\n        /* \"contracts/lottery.sol\":7448:7491  require(msg.sender == i_admin, \"Not admin\") */\n      tag_78\n        /* \"#utility.yul\":7103:7435   */\n      jump\n        /* \"contracts/lottery.sol\":7448:7491  require(msg.sender == i_admin, \"Not admin\") */\n    tag_85:\n        /* \"contracts/lottery.sol\":5319:5336  getRandomNumber() */\n      tag_89\n        /* \"contracts/lottery.sol\":5319:5334  getRandomNumber */\n      tag_60\n        /* \"contracts/lottery.sol\":5319:5336  getRandomNumber() */\n      jump\t// in\n    tag_89:\n      pop\n        /* \"contracts/lottery.sol\":5270:5344  function pickWinner() public adminOnly{\r... */\n      jump\t// out\n        /* \"contracts/lottery.sol\":4044:5107  function enterLotery(uint256 _betNum,uint256 _amount)public {\r... */\n    tag_43:\n        /* \"contracts/lottery.sol\":4199:4209  msg.sender */\n      caller\n        /* \"contracts/lottery.sol\":4189:4210  Playermap[msg.sender] */\n      0x00\n      swap1\n      dup2\n      mstore\n        /* \"contracts/lottery.sol\":4189:4198  Playermap */\n      0x02\n        /* \"contracts/lottery.sol\":4189:4210  Playermap[msg.sender] */\n      0x20\n      mstore\n      0x40\n      swap1\n      keccak256\n        /* \"contracts/lottery.sol\":4189:4226  Playermap[msg.sender].IsInLotteryPool */\n      sload\n      0xff\n      and\n        /* \"contracts/lottery.sol\":4188:4226  !Playermap[msg.sender].IsInLotteryPool */\n      iszero\n        /* \"contracts/lottery.sol\":4166:4286  require(\r... */\n      tag_91\n      jumpi\n      mload(0x40)\n      mul(0x461bcd, exp(0x02, 0xe5))\n      dup2\n      mstore\n        /* \"#utility.yul\":4843:4845   */\n      0x20\n        /* \"contracts/lottery.sol\":4166:4286  require(\r... */\n      0x04\n      dup3\n      add\n        /* \"#utility.yul\":4825:4846   */\n      dup2\n      swap1\n      mstore\n        /* \"#utility.yul\":4862:4880   */\n      0x24\n      dup3\n      add\n        /* \"#utility.yul\":4855:4885   */\n      mstore\n        /* \"#utility.yul\":4921:4955   */\n      0x54686520706c6179657220616c726561647920697320696e206c6f7474657279\n        /* \"#utility.yul\":4901:4919   */\n      0x44\n      dup3\n      add\n        /* \"#utility.yul\":4894:4956   */\n      mstore\n        /* \"#utility.yul\":4973:4991   */\n      0x64\n      add\n        /* \"contracts/lottery.sol\":4166:4286  require(\r... */\n      tag_78\n        /* \"#utility.yul\":4641:4997   */\n      jump\n        /* \"contracts/lottery.sol\":4166:4286  require(\r... */\n    tag_91:\n        /* \"contracts/lottery.sol\":4372:4398  player memory playerPusher */\n      0x00\n        /* \"contracts/lottery.sol\":4399:4642  player(\r... */\n      mload(0x40)\n      dup1\n      0xa0\n      add\n      0x40\n      mstore\n      dup1\n        /* \"contracts/lottery.sol\":4455:4459  true */\n      0x01\n        /* \"contracts/lottery.sol\":4399:4642  player(\r... */\n      iszero\n      iszero\n      dup2\n      mstore\n      0x20\n      add\n        /* \"contracts/lottery.sol\":4488:4495  _betNum */\n      dup5\n        /* \"contracts/lottery.sol\":4399:4642  player(\r... */\n      dup2\n      mstore\n      0x20\n      add\n        /* \"contracts/lottery.sol\":4521:4528  _amount */\n      dup4\n        /* \"contracts/lottery.sol\":4399:4642  player(\r... */\n      dup2\n      mstore\n      0x20\n      add\n        /* \"contracts/lottery.sol\":4561:4571  msg.sender */\n      caller\n      sub(exp(0x02, 0xa0), 0x01)\n        /* \"contracts/lottery.sol\":4399:4642  player(\r... */\n      and\n      dup2\n      mstore\n      0x20\n      add\n        /* \"contracts/lottery.sol\":4606:4626  IsBalancecreditted() */\n      tag_94\n        /* \"contracts/lottery.sol\":4606:4624  IsBalancecreditted */\n      tag_95\n        /* \"contracts/lottery.sol\":4606:4626  IsBalancecreditted() */\n      jump\t// in\n    tag_94:\n        /* \"contracts/lottery.sol\":4399:4642  player(\r... */\n      iszero\n      iszero\n      swap1\n      mstore\n        /* \"contracts/lottery.sol\":4372:4642  player memory playerPusher=player(\r... */\n      swap1\n      pop\n        /* \"contracts/lottery.sol\":4705:4715  _betNum==0 */\n      dup3\n      iszero\n      dup1\n        /* \"contracts/lottery.sol\":4705:4729  _betNum==0 || _betNum==1 */\n      tag_96\n      jumpi\n      pop\n        /* \"contracts/lottery.sol\":4719:4726  _betNum */\n      dup3\n        /* \"contracts/lottery.sol\":4728:4729  1 */\n      0x01\n        /* \"contracts/lottery.sol\":4719:4729  _betNum==1 */\n      eq\n        /* \"contracts/lottery.sol\":4705:4729  _betNum==0 || _betNum==1 */\n    tag_96:\n        /* \"contracts/lottery.sol\":4697:4754  require(_betNum==0 || _betNum==1 , \"enter valid betting\") */\n      tag_97\n      jumpi\n      mload(0x40)\n      mul(0x461bcd, exp(0x02, 0xe5))\n      dup2\n      mstore\n        /* \"#utility.yul\":6265:6267   */\n      0x20\n        /* \"contracts/lottery.sol\":4697:4754  require(_betNum==0 || _betNum==1 , \"enter valid betting\") */\n      0x04\n      dup3\n      add\n        /* \"#utility.yul\":6247:6268   */\n      mstore\n        /* \"#utility.yul\":6304:6306   */\n      0x13\n        /* \"#utility.yul\":6284:6302   */\n      0x24\n      dup3\n      add\n        /* \"#utility.yul\":6277:6307   */\n      mstore\n        /* \"#utility.yul\":6343:6364   */\n      0x656e7465722076616c69642062657474696e6700000000000000000000000000\n        /* \"#utility.yul\":6323:6341   */\n      0x44\n      dup3\n      add\n        /* \"#utility.yul\":6316:6365   */\n      mstore\n        /* \"#utility.yul\":6382:6400   */\n      0x64\n      add\n        /* \"contracts/lottery.sol\":4697:4754  require(_betNum==0 || _betNum==1 , \"enter valid betting\") */\n      tag_78\n        /* \"#utility.yul\":6063:6406   */\n      jump\n        /* \"contracts/lottery.sol\":4697:4754  require(_betNum==0 || _betNum==1 , \"enter valid betting\") */\n    tag_97:\n        /* \"contracts/lottery.sol\":4783:4784  0 */\n      0x00\n        /* \"contracts/lottery.sol\":4773:4780  _amount */\n      dup3\n        /* \"contracts/lottery.sol\":4773:4784  _amount > 0 */\n      gt\n        /* \"contracts/lottery.sol\":4773:4826  _amount > 0 && _amount <= BalanceOfPlayer[msg.sender] */\n      dup1\n      iszero\n      tag_100\n      jumpi\n      pop\n        /* \"contracts/lottery.sol\":4815:4825  msg.sender */\n      caller\n        /* \"contracts/lottery.sol\":4799:4826  BalanceOfPlayer[msg.sender] */\n      0x00\n      swap1\n      dup2\n      mstore\n        /* \"contracts/lottery.sol\":4799:4814  BalanceOfPlayer */\n      0x03\n        /* \"contracts/lottery.sol\":4799:4826  BalanceOfPlayer[msg.sender] */\n      0x20\n      mstore\n      0x40\n      swap1\n      keccak256\n      sload\n        /* \"contracts/lottery.sol\":4788:4826  _amount <= BalanceOfPlayer[msg.sender] */\n      dup3\n      gt\n      iszero\n        /* \"contracts/lottery.sol\":4773:4826  _amount > 0 && _amount <= BalanceOfPlayer[msg.sender] */\n    tag_100:\n        /* \"contracts/lottery.sol\":4765:4850  require(_amount > 0 && _amount <= BalanceOfPlayer[msg.sender],\"check the bet amount\") */\n      tag_101\n      jumpi\n      mload(0x40)\n      mul(0x461bcd, exp(0x02, 0xe5))\n      dup2\n      mstore\n        /* \"#utility.yul\":6613:6615   */\n      0x20\n        /* \"contracts/lottery.sol\":4765:4850  require(_amount > 0 && _amount <= BalanceOfPlayer[msg.sender],\"check the bet amount\") */\n      0x04\n      dup3\n      add\n        /* \"#utility.yul\":6595:6616   */\n      mstore\n        /* \"#utility.yul\":6652:6654   */\n      0x14\n        /* \"#utility.yul\":6632:6650   */\n      0x24\n      dup3\n      add\n        /* \"#utility.yul\":6625:6655   */\n      mstore\n        /* \"#utility.yul\":6691:6713   */\n      0x636865636b207468652062657420616d6f756e74000000000000000000000000\n        /* \"#utility.yul\":6671:6689   */\n      0x44\n      dup3\n      add\n        /* \"#utility.yul\":6664:6714   */\n      mstore\n        /* \"#utility.yul\":6731:6749   */\n      0x64\n      add\n        /* \"contracts/lottery.sol\":4765:4850  require(_amount > 0 && _amount <= BalanceOfPlayer[msg.sender],\"check the bet amount\") */\n      tag_78\n        /* \"#utility.yul\":6411:6755   */\n      jump\n        /* \"contracts/lottery.sol\":4765:4850  require(_amount > 0 && _amount <= BalanceOfPlayer[msg.sender],\"check the bet amount\") */\n    tag_101:\n        /* \"contracts/lottery.sol\":4861:4868  Players */\n      0x01\n        /* \"contracts/lottery.sol\":4861:4887  Players.push(playerPusher) */\n      dup1\n      sload\n      dup1\n      dup3\n      add\n      dup3\n      sstore\n      0x00\n      dup3\n      dup2\n      mstore\n      dup4\n      mload\n      0x04\n      swap1\n      swap3\n      mul\n      0xb10e2d527612073b26eecdfd717e6a320cf44b4afac2b0732d9fcbe2b7fa0cf6\n      dup2\n      add\n      dup1\n      sload\n      swap4\n      iszero\n      iszero\n      not(0xff)\n      swap5\n      dup6\n      and\n      or\n      swap1\n      sstore\n      0x20\n      dup1\n      dup7\n      add\n      dup1\n      mload\n      0xb10e2d527612073b26eecdfd717e6a320cf44b4afac2b0732d9fcbe2b7fa0cf7\n      dup5\n      add\n      sstore\n      0x40\n      dup1\n      dup9\n      add\n      dup1\n      mload\n      0xb10e2d527612073b26eecdfd717e6a320cf44b4afac2b0732d9fcbe2b7fa0cf8\n      dup7\n      add\n      sstore\n      0x60\n      dup10\n      add\n      dup1\n      mload\n      0xb10e2d527612073b26eecdfd717e6a320cf44b4afac2b0732d9fcbe2b7fa0cf9\n      swap1\n      swap7\n      add\n      dup1\n      sload\n      0x80\n      dup13\n      add\n      dup1\n      mload\n      iszero\n      iszero\n      exp(0x02, 0xa0)\n      swap1\n      dup2\n      mul\n      not(0xffffffffffffffffffffffffffffffffffffffffff)\n      swap4\n      dup5\n      and\n      sub(exp(0x02, 0xa0), 0x01)\n      swap12\n      dup13\n      and\n      or\n      or\n      swap1\n      swap4\n      sstore\n        /* \"contracts/lottery.sol\":4908:4918  msg.sender */\n      caller\n        /* \"contracts/lottery.sol\":4898:4919  Playermap[msg.sender] */\n      dup11\n      mstore\n        /* \"contracts/lottery.sol\":4861:4887  Players.push(playerPusher) */\n      0x02\n        /* \"contracts/lottery.sol\":4898:4919  Playermap[msg.sender] */\n      dup1\n      dup10\n      mstore\n      dup7\n      dup12\n      keccak256\n        /* \"contracts/lottery.sol\":4898:4932  Playermap[msg.sender]=playerPusher */\n      dup15\n      mload\n      dup2\n      sload\n      swap1\n      iszero\n      iszero\n      swap14\n      and\n      swap13\n      swap1\n      swap13\n      or\n      dup13\n      sstore\n      swap7\n      mload\n      swap12\n      dup12\n      add\n      swap12\n      swap1\n      swap12\n      sstore\n      swap3\n      mload\n      swap5\n      dup10\n      add\n      swap5\n      swap1\n      swap5\n      sstore\n      mload\n        /* \"contracts/lottery.sol\":4861:4887  Players.push(playerPusher) */\n      0x03\n        /* \"contracts/lottery.sol\":4898:4932  Playermap[msg.sender]=playerPusher */\n      swap8\n      dup9\n      add\n      dup1\n      sload\n      swap10\n      mload\n      iszero\n      iszero\n      swap1\n      swap5\n      mul\n      swap9\n      swap1\n      swap2\n      and\n      swap5\n      and\n      swap4\n      swap1\n      swap4\n      or\n      swap6\n      swap1\n      swap6\n      or\n      swap1\n      swap5\n      sstore\n        /* \"contracts/lottery.sol\":5017:5044  BalanceOfPlayer[msg.sender] */\n      swap2\n      swap1\n      swap3\n      mstore\n      dup2\n      keccak256\n        /* \"contracts/lottery.sol\":5017:5055  BalanceOfPlayer[msg.sender] -= _amount */\n      dup1\n      sload\n        /* \"contracts/lottery.sol\":5048:5055  _amount */\n      dup5\n      swap3\n      swap1\n        /* \"contracts/lottery.sol\":5017:5055  BalanceOfPlayer[msg.sender] -= _amount */\n      tag_105\n      swap1\n        /* \"contracts/lottery.sol\":5048:5055  _amount */\n      dup5\n      swap1\n        /* \"contracts/lottery.sol\":5017:5055  BalanceOfPlayer[msg.sender] -= _amount */\n      tag_81\n      jump\t// in\n    tag_105:\n      swap1\n      swap2\n      sstore\n      pop\n      pop\n      sub(exp(0x02, 0xa0), 0x01)\n        /* \"contracts/lottery.sol\":5082:5089  i_admin */\n      immutable(\"0x857e85748da10ccbe81de0660ded5eadee8cb2ec5755eca1592043b0a2bb582b\")\n        /* \"contracts/lottery.sol\":5066:5090  BalanceOfPlayer[i_admin] */\n      and\n      0x00\n      swap1\n      dup2\n      mstore\n        /* \"contracts/lottery.sol\":5066:5081  BalanceOfPlayer */\n      0x03\n        /* \"contracts/lottery.sol\":5066:5090  BalanceOfPlayer[i_admin] */\n      0x20\n      mstore\n      0x40\n      dup2\n      keccak256\n        /* \"contracts/lottery.sol\":5066:5099  BalanceOfPlayer[i_admin]+=_amount */\n      dup1\n      sload\n        /* \"contracts/lottery.sol\":5092:5099  _amount */\n      dup5\n      swap3\n        /* \"contracts/lottery.sol\":5066:5090  BalanceOfPlayer[i_admin] */\n      swap1\n        /* \"contracts/lottery.sol\":5066:5099  BalanceOfPlayer[i_admin]+=_amount */\n      tag_106\n      swap1\n        /* \"contracts/lottery.sol\":5092:5099  _amount */\n      dup5\n      swap1\n        /* \"contracts/lottery.sol\":5066:5099  BalanceOfPlayer[i_admin]+=_amount */\n      tag_107\n      jump\t// in\n    tag_106:\n      swap1\n      swap2\n      sstore\n      pop\n      pop\n      pop\n      pop\n      pop\n        /* \"contracts/lottery.sol\":4044:5107  function enterLotery(uint256 _betNum,uint256 _amount)public {\r... */\n      jump\t// out\n        /* \"@chainlink/contracts/src/v0.8/VRFConsumerBase.sol\":9576:9783  function rawFulfillRandomness(bytes32 requestId, uint256 randomness) external {... */\n    tag_48:\n        /* \"@chainlink/contracts/src/v0.8/VRFConsumerBase.sol\":9668:9678  msg.sender */\n      caller\n      sub(exp(0x02, 0xa0), 0x01)\n        /* \"@chainlink/contracts/src/v0.8/VRFConsumerBase.sol\":9682:9696  vrfCoordinator */\n      immutable(\"0x6dbb33232cde86c8a04f90a8bed9fc1c5ef520188a14538d96eb100d69bc2a94\")\n        /* \"@chainlink/contracts/src/v0.8/VRFConsumerBase.sol\":9668:9696  msg.sender == vrfCoordinator */\n      and\n      eq\n        /* \"@chainlink/contracts/src/v0.8/VRFConsumerBase.sol\":9660:9732  require(msg.sender == vrfCoordinator, \"Only VRFCoordinator can fulfill\") */\n      tag_109\n      jumpi\n      mload(0x40)\n      mul(0x461bcd, exp(0x02, 0xe5))\n      dup2\n      mstore\n        /* \"#utility.yul\":5905:5907   */\n      0x20\n        /* \"@chainlink/contracts/src/v0.8/VRFConsumerBase.sol\":9660:9732  require(msg.sender == vrfCoordinator, \"Only VRFCoordinator can fulfill\") */\n      0x04\n      dup3\n      add\n        /* \"#utility.yul\":5887:5908   */\n      mstore\n        /* \"#utility.yul\":5944:5946   */\n      0x1f\n        /* \"#utility.yul\":5924:5942   */\n      0x24\n      dup3\n      add\n        /* \"#utility.yul\":5917:5947   */\n      mstore\n        /* \"#utility.yul\":5983:6016   */\n      0x4f6e6c7920565246436f6f7264696e61746f722063616e2066756c66696c6c00\n        /* \"#utility.yul\":5963:5981   */\n      0x44\n      dup3\n      add\n        /* \"#utility.yul\":5956:6017   */\n      mstore\n        /* \"#utility.yul\":6034:6052   */\n      0x64\n      add\n        /* \"@chainlink/contracts/src/v0.8/VRFConsumerBase.sol\":9660:9732  require(msg.sender == vrfCoordinator, \"Only VRFCoordinator can fulfill\") */\n      tag_78\n        /* \"#utility.yul\":5703:6058   */\n      jump\n        /* \"@chainlink/contracts/src/v0.8/VRFConsumerBase.sol\":9660:9732  require(msg.sender == vrfCoordinator, \"Only VRFCoordinator can fulfill\") */\n    tag_109:\n        /* \"contracts/lottery.sol\":3330:3342  randomResult */\n      0x08\n        /* \"contracts/lottery.sol\":3330:3355  randomResult = randomness */\n      sstore\n      pop\n        /* \"@chainlink/contracts/src/v0.8/VRFConsumerBase.sol\":9576:9783  function rawFulfillRandomness(bytes32 requestId, uint256 randomness) external {... */\n      jump\t// out\n        /* \"contracts/lottery.sol\":7204:7407  function deposit() public payable returns (uint256){\r... */\n    tag_56:\n        /* \"contracts/lottery.sol\":7247:7254  uint256 */\n      0x00\n        /* \"contracts/lottery.sol\":7285:7295  0.001*1e18 */\n      0x038d7ea4c68000\n        /* \"contracts/lottery.sol\":7274:7283  msg.value */\n      callvalue\n        /* \"contracts/lottery.sol\":7274:7295  msg.value> 0.001*1e18 */\n      gt\n        /* \"contracts/lottery.sol\":7266:7313  require(msg.value> 0.001*1e18,\"not enough eth\") */\n      tag_115\n      jumpi\n      mload(0x40)\n      mul(0x461bcd, exp(0x02, 0xe5))\n      dup2\n      mstore\n        /* \"#utility.yul\":6962:6964   */\n      0x20\n        /* \"contracts/lottery.sol\":7266:7313  require(msg.value> 0.001*1e18,\"not enough eth\") */\n      0x04\n      dup3\n      add\n        /* \"#utility.yul\":6944:6965   */\n      mstore\n        /* \"#utility.yul\":7001:7003   */\n      0x0e\n        /* \"#utility.yul\":6981:6999   */\n      0x24\n      dup3\n      add\n        /* \"#utility.yul\":6974:7004   */\n      mstore\n        /* \"#utility.yul\":7040:7056   */\n      0x6e6f7420656e6f75676820657468000000000000000000000000000000000000\n        /* \"#utility.yul\":7020:7038   */\n      0x44\n      dup3\n      add\n        /* \"#utility.yul\":7013:7057   */\n      mstore\n        /* \"#utility.yul\":7074:7092   */\n      0x64\n      add\n        /* \"contracts/lottery.sol\":7266:7313  require(msg.value> 0.001*1e18,\"not enough eth\") */\n      tag_78\n        /* \"#utility.yul\":6760:7098   */\n      jump\n        /* \"contracts/lottery.sol\":7266:7313  require(msg.value> 0.001*1e18,\"not enough eth\") */\n    tag_115:\n        /* \"contracts/lottery.sol\":7353:7367  msg.value/1e15 */\n      tag_118\n        /* \"contracts/lottery.sol\":7363:7367  1e15 */\n      0x038d7ea4c68000\n        /* \"contracts/lottery.sol\":7353:7362  msg.value */\n      callvalue\n        /* \"contracts/lottery.sol\":7353:7367  msg.value/1e15 */\n      tag_119\n      jump\t// in\n    tag_118:\n        /* \"contracts/lottery.sol\":7340:7350  msg.sender */\n      caller\n        /* \"contracts/lottery.sol\":7324:7351  BalanceOfPlayer[msg.sender] */\n      0x00\n      swap1\n      dup2\n      mstore\n        /* \"contracts/lottery.sol\":7324:7339  BalanceOfPlayer */\n      0x03\n        /* \"contracts/lottery.sol\":7324:7351  BalanceOfPlayer[msg.sender] */\n      0x20\n      mstore\n      0x40\n      dup2\n      keccak256\n        /* \"contracts/lottery.sol\":7324:7367  BalanceOfPlayer[msg.sender]+=msg.value/1e15 */\n      dup1\n      sload\n        /* \"contracts/lottery.sol\":7324:7351  BalanceOfPlayer[msg.sender] */\n      swap1\n      swap2\n      swap1\n        /* \"contracts/lottery.sol\":7324:7367  BalanceOfPlayer[msg.sender]+=msg.value/1e15 */\n      tag_120\n      swap1\n      dup5\n      swap1\n      tag_107\n      jump\t// in\n    tag_120:\n      swap1\n      swap2\n      sstore\n      pop\n        /* \"contracts/lottery.sol\":7385:7399  msg.value/1e15 */\n      tag_121\n      swap1\n      pop\n        /* \"contracts/lottery.sol\":7395:7399  1e15 */\n      0x038d7ea4c68000\n        /* \"contracts/lottery.sol\":7385:7394  msg.value */\n      callvalue\n        /* \"contracts/lottery.sol\":7385:7399  msg.value/1e15 */\n      tag_119\n      jump\t// in\n    tag_121:\n        /* \"contracts/lottery.sol\":7378:7399  return msg.value/1e15 */\n      swap1\n      pop\n        /* \"contracts/lottery.sol\":7204:7407  function deposit() public payable returns (uint256){\r... */\n      swap1\n      jump\t// out\n        /* \"contracts/lottery.sol\":3024:3230  function getRandomNumber() public returns (bytes32 requestId) {\r... */\n    tag_60:\n        /* \"contracts/lottery.sol\":3138:3141  fee */\n      sload(0x07)\n        /* \"contracts/lottery.sol\":3105:3134  LINK.balanceOf(address(this)) */\n      mload(0x40)\n      0x70a0823100000000000000000000000000000000000000000000000000000000\n      dup2\n      mstore\n        /* \"contracts/lottery.sol\":3128:3132  this */\n      address\n        /* \"contracts/lottery.sol\":3105:3134  LINK.balanceOf(address(this)) */\n      0x04\n      dup3\n      add\n        /* \"#utility.yul\":2098:2172   */\n      mstore\n        /* \"contracts/lottery.sol\":3067:3084  bytes32 requestId */\n      0x00\n      swap2\n        /* \"contracts/lottery.sol\":3138:3141  fee */\n      swap1\n      sub(exp(0x02, 0xa0), 0x01)\n        /* \"contracts/lottery.sol\":3105:3109  LINK */\n      immutable(\"0xb2219b801710730437d0358146c829b62297a059eceaa0b40b27aea2daecf595\")\n        /* \"contracts/lottery.sol\":3105:3119  LINK.balanceOf */\n      and\n      swap1\n      0x70a08231\n      swap1\n        /* \"#utility.yul\":2071:2089   */\n      0x24\n      add\n        /* \"contracts/lottery.sol\":3105:3134  LINK.balanceOf(address(this)) */\n      0x20\n      mload(0x40)\n      dup1\n      dup4\n      sub\n      dup2\n      dup7\n      dup1\n      extcodesize\n      iszero\n      dup1\n      iszero\n      tag_125\n      jumpi\n      0x00\n      dup1\n      revert\n    tag_125:\n      pop\n      gas\n      staticcall\n      iszero\n      dup1\n      iszero\n      tag_127\n      jumpi\n      returndatasize\n      0x00\n      dup1\n      returndatacopy\n      revert(0x00, returndatasize)\n    tag_127:\n      pop\n      pop\n      pop\n      pop\n      mload(0x40)\n      returndatasize\n      not(0x1f)\n      0x1f\n      dup3\n      add\n      and\n      dup3\n      add\n      dup1\n      0x40\n      mstore\n      pop\n      dup2\n      add\n      swap1\n      tag_128\n      swap2\n      swap1\n      tag_129\n      jump\t// in\n    tag_128:\n        /* \"contracts/lottery.sol\":3105:3141  LINK.balanceOf(address(this)) >= fee */\n      lt\n      iszero\n        /* \"contracts/lottery.sol\":3097:3173  require(LINK.balanceOf(address(this)) >= fee, \"Not enough LINK in contract\") */\n      tag_130\n      jumpi\n      mload(0x40)\n      mul(0x461bcd, exp(0x02, 0xe5))\n      dup2\n      mstore\n        /* \"#utility.yul\":5549:5551   */\n      0x20\n        /* \"contracts/lottery.sol\":3097:3173  require(LINK.balanceOf(address(this)) >= fee, \"Not enough LINK in contract\") */\n      0x04\n      dup3\n      add\n        /* \"#utility.yul\":5531:5552   */\n      mstore\n        /* \"#utility.yul\":5588:5590   */\n      0x1b\n        /* \"#utility.yul\":5568:5586   */\n      0x24\n      dup3\n      add\n        /* \"#utility.yul\":5561:5591   */\n      mstore\n        /* \"#utility.yul\":5627:5656   */\n      0x4e6f7420656e6f756768204c494e4b20696e20636f6e74726163740000000000\n        /* \"#utility.yul\":5607:5625   */\n      0x44\n      dup3\n      add\n        /* \"#utility.yul\":5600:5657   */\n      mstore\n        /* \"#utility.yul\":5674:5692   */\n      0x64\n      add\n        /* \"contracts/lottery.sol\":3097:3173  require(LINK.balanceOf(address(this)) >= fee, \"Not enough LINK in contract\") */\n      tag_78\n        /* \"#utility.yul\":5347:5698   */\n      jump\n        /* \"contracts/lottery.sol\":3097:3173  require(LINK.balanceOf(address(this)) >= fee, \"Not enough LINK in contract\") */\n    tag_130:\n        /* \"contracts/lottery.sol\":3191:3222  requestRandomness(keyHash, fee) */\n      tag_121\n        /* \"contracts/lottery.sol\":3209:3216  keyHash */\n      sload(0x06)\n        /* \"contracts/lottery.sol\":3218:3221  fee */\n      sload(0x07)\n        /* \"contracts/lottery.sol\":3191:3208  requestRandomness */\n      tag_134\n        /* \"contracts/lottery.sol\":3191:3222  requestRandomness(keyHash, fee) */\n      jump\t// in\n        /* \"contracts/lottery.sol\":3400:3593  function getBalance(address _playerAddress) public view returns(uint256 balance){\r... */\n    tag_66:\n        /* \"contracts/lottery.sol\":3464:3479  uint256 balance */\n      0x00\n        /* \"contracts/lottery.sol\":3494:3504  msg.sender */\n      caller\n      sub(exp(0x02, 0xa0), 0x01)\n        /* \"contracts/lottery.sol\":3494:3520  msg.sender==_playerAddress */\n      dup4\n      and\n      eq\n        /* \"contracts/lottery.sol\":3491:3586  if(msg.sender==_playerAddress){\r... */\n      iszero\n      tag_136\n      jumpi\n      pop\n      sub(exp(0x02, 0xa0), 0x01)\n        /* \"contracts/lottery.sol\":3543:3574  BalanceOfPlayer[_playerAddress] */\n      and\n      0x00\n      swap1\n      dup2\n      mstore\n        /* \"contracts/lottery.sol\":3543:3558  BalanceOfPlayer */\n      0x03\n        /* \"contracts/lottery.sol\":3543:3574  BalanceOfPlayer[_playerAddress] */\n      0x20\n      mstore\n      0x40\n      swap1\n      keccak256\n      sload\n      swap1\n        /* \"contracts/lottery.sol\":3400:3593  function getBalance(address _playerAddress) public view returns(uint256 balance){\r... */\n      jump\t// out\n        /* \"contracts/lottery.sol\":3491:3586  if(msg.sender==_playerAddress){\r... */\n    tag_136:\n        /* \"contracts/lottery.sol\":3400:3593  function getBalance(address _playerAddress) public view returns(uint256 balance){\r... */\n      swap2\n      swap1\n      pop\n      jump\t// out\n        /* \"contracts/lottery.sol\":3648:3943  function IsBalancecreditted()private returns(bool){\r... */\n    tag_95:\n        /* \"contracts/lottery.sol\":3722:3732  msg.sender */\n      caller\n        /* \"contracts/lottery.sol\":3693:3697  bool */\n      0x00\n        /* \"contracts/lottery.sol\":3712:3733  Playermap[msg.sender] */\n      swap1\n      dup2\n      mstore\n        /* \"contracts/lottery.sol\":3712:3721  Playermap */\n      0x02\n        /* \"contracts/lottery.sol\":3712:3733  Playermap[msg.sender] */\n      0x20\n      mstore\n      0x40\n      dup2\n      keccak256\n        /* \"contracts/lottery.sol\":3712:3749  Playermap[msg.sender].BalanceCredited */\n      0x03\n      add\n      sload\n      exp(0x02, 0xa0)\n      swap1\n      div\n      0xff\n      and\n        /* \"contracts/lottery.sol\":3709:3877  if(Playermap[msg.sender].BalanceCredited ==false){\r... */\n      tag_138\n      jumpi\n        /* \"contracts/lottery.sol\":3789:3799  msg.sender */\n      caller\n        /* \"contracts/lottery.sol\":3773:3800  BalanceOfPlayer[msg.sender] */\n      0x00\n      swap1\n      dup2\n      mstore\n        /* \"contracts/lottery.sol\":3773:3788  BalanceOfPlayer */\n      0x03\n        /* \"contracts/lottery.sol\":3773:3800  BalanceOfPlayer[msg.sender] */\n      0x20\n      dup2\n      dup2\n      mstore\n      0x40\n      dup1\n      dup5\n      keccak256\n        /* \"contracts/lottery.sol\":3801:3804  100 */\n      0x64\n        /* \"contracts/lottery.sol\":3773:3804  BalanceOfPlayer[msg.sender]=100 */\n      swap1\n      sstore\n        /* \"contracts/lottery.sol\":3819:3828  Playermap */\n      0x02\n        /* \"contracts/lottery.sol\":3819:3840  Playermap[msg.sender] */\n      swap1\n      swap2\n      mstore\n      swap1\n      swap2\n      keccak256\n        /* \"contracts/lottery.sol\":3819:3856  Playermap[msg.sender].BalanceCredited */\n      add\n        /* \"contracts/lottery.sol\":3819:3861  Playermap[msg.sender].BalanceCredited=true */\n      dup1\n      sload\n      not(0xff0000000000000000000000000000000000000000)\n      and\n      exp(0x02, 0xa0)\n      or\n      swap1\n      sstore\n        /* \"contracts/lottery.sol\":3709:3877  if(Playermap[msg.sender].BalanceCredited ==false){\r... */\n    tag_138:\n      pop\n        /* \"contracts/lottery.sol\":3908:3918  msg.sender */\n      caller\n        /* \"contracts/lottery.sol\":3898:3919  Playermap[msg.sender] */\n      0x00\n      swap1\n      dup2\n      mstore\n        /* \"contracts/lottery.sol\":3898:3907  Playermap */\n      0x02\n        /* \"contracts/lottery.sol\":3898:3919  Playermap[msg.sender] */\n      0x20\n      mstore\n      0x40\n      swap1\n      keccak256\n        /* \"contracts/lottery.sol\":3898:3935  Playermap[msg.sender].BalanceCredited */\n      0x03\n      add\n      sload\n      exp(0x02, 0xa0)\n      swap1\n      div\n      0xff\n      and\n      swap1\n        /* \"contracts/lottery.sol\":3648:3943  function IsBalancecreditted()private returns(bool){\r... */\n      jump\t// out\n        /* \"@chainlink/contracts/src/v0.8/VRFConsumerBase.sol\":7732:8752  function requestRandomness(bytes32 _keyHash, uint256 _fee) internal returns (bytes32 requestId) {... */\n    tag_134:\n        /* \"@chainlink/contracts/src/v0.8/VRFConsumerBase.sol\":7809:7826  bytes32 requestId */\n      0x00\n        /* \"@chainlink/contracts/src/v0.8/VRFConsumerBase.sol\":7834:7838  LINK */\n      immutable(\"0xb2219b801710730437d0358146c829b62297a059eceaa0b40b27aea2daecf595\")\n      sub(exp(0x02, 0xa0), 0x01)\n        /* \"@chainlink/contracts/src/v0.8/VRFConsumerBase.sol\":7834:7854  LINK.transferAndCall */\n      and\n      0x4000aea0\n        /* \"@chainlink/contracts/src/v0.8/VRFConsumerBase.sol\":7855:7869  vrfCoordinator */\n      immutable(\"0x6dbb33232cde86c8a04f90a8bed9fc1c5ef520188a14538d96eb100d69bc2a94\")\n        /* \"@chainlink/contracts/src/v0.8/VRFConsumerBase.sol\":7871:7875  _fee */\n      dup5\n        /* \"@chainlink/contracts/src/v0.8/VRFConsumerBase.sol\":7888:7896  _keyHash */\n      dup7\n        /* \"@chainlink/contracts/src/v0.8/VRFConsumerBase.sol\":6589:6590  0 */\n      0x00\n        /* \"@chainlink/contracts/src/v0.8/VRFConsumerBase.sol\":7877:7920  abi.encode(_keyHash, USER_SEED_PLACEHOLDER) */\n      add(0x20, mload(0x40))\n      tag_141\n      swap3\n      swap2\n      swap1\n        /* \"#utility.yul\":4117:4142   */\n      swap2\n      dup3\n      mstore\n        /* \"#utility.yul\":4173:4175   */\n      0x20\n        /* \"#utility.yul\":4158:4176   */\n      dup3\n      add\n        /* \"#utility.yul\":4151:4185   */\n      mstore\n        /* \"#utility.yul\":4105:4107   */\n      0x40\n        /* \"#utility.yul\":4090:4108   */\n      add\n      swap1\n        /* \"#utility.yul\":3943:4191   */\n      jump\n        /* \"@chainlink/contracts/src/v0.8/VRFConsumerBase.sol\":7877:7920  abi.encode(_keyHash, USER_SEED_PLACEHOLDER) */\n    tag_141:\n      0x40\n      dup1\n      mload\n      not(0x1f)\n      dup2\n      dup5\n      sub\n      add\n      dup2\n      mstore\n      swap1\n      dup3\n      swap1\n      mstore\n        /* \"@chainlink/contracts/src/v0.8/VRFConsumerBase.sol\":7834:7921  LINK.transferAndCall(vrfCoordinator, _fee, abi.encode(_keyHash, USER_SEED_PLACEHOLDER)) */\n      0x0100000000000000000000000000000000000000000000000000000000\n      0xffffffff\n      dup7\n      and\n      mul\n      dup3\n      mstore\n      tag_143\n      swap4\n      swap3\n      swap2\n      0x04\n      add\n      tag_144\n      jump\t// in\n    tag_143:\n      0x20\n      mload(0x40)\n      dup1\n      dup4\n      sub\n      dup2\n      0x00\n      dup8\n      dup1\n      extcodesize\n      iszero\n      dup1\n      iszero\n      tag_145\n      jumpi\n      0x00\n      dup1\n      revert\n    tag_145:\n      pop\n      gas\n      call\n      iszero\n      dup1\n      iszero\n      tag_147\n      jumpi\n      returndatasize\n      0x00\n      dup1\n      returndatacopy\n      revert(0x00, returndatasize)\n    tag_147:\n      pop\n      pop\n      pop\n      pop\n      mload(0x40)\n      returndatasize\n      not(0x1f)\n      0x1f\n      dup3\n      add\n      and\n      dup3\n      add\n      dup1\n      0x40\n      mstore\n      pop\n      dup2\n      add\n      swap1\n      tag_148\n      swap2\n      swap1\n      tag_149\n      jump\t// in\n    tag_148:\n      pop\n        /* \"@chainlink/contracts/src/v0.8/VRFConsumerBase.sol\":8152:8167  uint256 vRFSeed */\n      0x00\n        /* \"@chainlink/contracts/src/v0.8/VRFConsumerBase.sol\":8235:8251  nonces[_keyHash] */\n      dup4\n      dup2\n      mstore\n      0x20\n      dup2\n      dup2\n      mstore\n      0x40\n      dup1\n      dup4\n      keccak256\n      sload\n        /* \"@chainlink/contracts/src/v0.8/VRFRequestIDBase.sol\":978:1029  abi.encode(_keyHash, _userSeed, _requester, _nonce) */\n      dup2\n      mload\n      dup1\n      dup5\n      add\n        /* \"#utility.yul\":4427:4452   */\n      dup9\n      swap1\n      mstore\n        /* \"#utility.yul\":4468:4486   */\n      dup1\n      dup4\n      add\n        /* \"#utility.yul\":4461:4495   */\n      dup6\n      swap1\n      mstore\n        /* \"@chainlink/contracts/src/v0.8/VRFConsumerBase.sol\":8228:8232  this */\n      address\n        /* \"#utility.yul\":4511:4529   */\n      0x60\n      dup3\n      add\n        /* \"#utility.yul\":4504:4587   */\n      mstore\n        /* \"#utility.yul\":4603:4621   */\n      0x80\n      dup1\n      dup3\n      add\n        /* \"#utility.yul\":4596:4630   */\n      dup4\n      swap1\n      mstore\n        /* \"@chainlink/contracts/src/v0.8/VRFRequestIDBase.sol\":978:1029  abi.encode(_keyHash, _userSeed, _requester, _nonce) */\n      dup4\n      mload\n      dup1\n      dup4\n      sub\n      swap1\n      swap2\n      add\n      dup2\n      mstore\n        /* \"#utility.yul\":4399:4418   */\n      0xa0\n      swap1\n      swap2\n      add\n        /* \"@chainlink/contracts/src/v0.8/VRFRequestIDBase.sol\":978:1029  abi.encode(_keyHash, _userSeed, _requester, _nonce) */\n      swap1\n      swap3\n      mstore\n        /* \"@chainlink/contracts/src/v0.8/VRFRequestIDBase.sol\":968:1030  keccak256(abi.encode(_keyHash, _userSeed, _requester, _nonce)) */\n      dup2\n      mload\n      swap2\n      dup4\n      add\n      swap2\n      swap1\n      swap2\n      keccak256\n        /* \"@chainlink/contracts/src/v0.8/VRFConsumerBase.sol\":8682:8698  nonces[_keyHash] */\n      dup7\n      dup5\n      mstore\n      swap3\n      swap1\n      swap2\n      mstore\n        /* \"@chainlink/contracts/src/v0.8/VRFConsumerBase.sol\":8682:8702  nonces[_keyHash] + 1 */\n      tag_152\n      swap1\n        /* \"@chainlink/contracts/src/v0.8/VRFConsumerBase.sol\":8701:8702  1 */\n      0x01\n        /* \"@chainlink/contracts/src/v0.8/VRFConsumerBase.sol\":8682:8702  nonces[_keyHash] + 1 */\n      tag_107\n      jump\t// in\n    tag_152:\n        /* \"@chainlink/contracts/src/v0.8/VRFConsumerBase.sol\":8663:8669  nonces */\n      0x00\n        /* \"@chainlink/contracts/src/v0.8/VRFConsumerBase.sol\":8663:8679  nonces[_keyHash] */\n      dup6\n      dup2\n      mstore\n      0x20\n      dup2\n      dup2\n      mstore\n      0x40\n      swap2\n      dup3\n      swap1\n      keccak256\n        /* \"@chainlink/contracts/src/v0.8/VRFConsumerBase.sol\":8663:8702  nonces[_keyHash] = nonces[_keyHash] + 1 */\n      swap3\n      swap1\n      swap3\n      sstore\n        /* \"@chainlink/contracts/src/v0.8/VRFRequestIDBase.sol\":1535:1576  abi.encodePacked(_keyHash, _vRFInputSeed) */\n      dup1\n      mload\n      dup1\n      dup4\n      add\n        /* \"#utility.yul\":1647:1666   */\n      dup8\n      swap1\n      mstore\n        /* \"#utility.yul\":1682:1694   */\n      dup1\n      dup3\n      add\n        /* \"#utility.yul\":1675:1703   */\n      dup5\n      swap1\n      mstore\n        /* \"@chainlink/contracts/src/v0.8/VRFRequestIDBase.sol\":1535:1576  abi.encodePacked(_keyHash, _vRFInputSeed) */\n      dup2\n      mload\n      dup1\n      dup3\n      sub\n      dup4\n      add\n      dup2\n      mstore\n        /* \"#utility.yul\":1719:1731   */\n      0x60\n      swap1\n      swap2\n      add\n        /* \"@chainlink/contracts/src/v0.8/VRFRequestIDBase.sol\":1535:1576  abi.encodePacked(_keyHash, _vRFInputSeed) */\n      swap1\n      swap2\n      mstore\n        /* \"@chainlink/contracts/src/v0.8/VRFRequestIDBase.sol\":1525:1577  keccak256(abi.encodePacked(_keyHash, _vRFInputSeed)) */\n      dup1\n      mload\n      swap2\n      add\n      keccak256\n        /* \"@chainlink/contracts/src/v0.8/VRFConsumerBase.sol\":8708:8747  return makeRequestId(_keyHash, vRFSeed) */\n      swap5\n        /* \"@chainlink/contracts/src/v0.8/VRFConsumerBase.sol\":7732:8752  function requestRandomness(bytes32 _keyHash, uint256 _fee) internal returns (bytes32 requestId) {... */\n      swap4\n      pop\n      pop\n      pop\n      pop\n      jump\t// out\n        /* \"#utility.yul\":14:323   */\n    tag_52:\n        /* \"#utility.yul\":73:79   */\n      0x00\n        /* \"#utility.yul\":126:128   */\n      0x20\n        /* \"#utility.yul\":114:123   */\n      dup3\n        /* \"#utility.yul\":105:112   */\n      dup5\n        /* \"#utility.yul\":101:124   */\n      sub\n        /* \"#utility.yul\":97:129   */\n      slt\n        /* \"#utility.yul\":94:146   */\n      iszero\n      tag_163\n      jumpi\n        /* \"#utility.yul\":142:143   */\n      0x00\n        /* \"#utility.yul\":139:140   */\n      dup1\n        /* \"#utility.yul\":132:144   */\n      revert\n        /* \"#utility.yul\":94:146   */\n    tag_163:\n        /* \"#utility.yul\":181:190   */\n      dup2\n        /* \"#utility.yul\":168:191   */\n      calldataload\n      sub(exp(0x02, 0xa0), 0x01)\n        /* \"#utility.yul\":224:229   */\n      dup2\n        /* \"#utility.yul\":220:274   */\n      and\n        /* \"#utility.yul\":213:218   */\n      dup2\n        /* \"#utility.yul\":210:275   */\n      eq\n        /* \"#utility.yul\":200:293   */\n      tag_164\n      jumpi\n        /* \"#utility.yul\":289:290   */\n      0x00\n        /* \"#utility.yul\":286:287   */\n      dup1\n        /* \"#utility.yul\":279:291   */\n      revert\n        /* \"#utility.yul\":200:293   */\n    tag_164:\n        /* \"#utility.yul\":312:317   */\n      swap4\n        /* \"#utility.yul\":14:323   */\n      swap3\n      pop\n      pop\n      pop\n      jump\t// out\n        /* \"#utility.yul\":328:605   */\n    tag_149:\n        /* \"#utility.yul\":395:401   */\n      0x00\n        /* \"#utility.yul\":448:450   */\n      0x20\n        /* \"#utility.yul\":436:445   */\n      dup3\n        /* \"#utility.yul\":427:434   */\n      dup5\n        /* \"#utility.yul\":423:446   */\n      sub\n        /* \"#utility.yul\":419:451   */\n      slt\n        /* \"#utility.yul\":416:468   */\n      iszero\n      tag_166\n      jumpi\n        /* \"#utility.yul\":464:465   */\n      0x00\n        /* \"#utility.yul\":461:462   */\n      dup1\n        /* \"#utility.yul\":454:466   */\n      revert\n        /* \"#utility.yul\":416:468   */\n    tag_166:\n        /* \"#utility.yul\":496:505   */\n      dup2\n        /* \"#utility.yul\":490:506   */\n      mload\n        /* \"#utility.yul\":549:554   */\n      dup1\n        /* \"#utility.yul\":542:555   */\n      iszero\n        /* \"#utility.yul\":535:556   */\n      iszero\n        /* \"#utility.yul\":528:533   */\n      dup2\n        /* \"#utility.yul\":525:557   */\n      eq\n        /* \"#utility.yul\":515:575   */\n      tag_164\n      jumpi\n        /* \"#utility.yul\":571:572   */\n      0x00\n        /* \"#utility.yul\":568:569   */\n      dup1\n        /* \"#utility.yul\":561:573   */\n      revert\n        /* \"#utility.yul\":610:858   */\n    tag_47:\n        /* \"#utility.yul\":678:684   */\n      0x00\n        /* \"#utility.yul\":686:692   */\n      dup1\n        /* \"#utility.yul\":739:741   */\n      0x40\n        /* \"#utility.yul\":727:736   */\n      dup4\n        /* \"#utility.yul\":718:725   */\n      dup6\n        /* \"#utility.yul\":714:737   */\n      sub\n        /* \"#utility.yul\":710:742   */\n      slt\n        /* \"#utility.yul\":707:759   */\n      iszero\n      tag_169\n      jumpi\n        /* \"#utility.yul\":755:756   */\n      0x00\n        /* \"#utility.yul\":752:753   */\n      dup1\n        /* \"#utility.yul\":745:757   */\n      revert\n        /* \"#utility.yul\":707:759   */\n    tag_169:\n      pop\n      pop\n        /* \"#utility.yul\":778:801   */\n      dup1\n      calldataload\n      swap3\n        /* \"#utility.yul\":848:850   */\n      0x20\n        /* \"#utility.yul\":833:851   */\n      swap1\n      swap2\n      add\n        /* \"#utility.yul\":820:852   */\n      calldataload\n      swap2\n      pop\n        /* \"#utility.yul\":610:858   */\n      jump\t// out\n        /* \"#utility.yul\":863:1043   */\n    tag_17:\n        /* \"#utility.yul\":922:928   */\n      0x00\n        /* \"#utility.yul\":975:977   */\n      0x20\n        /* \"#utility.yul\":963:972   */\n      dup3\n        /* \"#utility.yul\":954:961   */\n      dup5\n        /* \"#utility.yul\":950:973   */\n      sub\n        /* \"#utility.yul\":946:978   */\n      slt\n        /* \"#utility.yul\":943:995   */\n      iszero\n      tag_171\n      jumpi\n        /* \"#utility.yul\":991:992   */\n      0x00\n        /* \"#utility.yul\":988:989   */\n      dup1\n        /* \"#utility.yul\":981:993   */\n      revert\n        /* \"#utility.yul\":943:995   */\n    tag_171:\n      pop\n        /* \"#utility.yul\":1014:1037   */\n      calldataload\n      swap2\n        /* \"#utility.yul\":863:1043   */\n      swap1\n      pop\n      jump\t// out\n        /* \"#utility.yul\":1048:1232   */\n    tag_129:\n        /* \"#utility.yul\":1118:1124   */\n      0x00\n        /* \"#utility.yul\":1171:1173   */\n      0x20\n        /* \"#utility.yul\":1159:1168   */\n      dup3\n        /* \"#utility.yul\":1150:1157   */\n      dup5\n        /* \"#utility.yul\":1146:1169   */\n      sub\n        /* \"#utility.yul\":1142:1174   */\n      slt\n        /* \"#utility.yul\":1139:1191   */\n      iszero\n      tag_173\n      jumpi\n        /* \"#utility.yul\":1187:1188   */\n      0x00\n        /* \"#utility.yul\":1184:1185   */\n      dup1\n        /* \"#utility.yul\":1177:1189   */\n      revert\n        /* \"#utility.yul\":1139:1191   */\n    tag_173:\n      pop\n        /* \"#utility.yul\":1210:1226   */\n      mload\n      swap2\n        /* \"#utility.yul\":1048:1232   */\n      swap1\n      pop\n      jump\t// out\n        /* \"#utility.yul\":2430:3219   */\n    tag_144:\n      sub(exp(0x02, 0xa0), 0x01)\n        /* \"#utility.yul\":2637:2643   */\n      dup5\n        /* \"#utility.yul\":2633:2688   */\n      and\n        /* \"#utility.yul\":2622:2631   */\n      dup2\n        /* \"#utility.yul\":2615:2689   */\n      mstore\n        /* \"#utility.yul\":2596:2600   */\n      0x00\n        /* \"#utility.yul\":2708:2710   */\n      0x20\n        /* \"#utility.yul\":2746:2752   */\n      dup5\n        /* \"#utility.yul\":2741:2743   */\n      dup2\n        /* \"#utility.yul\":2730:2739   */\n      dup5\n        /* \"#utility.yul\":2726:2744   */\n      add\n        /* \"#utility.yul\":2719:2753   */\n      mstore\n        /* \"#utility.yul\":2789:2791   */\n      0x60\n        /* \"#utility.yul\":2784:2786   */\n      0x40\n        /* \"#utility.yul\":2773:2782   */\n      dup5\n        /* \"#utility.yul\":2769:2787   */\n      add\n        /* \"#utility.yul\":2762:2792   */\n      mstore\n        /* \"#utility.yul\":2821:2827   */\n      dup4\n        /* \"#utility.yul\":2815:2828   */\n      mload\n        /* \"#utility.yul\":2864:2870   */\n      dup1\n        /* \"#utility.yul\":2859:2861   */\n      0x60\n        /* \"#utility.yul\":2848:2857   */\n      dup6\n        /* \"#utility.yul\":2844:2862   */\n      add\n        /* \"#utility.yul\":2837:2871   */\n      mstore\n        /* \"#utility.yul\":2889:2890   */\n      0x00\n        /* \"#utility.yul\":2899:3040   */\n    tag_181:\n        /* \"#utility.yul\":2913:2919   */\n      dup2\n        /* \"#utility.yul\":2910:2911   */\n      dup2\n        /* \"#utility.yul\":2907:2920   */\n      lt\n        /* \"#utility.yul\":2899:3040   */\n      iszero\n      tag_183\n      jumpi\n        /* \"#utility.yul\":3009:3023   */\n      dup6\n      dup2\n      add\n        /* \"#utility.yul\":3005:3028   */\n      dup4\n      add\n        /* \"#utility.yul\":2999:3029   */\n      mload\n        /* \"#utility.yul\":2974:2991   */\n      dup6\n      dup3\n      add\n        /* \"#utility.yul\":2993:2996   */\n      0x80\n        /* \"#utility.yul\":2970:2997   */\n      add\n        /* \"#utility.yul\":2963:3030   */\n      mstore\n        /* \"#utility.yul\":2928:2938   */\n      dup3\n      add\n        /* \"#utility.yul\":2899:3040   */\n      jump(tag_181)\n    tag_183:\n        /* \"#utility.yul\":3058:3064   */\n      dup2\n        /* \"#utility.yul\":3055:3056   */\n      dup2\n        /* \"#utility.yul\":3052:3065   */\n      gt\n        /* \"#utility.yul\":3049:3141   */\n      iszero\n      tag_184\n      jumpi\n        /* \"#utility.yul\":3129:3130   */\n      0x00\n        /* \"#utility.yul\":3123:3126   */\n      0x80\n        /* \"#utility.yul\":3114:3120   */\n      dup4\n        /* \"#utility.yul\":3103:3112   */\n      dup8\n        /* \"#utility.yul\":3099:3121   */\n      add\n        /* \"#utility.yul\":3095:3127   */\n      add\n        /* \"#utility.yul\":3088:3131   */\n      mstore\n        /* \"#utility.yul\":3049:3141   */\n    tag_184:\n      pop\n        /* \"#utility.yul\":3202:3204   */\n      0x1f\n        /* \"#utility.yul\":3181:3196   */\n      add\n      not(0x1f)\n        /* \"#utility.yul\":3177:3206   */\n      and\n        /* \"#utility.yul\":3162:3207   */\n      swap3\n      swap1\n      swap3\n      add\n        /* \"#utility.yul\":3209:3212   */\n      0x80\n        /* \"#utility.yul\":3158:3213   */\n      add\n      swap6\n        /* \"#utility.yul\":2430:3219   */\n      swap5\n      pop\n      pop\n      pop\n      pop\n      pop\n      jump\t// out\n        /* \"#utility.yul\":7622:7750   */\n    tag_107:\n        /* \"#utility.yul\":7662:7665   */\n      0x00\n        /* \"#utility.yul\":7693:7694   */\n      dup3\n        /* \"#utility.yul\":7689:7695   */\n      not\n        /* \"#utility.yul\":7686:7687   */\n      dup3\n        /* \"#utility.yul\":7683:7696   */\n      gt\n        /* \"#utility.yul\":7680:7719   */\n      iszero\n      tag_200\n      jumpi\n        /* \"#utility.yul\":7699:7717   */\n      tag_200\n      tag_201\n      jump\t// in\n    tag_200:\n      pop\n        /* \"#utility.yul\":7735:7744   */\n      add\n      swap1\n        /* \"#utility.yul\":7622:7750   */\n      jump\t// out\n        /* \"#utility.yul\":7755:8029   */\n    tag_119:\n        /* \"#utility.yul\":7795:7796   */\n      0x00\n        /* \"#utility.yul\":7821:7822   */\n      dup3\n        /* \"#utility.yul\":7811:8000   */\n      tag_203\n      jumpi\n        /* \"#utility.yul\":7856:7933   */\n      0x4e487b7100000000000000000000000000000000000000000000000000000000\n        /* \"#utility.yul\":7853:7854   */\n      0x00\n        /* \"#utility.yul\":7846:7934   */\n      mstore\n        /* \"#utility.yul\":7957:7961   */\n      0x12\n        /* \"#utility.yul\":7954:7955   */\n      0x04\n        /* \"#utility.yul\":7947:7962   */\n      mstore\n        /* \"#utility.yul\":7985:7989   */\n      0x24\n        /* \"#utility.yul\":7982:7983   */\n      0x00\n        /* \"#utility.yul\":7975:7990   */\n      revert\n        /* \"#utility.yul\":7811:8000   */\n    tag_203:\n      pop\n        /* \"#utility.yul\":8014:8023   */\n      div\n      swap1\n        /* \"#utility.yul\":7755:8029   */\n      jump\t// out\n        /* \"#utility.yul\":8034:8202   */\n    tag_71:\n        /* \"#utility.yul\":8074:8081   */\n      0x00\n        /* \"#utility.yul\":8140:8141   */\n      dup2\n        /* \"#utility.yul\":8136:8137   */\n      0x00\n        /* \"#utility.yul\":8132:8138   */\n      not\n        /* \"#utility.yul\":8128:8142   */\n      div\n        /* \"#utility.yul\":8125:8126   */\n      dup4\n        /* \"#utility.yul\":8122:8143   */\n      gt\n        /* \"#utility.yul\":8117:8118   */\n      dup3\n        /* \"#utility.yul\":8110:8119   */\n      iszero\n        /* \"#utility.yul\":8103:8120   */\n      iszero\n        /* \"#utility.yul\":8099:8144   */\n      and\n        /* \"#utility.yul\":8096:8167   */\n      iszero\n      tag_206\n      jumpi\n        /* \"#utility.yul\":8147:8165   */\n      tag_206\n      tag_201\n      jump\t// in\n    tag_206:\n      pop\n        /* \"#utility.yul\":8187:8196   */\n      mul\n      swap1\n        /* \"#utility.yul\":8034:8202   */\n      jump\t// out\n        /* \"#utility.yul\":8207:8332   */\n    tag_81:\n        /* \"#utility.yul\":8247:8251   */\n      0x00\n        /* \"#utility.yul\":8275:8276   */\n      dup3\n        /* \"#utility.yul\":8272:8273   */\n      dup3\n        /* \"#utility.yul\":8269:8277   */\n      lt\n        /* \"#utility.yul\":8266:8300   */\n      iszero\n      tag_209\n      jumpi\n        /* \"#utility.yul\":8280:8298   */\n      tag_209\n      tag_201\n      jump\t// in\n    tag_209:\n      pop\n        /* \"#utility.yul\":8317:8326   */\n      sub\n      swap1\n        /* \"#utility.yul\":8207:8332   */\n      jump\t// out\n        /* \"#utility.yul\":8337:8521   */\n    tag_201:\n        /* \"#utility.yul\":8389:8466   */\n      0x4e487b7100000000000000000000000000000000000000000000000000000000\n        /* \"#utility.yul\":8386:8387   */\n      0x00\n        /* \"#utility.yul\":8379:8467   */\n      mstore\n        /* \"#utility.yul\":8486:8490   */\n      0x11\n        /* \"#utility.yul\":8483:8484   */\n      0x04\n        /* \"#utility.yul\":8476:8491   */\n      mstore\n        /* \"#utility.yul\":8510:8514   */\n      0x24\n        /* \"#utility.yul\":8507:8508   */\n      0x00\n        /* \"#utility.yul\":8500:8515   */\n      revert\n\n    auxdata: 0xa26469706673582212206a2f70155c8103571e1b519ce75b0d6827efafe85053e5d03674b8f5f6ddd31264736f6c63430008070033\n}\n",
				"bytecode": {
					"linkReferences": {},
					"object": "60e060408181527fb3dccb4cf7a26f6cf6b120cf5a73875b7bbc655b00000000000000000000000060a0527f01be23585060835e02b77ef475b0cc51aa1e07090000000000000000000000006080527f2ed0feb3e7fd2022120aa84fab1945545a9f2ffc9076fd6156fa96eaff4c131160065567016345785d8a0000600755336c01000000000000000000000000810260c0526000818152600360205291822061271090559091662386f26fc10000908381818185875af1925050503d80600081146100e7576040519150601f19603f3d011682016040523d82523d6000602084013e6100ec565b606091505b505090508061015b576040517f08c379a000000000000000000000000000000000000000000000000000000000815260206004820152600e60248201527f63616e27742073656e7420657468000000000000000000000000000000000000604482015260640160405180910390fd5b503060009081526003602052604090206103e890556080516c01000000000000000000000000900460a0516c01000000000000000000000000900460c0516c010000000000000000000000009004610e3c6101eb6000396000818161016e01528181610400015261075a0152600081816107ad0152610acb0152600081816109070152610a9c0152610e3c6000f3fe6080604052600436106100b9576000357c01000000000000000000000000000000000000000000000000000000009004806387e19a2c1161008157806387e19a2c146101bf57806394985ddd146101df578063aaffe698146101ff578063d0e30db01461025a578063dbdff2c114610262578063f8b2cb4f1461027757600080fd5b80632e1a7d4d146100be5780632f33b820146100f157806342619f66146101465780634c43d2841461015c5780635d495aea146101a8575b600080fd5b3480156100ca57600080fd5b506100de6100d9366004610caf565b610297565b6040519081526020015b60405180910390f35b3480156100fd57600080fd5b5061011161010c366004610c8d565b610396565b604080519515158652602086019490945292840191909152600160a060020a031660608301521515608082015260a0016100e8565b34801561015257600080fd5b506100de60085481565b34801561016857600080fd5b506101907f000000000000000000000000000000000000000000000000000000000000000081565b604051600160a060020a0390911681526020016100e8565b3480156101b457600080fd5b506101bd6103f5565b005b3480156101cb57600080fd5b506101bd6101da366004610c8d565b61047b565b3480156101eb57600080fd5b506101bd6101fa366004610c8d565b6107a2565b34801561020b57600080fd5b5061011161021a366004610c3b565b6002602081905260009182526040909120805460018201549282015460039092015460ff918216939291600160a060020a0382169160a060020a90041685565b6100de610823565b34801561026e57600080fd5b506100de6108ca565b34801561028357600080fd5b506100de610292366004610c3b565b6109e0565b336000908152600360205260408120548211610381576000336102c18466038d7ea4c68000610da1565b604051600081818185875af1925050503d80600081146102fd576040519150601f19603f3d011682016040523d82523d6000602084013e610302565b606091505b505090508061035b5760405160e560020a62461bcd02815260206004820152601060248201527f2063616e2774207769746864726177200000000000000000000000000000000060448201526064015b60405180910390fd5b336000908152600360205260408120805485929061037a908490610dc0565b9091555050505b50503360009081526003602052604090205490565b600460205281600052604060002081815481106103b257600080fd5b6000918252602090912060049091020180546001820154600283015460039093015460ff9283169550909350600160a060020a0381169160a060020a9091041685565b33600160a060020a037f000000000000000000000000000000000000000000000000000000000000000016146104705760405160e560020a62461bcd02815260206004820152600960248201527f4e6f742061646d696e00000000000000000000000000000000000000000000006044820152606401610352565b6104786108ca565b50565b3360009081526002602052604090205460ff16156104de5760405160e560020a62461bcd02815260206004820181905260248201527f54686520706c6179657220616c726561647920697320696e206c6f74746572796044820152606401610352565b60006040518060a0016040528060011515815260200184815260200183815260200133600160a060020a03168152602001610517610a14565b15159052905082158061052a5750826001145b6105795760405160e560020a62461bcd02815260206004820152601360248201527f656e7465722076616c69642062657474696e67000000000000000000000000006044820152606401610352565b6000821180156105985750336000908152600360205260409020548211155b6105e75760405160e560020a62461bcd02815260206004820152601460248201527f636865636b207468652062657420616d6f756e740000000000000000000000006044820152606401610352565b6001805480820182556000828152835160049092027fb10e2d527612073b26eecdfd717e6a320cf44b4afac2b0732d9fcbe2b7fa0cf68101805493151560ff19948516179055602080860180517fb10e2d527612073b26eecdfd717e6a320cf44b4afac2b0732d9fcbe2b7fa0cf7840155604080880180517fb10e2d527612073b26eecdfd717e6a320cf44b4afac2b0732d9fcbe2b7fa0cf88601556060890180517fb10e2d527612073b26eecdfd717e6a320cf44b4afac2b0732d9fcbe2b7fa0cf9909601805460808c018051151560a060020a90810274ffffffffffffffffffffffffffffffffffffffffff19938416600160a060020a039b8c161717909355338a526002808952868b208e5181549015159d169c909c178c5596519b8b019b909b559251948901949094555160039788018054995115159094029890911694169390931795909517909455919092528120805484929061074b908490610dc0565b9091555050600160a060020a037f00000000000000000000000000000000000000000000000000000000000000001660009081526003602052604081208054849290610798908490610d4e565b9091555050505050565b33600160a060020a037f0000000000000000000000000000000000000000000000000000000000000000161461081d5760405160e560020a62461bcd02815260206004820152601f60248201527f4f6e6c7920565246436f6f7264696e61746f722063616e2066756c66696c6c006044820152606401610352565b60085550565b600066038d7ea4c68000341161087e5760405160e560020a62461bcd02815260206004820152600e60248201527f6e6f7420656e6f756768206574680000000000000000000000000000000000006044820152606401610352565b61088f66038d7ea4c6800034610d66565b33600090815260036020526040812080549091906108ae908490610d4e565b909155506108c5905066038d7ea4c6800034610d66565b905090565b6007546040517f70a0823100000000000000000000000000000000000000000000000000000000815230600482015260009190600160a060020a037f000000000000000000000000000000000000000000000000000000000000000016906370a082319060240160206040518083038186803b15801561094957600080fd5b505afa15801561095d573d6000803e3d6000fd5b505050506040513d601f19601f820116820180604052508101906109819190610cc8565b10156109d25760405160e560020a62461bcd02815260206004820152601b60248201527f4e6f7420656e6f756768204c494e4b20696e20636f6e747261637400000000006044820152606401610352565b6108c5600654600754610a98565b600033600160a060020a0383161415610a0f5750600160a060020a031660009081526003602052604090205490565b919050565b3360009081526002602052604081206003015460a060020a900460ff16610a775733600090815260036020818152604080842060649055600290915290912001805474ff0000000000000000000000000000000000000000191660a060020a1790555b503360009081526002602052604090206003015460a060020a900460ff1690565b60007f0000000000000000000000000000000000000000000000000000000000000000600160a060020a0316634000aea07f000000000000000000000000000000000000000000000000000000000000000084866000604051602001610b08929190918252602082015260400190565b60408051601f19818403018152908290527c010000000000000000000000000000000000000000000000000000000063ffffffff8616028252610b4f939291600401610ce1565b602060405180830381600087803b158015610b6957600080fd5b505af1158015610b7d573d6000803e3d6000fd5b505050506040513d601f19601f82011682018060405250810190610ba19190610c6b565b5060008381526020818152604080832054815180840188905280830185905230606082015260808082018390528351808303909101815260a090910190925281519183019190912086845292909152610bfb906001610d4e565b6000858152602081815260409182902092909255805180830187905280820184905281518082038301815260609091019091528051910120949350505050565b600060208284031215610c4d57600080fd5b8135600160a060020a0381168114610c6457600080fd5b9392505050565b600060208284031215610c7d57600080fd5b81518015158114610c6457600080fd5b60008060408385031215610ca057600080fd5b50508035926020909101359150565b600060208284031215610cc157600080fd5b5035919050565b600060208284031215610cda57600080fd5b5051919050565b600160a060020a038416815260006020848184015260606040840152835180606085015260005b81811015610d2457858101830151858201608001528201610d08565b81811115610d36576000608083870101525b50601f01601f19169290920160800195945050505050565b60008219821115610d6157610d61610dd7565b500190565b600082610d9c577f4e487b7100000000000000000000000000000000000000000000000000000000600052601260045260246000fd5b500490565b6000816000190483118215151615610dbb57610dbb610dd7565b500290565b600082821015610dd257610dd2610dd7565b500390565b7f4e487b7100000000000000000000000000000000000000000000000000000000600052601160045260246000fdfea26469706673582212206a2f70155c8103571e1b519ce75b0d6827efafe85053e5d03674b8f5f6ddd31264736f6c63430008070033",
					"opcodes": "PUSH1 0xE0 PUSH1 0x40 DUP2 DUP2 MSTORE PUSH32 0xB3DCCB4CF7A26F6CF6B120CF5A73875B7BBC655B000000000000000000000000 PUSH1 0xA0 MSTORE PUSH32 0x1BE23585060835E02B77EF475B0CC51AA1E0709000000000000000000000000 PUSH1 0x80 MSTORE PUSH32 0x2ED0FEB3E7FD2022120AA84FAB1945545A9F2FFC9076FD6156FA96EAFF4C1311 PUSH1 0x6 SSTORE PUSH8 0x16345785D8A0000 PUSH1 0x7 SSTORE CALLER PUSH13 0x1000000000000000000000000 DUP2 MUL PUSH1 0xC0 MSTORE PUSH1 0x0 DUP2 DUP2 MSTORE PUSH1 0x3 PUSH1 0x20 MSTORE SWAP2 DUP3 KECCAK256 PUSH2 0x2710 SWAP1 SSTORE SWAP1 SWAP2 PUSH7 0x2386F26FC10000 SWAP1 DUP4 DUP2 DUP2 DUP2 DUP6 DUP8 GAS CALL SWAP3 POP POP POP RETURNDATASIZE DUP1 PUSH1 0x0 DUP2 EQ PUSH2 0xE7 JUMPI PUSH1 0x40 MLOAD SWAP2 POP PUSH1 0x1F NOT PUSH1 0x3F RETURNDATASIZE ADD AND DUP3 ADD PUSH1 0x40 MSTORE RETURNDATASIZE DUP3 MSTORE RETURNDATASIZE PUSH1 0x0 PUSH1 0x20 DUP5 ADD RETURNDATACOPY PUSH2 0xEC JUMP JUMPDEST PUSH1 0x60 SWAP2 POP JUMPDEST POP POP SWAP1 POP DUP1 PUSH2 0x15B JUMPI PUSH1 0x40 MLOAD PUSH32 0x8C379A000000000000000000000000000000000000000000000000000000000 DUP2 MSTORE PUSH1 0x20 PUSH1 0x4 DUP3 ADD MSTORE PUSH1 0xE PUSH1 0x24 DUP3 ADD MSTORE PUSH32 0x63616E27742073656E7420657468000000000000000000000000000000000000 PUSH1 0x44 DUP3 ADD MSTORE PUSH1 0x64 ADD PUSH1 0x40 MLOAD DUP1 SWAP2 SUB SWAP1 REVERT JUMPDEST POP ADDRESS PUSH1 0x0 SWAP1 DUP2 MSTORE PUSH1 0x3 PUSH1 0x20 MSTORE PUSH1 0x40 SWAP1 KECCAK256 PUSH2 0x3E8 SWAP1 SSTORE PUSH1 0x80 MLOAD PUSH13 0x1000000000000000000000000 SWAP1 DIV PUSH1 0xA0 MLOAD PUSH13 0x1000000000000000000000000 SWAP1 DIV PUSH1 0xC0 MLOAD PUSH13 0x1000000000000000000000000 SWAP1 DIV PUSH2 0xE3C PUSH2 0x1EB PUSH1 0x0 CODECOPY PUSH1 0x0 DUP2 DUP2 PUSH2 0x16E ADD MSTORE DUP2 DUP2 PUSH2 0x400 ADD MSTORE PUSH2 0x75A ADD MSTORE PUSH1 0x0 DUP2 DUP2 PUSH2 0x7AD ADD MSTORE PUSH2 0xACB ADD MSTORE PUSH1 0x0 DUP2 DUP2 PUSH2 0x907 ADD MSTORE PUSH2 0xA9C ADD MSTORE PUSH2 0xE3C PUSH1 0x0 RETURN INVALID PUSH1 0x80 PUSH1 0x40 MSTORE PUSH1 0x4 CALLDATASIZE LT PUSH2 0xB9 JUMPI PUSH1 0x0 CALLDATALOAD PUSH29 0x100000000000000000000000000000000000000000000000000000000 SWAP1 DIV DUP1 PUSH4 0x87E19A2C GT PUSH2 0x81 JUMPI DUP1 PUSH4 0x87E19A2C EQ PUSH2 0x1BF JUMPI DUP1 PUSH4 0x94985DDD EQ PUSH2 0x1DF JUMPI DUP1 PUSH4 0xAAFFE698 EQ PUSH2 0x1FF JUMPI DUP1 PUSH4 0xD0E30DB0 EQ PUSH2 0x25A JUMPI DUP1 PUSH4 0xDBDFF2C1 EQ PUSH2 0x262 JUMPI DUP1 PUSH4 0xF8B2CB4F EQ PUSH2 0x277 JUMPI PUSH1 0x0 DUP1 REVERT JUMPDEST DUP1 PUSH4 0x2E1A7D4D EQ PUSH2 0xBE JUMPI DUP1 PUSH4 0x2F33B820 EQ PUSH2 0xF1 JUMPI DUP1 PUSH4 0x42619F66 EQ PUSH2 0x146 JUMPI DUP1 PUSH4 0x4C43D284 EQ PUSH2 0x15C JUMPI DUP1 PUSH4 0x5D495AEA EQ PUSH2 0x1A8 JUMPI JUMPDEST PUSH1 0x0 DUP1 REVERT JUMPDEST CALLVALUE DUP1 ISZERO PUSH2 0xCA JUMPI PUSH1 0x0 DUP1 REVERT JUMPDEST POP PUSH2 0xDE PUSH2 0xD9 CALLDATASIZE PUSH1 0x4 PUSH2 0xCAF JUMP JUMPDEST PUSH2 0x297 JUMP JUMPDEST PUSH1 0x40 MLOAD SWAP1 DUP2 MSTORE PUSH1 0x20 ADD JUMPDEST PUSH1 0x40 MLOAD DUP1 SWAP2 SUB SWAP1 RETURN JUMPDEST CALLVALUE DUP1 ISZERO PUSH2 0xFD JUMPI PUSH1 0x0 DUP1 REVERT JUMPDEST POP PUSH2 0x111 PUSH2 0x10C CALLDATASIZE PUSH1 0x4 PUSH2 0xC8D JUMP JUMPDEST PUSH2 0x396 JUMP JUMPDEST PUSH1 0x40 DUP1 MLOAD SWAP6 ISZERO ISZERO DUP7 MSTORE PUSH1 0x20 DUP7 ADD SWAP5 SWAP1 SWAP5 MSTORE SWAP3 DUP5 ADD SWAP2 SWAP1 SWAP2 MSTORE PUSH1 0x1 PUSH1 0xA0 PUSH1 0x2 EXP SUB AND PUSH1 0x60 DUP4 ADD MSTORE ISZERO ISZERO PUSH1 0x80 DUP3 ADD MSTORE PUSH1 0xA0 ADD PUSH2 0xE8 JUMP JUMPDEST CALLVALUE DUP1 ISZERO PUSH2 0x152 JUMPI PUSH1 0x0 DUP1 REVERT JUMPDEST POP PUSH2 0xDE PUSH1 0x8 SLOAD DUP2 JUMP JUMPDEST CALLVALUE DUP1 ISZERO PUSH2 0x168 JUMPI PUSH1 0x0 DUP1 REVERT JUMPDEST POP PUSH2 0x190 PUSH32 0x0 DUP2 JUMP JUMPDEST PUSH1 0x40 MLOAD PUSH1 0x1 PUSH1 0xA0 PUSH1 0x2 EXP SUB SWAP1 SWAP2 AND DUP2 MSTORE PUSH1 0x20 ADD PUSH2 0xE8 JUMP JUMPDEST CALLVALUE DUP1 ISZERO PUSH2 0x1B4 JUMPI PUSH1 0x0 DUP1 REVERT JUMPDEST POP PUSH2 0x1BD PUSH2 0x3F5 JUMP JUMPDEST STOP JUMPDEST CALLVALUE DUP1 ISZERO PUSH2 0x1CB JUMPI PUSH1 0x0 DUP1 REVERT JUMPDEST POP PUSH2 0x1BD PUSH2 0x1DA CALLDATASIZE PUSH1 0x4 PUSH2 0xC8D JUMP JUMPDEST PUSH2 0x47B JUMP JUMPDEST CALLVALUE DUP1 ISZERO PUSH2 0x1EB JUMPI PUSH1 0x0 DUP1 REVERT JUMPDEST POP PUSH2 0x1BD PUSH2 0x1FA CALLDATASIZE PUSH1 0x4 PUSH2 0xC8D JUMP JUMPDEST PUSH2 0x7A2 JUMP JUMPDEST CALLVALUE DUP1 ISZERO PUSH2 0x20B JUMPI PUSH1 0x0 DUP1 REVERT JUMPDEST POP PUSH2 0x111 PUSH2 0x21A CALLDATASIZE PUSH1 0x4 PUSH2 0xC3B JUMP JUMPDEST PUSH1 0x2 PUSH1 0x20 DUP2 SWAP1 MSTORE PUSH1 0x0 SWAP2 DUP3 MSTORE PUSH1 0x40 SWAP1 SWAP2 KECCAK256 DUP1 SLOAD PUSH1 0x1 DUP3 ADD SLOAD SWAP3 DUP3 ADD SLOAD PUSH1 0x3 SWAP1 SWAP3 ADD SLOAD PUSH1 0xFF SWAP2 DUP3 AND SWAP4 SWAP3 SWAP2 PUSH1 0x1 PUSH1 0xA0 PUSH1 0x2 EXP SUB DUP3 AND SWAP2 PUSH1 0xA0 PUSH1 0x2 EXP SWAP1 DIV AND DUP6 JUMP JUMPDEST PUSH2 0xDE PUSH2 0x823 JUMP JUMPDEST CALLVALUE DUP1 ISZERO PUSH2 0x26E JUMPI PUSH1 0x0 DUP1 REVERT JUMPDEST POP PUSH2 0xDE PUSH2 0x8CA JUMP JUMPDEST CALLVALUE DUP1 ISZERO PUSH2 0x283 JUMPI PUSH1 0x0 DUP1 REVERT JUMPDEST POP PUSH2 0xDE PUSH2 0x292 CALLDATASIZE PUSH1 0x4 PUSH2 0xC3B JUMP JUMPDEST PUSH2 0x9E0 JUMP JUMPDEST CALLER PUSH1 0x0 SWAP1 DUP2 MSTORE PUSH1 0x3 PUSH1 0x20 MSTORE PUSH1 0x40 DUP2 KECCAK256 SLOAD DUP3 GT PUSH2 0x381 JUMPI PUSH1 0x0 CALLER PUSH2 0x2C1 DUP5 PUSH7 0x38D7EA4C68000 PUSH2 0xDA1 JUMP JUMPDEST PUSH1 0x40 MLOAD PUSH1 0x0 DUP2 DUP2 DUP2 DUP6 DUP8 GAS CALL SWAP3 POP POP POP RETURNDATASIZE DUP1 PUSH1 0x0 DUP2 EQ PUSH2 0x2FD JUMPI PUSH1 0x40 MLOAD SWAP2 POP PUSH1 0x1F NOT PUSH1 0x3F RETURNDATASIZE ADD AND DUP3 ADD PUSH1 0x40 MSTORE RETURNDATASIZE DUP3 MSTORE RETURNDATASIZE PUSH1 0x0 PUSH1 0x20 DUP5 ADD RETURNDATACOPY PUSH2 0x302 JUMP JUMPDEST PUSH1 0x60 SWAP2 POP JUMPDEST POP POP SWAP1 POP DUP1 PUSH2 0x35B JUMPI PUSH1 0x40 MLOAD PUSH1 0xE5 PUSH1 0x2 EXP PUSH3 0x461BCD MUL DUP2 MSTORE PUSH1 0x20 PUSH1 0x4 DUP3 ADD MSTORE PUSH1 0x10 PUSH1 0x24 DUP3 ADD MSTORE PUSH32 0x2063616E27742077697468647261772000000000000000000000000000000000 PUSH1 0x44 DUP3 ADD MSTORE PUSH1 0x64 ADD JUMPDEST PUSH1 0x40 MLOAD DUP1 SWAP2 SUB SWAP1 REVERT JUMPDEST CALLER PUSH1 0x0 SWAP1 DUP2 MSTORE PUSH1 0x3 PUSH1 0x20 MSTORE PUSH1 0x40 DUP2 KECCAK256 DUP1 SLOAD DUP6 SWAP3 SWAP1 PUSH2 0x37A SWAP1 DUP5 SWAP1 PUSH2 0xDC0 JUMP JUMPDEST SWAP1 SWAP2 SSTORE POP POP POP JUMPDEST POP POP CALLER PUSH1 0x0 SWAP1 DUP2 MSTORE PUSH1 0x3 PUSH1 0x20 MSTORE PUSH1 0x40 SWAP1 KECCAK256 SLOAD SWAP1 JUMP JUMPDEST PUSH1 0x4 PUSH1 0x20 MSTORE DUP2 PUSH1 0x0 MSTORE PUSH1 0x40 PUSH1 0x0 KECCAK256 DUP2 DUP2 SLOAD DUP2 LT PUSH2 0x3B2 JUMPI PUSH1 0x0 DUP1 REVERT JUMPDEST PUSH1 0x0 SWAP2 DUP3 MSTORE PUSH1 0x20 SWAP1 SWAP2 KECCAK256 PUSH1 0x4 SWAP1 SWAP2 MUL ADD DUP1 SLOAD PUSH1 0x1 DUP3 ADD SLOAD PUSH1 0x2 DUP4 ADD SLOAD PUSH1 0x3 SWAP1 SWAP4 ADD SLOAD PUSH1 0xFF SWAP3 DUP4 AND SWAP6 POP SWAP1 SWAP4 POP PUSH1 0x1 PUSH1 0xA0 PUSH1 0x2 EXP SUB DUP2 AND SWAP2 PUSH1 0xA0 PUSH1 0x2 EXP SWAP1 SWAP2 DIV AND DUP6 JUMP JUMPDEST CALLER PUSH1 0x1 PUSH1 0xA0 PUSH1 0x2 EXP SUB PUSH32 0x0 AND EQ PUSH2 0x470 JUMPI PUSH1 0x40 MLOAD PUSH1 0xE5 PUSH1 0x2 EXP PUSH3 0x461BCD MUL DUP2 MSTORE PUSH1 0x20 PUSH1 0x4 DUP3 ADD MSTORE PUSH1 0x9 PUSH1 0x24 DUP3 ADD MSTORE PUSH32 0x4E6F742061646D696E0000000000000000000000000000000000000000000000 PUSH1 0x44 DUP3 ADD MSTORE PUSH1 0x64 ADD PUSH2 0x352 JUMP JUMPDEST PUSH2 0x478 PUSH2 0x8CA JUMP JUMPDEST POP JUMP JUMPDEST CALLER PUSH1 0x0 SWAP1 DUP2 MSTORE PUSH1 0x2 PUSH1 0x20 MSTORE PUSH1 0x40 SWAP1 KECCAK256 SLOAD PUSH1 0xFF AND ISZERO PUSH2 0x4DE JUMPI PUSH1 0x40 MLOAD PUSH1 0xE5 PUSH1 0x2 EXP PUSH3 0x461BCD MUL DUP2 MSTORE PUSH1 0x20 PUSH1 0x4 DUP3 ADD DUP2 SWAP1 MSTORE PUSH1 0x24 DUP3 ADD MSTORE PUSH32 0x54686520706C6179657220616C726561647920697320696E206C6F7474657279 PUSH1 0x44 DUP3 ADD MSTORE PUSH1 0x64 ADD PUSH2 0x352 JUMP JUMPDEST PUSH1 0x0 PUSH1 0x40 MLOAD DUP1 PUSH1 0xA0 ADD PUSH1 0x40 MSTORE DUP1 PUSH1 0x1 ISZERO ISZERO DUP2 MSTORE PUSH1 0x20 ADD DUP5 DUP2 MSTORE PUSH1 0x20 ADD DUP4 DUP2 MSTORE PUSH1 0x20 ADD CALLER PUSH1 0x1 PUSH1 0xA0 PUSH1 0x2 EXP SUB AND DUP2 MSTORE PUSH1 0x20 ADD PUSH2 0x517 PUSH2 0xA14 JUMP JUMPDEST ISZERO ISZERO SWAP1 MSTORE SWAP1 POP DUP3 ISZERO DUP1 PUSH2 0x52A JUMPI POP DUP3 PUSH1 0x1 EQ JUMPDEST PUSH2 0x579 JUMPI PUSH1 0x40 MLOAD PUSH1 0xE5 PUSH1 0x2 EXP PUSH3 0x461BCD MUL DUP2 MSTORE PUSH1 0x20 PUSH1 0x4 DUP3 ADD MSTORE PUSH1 0x13 PUSH1 0x24 DUP3 ADD MSTORE PUSH32 0x656E7465722076616C69642062657474696E6700000000000000000000000000 PUSH1 0x44 DUP3 ADD MSTORE PUSH1 0x64 ADD PUSH2 0x352 JUMP JUMPDEST PUSH1 0x0 DUP3 GT DUP1 ISZERO PUSH2 0x598 JUMPI POP CALLER PUSH1 0x0 SWAP1 DUP2 MSTORE PUSH1 0x3 PUSH1 0x20 MSTORE PUSH1 0x40 SWAP1 KECCAK256 SLOAD DUP3 GT ISZERO JUMPDEST PUSH2 0x5E7 JUMPI PUSH1 0x40 MLOAD PUSH1 0xE5 PUSH1 0x2 EXP PUSH3 0x461BCD MUL DUP2 MSTORE PUSH1 0x20 PUSH1 0x4 DUP3 ADD MSTORE PUSH1 0x14 PUSH1 0x24 DUP3 ADD MSTORE PUSH32 0x636865636B207468652062657420616D6F756E74000000000000000000000000 PUSH1 0x44 DUP3 ADD MSTORE PUSH1 0x64 ADD PUSH2 0x352 JUMP JUMPDEST PUSH1 0x1 DUP1 SLOAD DUP1 DUP3 ADD DUP3 SSTORE PUSH1 0x0 DUP3 DUP2 MSTORE DUP4 MLOAD PUSH1 0x4 SWAP1 SWAP3 MUL PUSH32 0xB10E2D527612073B26EECDFD717E6A320CF44B4AFAC2B0732D9FCBE2B7FA0CF6 DUP2 ADD DUP1 SLOAD SWAP4 ISZERO ISZERO PUSH1 0xFF NOT SWAP5 DUP6 AND OR SWAP1 SSTORE PUSH1 0x20 DUP1 DUP7 ADD DUP1 MLOAD PUSH32 0xB10E2D527612073B26EECDFD717E6A320CF44B4AFAC2B0732D9FCBE2B7FA0CF7 DUP5 ADD SSTORE PUSH1 0x40 DUP1 DUP9 ADD DUP1 MLOAD PUSH32 0xB10E2D527612073B26EECDFD717E6A320CF44B4AFAC2B0732D9FCBE2B7FA0CF8 DUP7 ADD SSTORE PUSH1 0x60 DUP10 ADD DUP1 MLOAD PUSH32 0xB10E2D527612073B26EECDFD717E6A320CF44B4AFAC2B0732D9FCBE2B7FA0CF9 SWAP1 SWAP7 ADD DUP1 SLOAD PUSH1 0x80 DUP13 ADD DUP1 MLOAD ISZERO ISZERO PUSH1 0xA0 PUSH1 0x2 EXP SWAP1 DUP2 MUL PUSH21 0xFFFFFFFFFFFFFFFFFFFFFFFFFFFFFFFFFFFFFFFFFF NOT SWAP4 DUP5 AND PUSH1 0x1 PUSH1 0xA0 PUSH1 0x2 EXP SUB SWAP12 DUP13 AND OR OR SWAP1 SWAP4 SSTORE CALLER DUP11 MSTORE PUSH1 0x2 DUP1 DUP10 MSTORE DUP7 DUP12 KECCAK256 DUP15 MLOAD DUP2 SLOAD SWAP1 ISZERO ISZERO SWAP14 AND SWAP13 SWAP1 SWAP13 OR DUP13 SSTORE SWAP7 MLOAD SWAP12 DUP12 ADD SWAP12 SWAP1 SWAP12 SSTORE SWAP3 MLOAD SWAP5 DUP10 ADD SWAP5 SWAP1 SWAP5 SSTORE MLOAD PUSH1 0x3 SWAP8 DUP9 ADD DUP1 SLOAD SWAP10 MLOAD ISZERO ISZERO SWAP1 SWAP5 MUL SWAP9 SWAP1 SWAP2 AND SWAP5 AND SWAP4 SWAP1 SWAP4 OR SWAP6 SWAP1 SWAP6 OR SWAP1 SWAP5 SSTORE SWAP2 SWAP1 SWAP3 MSTORE DUP2 KECCAK256 DUP1 SLOAD DUP5 SWAP3 SWAP1 PUSH2 0x74B SWAP1 DUP5 SWAP1 PUSH2 0xDC0 JUMP JUMPDEST SWAP1 SWAP2 SSTORE POP POP PUSH1 0x1 PUSH1 0xA0 PUSH1 0x2 EXP SUB PUSH32 0x0 AND PUSH1 0x0 SWAP1 DUP2 MSTORE PUSH1 0x3 PUSH1 0x20 MSTORE PUSH1 0x40 DUP2 KECCAK256 DUP1 SLOAD DUP5 SWAP3 SWAP1 PUSH2 0x798 SWAP1 DUP5 SWAP1 PUSH2 0xD4E JUMP JUMPDEST SWAP1 SWAP2 SSTORE POP POP POP POP POP JUMP JUMPDEST CALLER PUSH1 0x1 PUSH1 0xA0 PUSH1 0x2 EXP SUB PUSH32 0x0 AND EQ PUSH2 0x81D JUMPI PUSH1 0x40 MLOAD PUSH1 0xE5 PUSH1 0x2 EXP PUSH3 0x461BCD MUL DUP2 MSTORE PUSH1 0x20 PUSH1 0x4 DUP3 ADD MSTORE PUSH1 0x1F PUSH1 0x24 DUP3 ADD MSTORE PUSH32 0x4F6E6C7920565246436F6F7264696E61746F722063616E2066756C66696C6C00 PUSH1 0x44 DUP3 ADD MSTORE PUSH1 0x64 ADD PUSH2 0x352 JUMP JUMPDEST PUSH1 0x8 SSTORE POP JUMP JUMPDEST PUSH1 0x0 PUSH7 0x38D7EA4C68000 CALLVALUE GT PUSH2 0x87E JUMPI PUSH1 0x40 MLOAD PUSH1 0xE5 PUSH1 0x2 EXP PUSH3 0x461BCD MUL DUP2 MSTORE PUSH1 0x20 PUSH1 0x4 DUP3 ADD MSTORE PUSH1 0xE PUSH1 0x24 DUP3 ADD MSTORE PUSH32 0x6E6F7420656E6F75676820657468000000000000000000000000000000000000 PUSH1 0x44 DUP3 ADD MSTORE PUSH1 0x64 ADD PUSH2 0x352 JUMP JUMPDEST PUSH2 0x88F PUSH7 0x38D7EA4C68000 CALLVALUE PUSH2 0xD66 JUMP JUMPDEST CALLER PUSH1 0x0 SWAP1 DUP2 MSTORE PUSH1 0x3 PUSH1 0x20 MSTORE PUSH1 0x40 DUP2 KECCAK256 DUP1 SLOAD SWAP1 SWAP2 SWAP1 PUSH2 0x8AE SWAP1 DUP5 SWAP1 PUSH2 0xD4E JUMP JUMPDEST SWAP1 SWAP2 SSTORE POP PUSH2 0x8C5 SWAP1 POP PUSH7 0x38D7EA4C68000 CALLVALUE PUSH2 0xD66 JUMP JUMPDEST SWAP1 POP SWAP1 JUMP JUMPDEST PUSH1 0x7 SLOAD PUSH1 0x40 MLOAD PUSH32 0x70A0823100000000000000000000000000000000000000000000000000000000 DUP2 MSTORE ADDRESS PUSH1 0x4 DUP3 ADD MSTORE PUSH1 0x0 SWAP2 SWAP1 PUSH1 0x1 PUSH1 0xA0 PUSH1 0x2 EXP SUB PUSH32 0x0 AND SWAP1 PUSH4 0x70A08231 SWAP1 PUSH1 0x24 ADD PUSH1 0x20 PUSH1 0x40 MLOAD DUP1 DUP4 SUB DUP2 DUP7 DUP1 EXTCODESIZE ISZERO DUP1 ISZERO PUSH2 0x949 JUMPI PUSH1 0x0 DUP1 REVERT JUMPDEST POP GAS STATICCALL ISZERO DUP1 ISZERO PUSH2 0x95D JUMPI RETURNDATASIZE PUSH1 0x0 DUP1 RETURNDATACOPY RETURNDATASIZE PUSH1 0x0 REVERT JUMPDEST POP POP POP POP PUSH1 0x40 MLOAD RETURNDATASIZE PUSH1 0x1F NOT PUSH1 0x1F DUP3 ADD AND DUP3 ADD DUP1 PUSH1 0x40 MSTORE POP DUP2 ADD SWAP1 PUSH2 0x981 SWAP2 SWAP1 PUSH2 0xCC8 JUMP JUMPDEST LT ISZERO PUSH2 0x9D2 JUMPI PUSH1 0x40 MLOAD PUSH1 0xE5 PUSH1 0x2 EXP PUSH3 0x461BCD MUL DUP2 MSTORE PUSH1 0x20 PUSH1 0x4 DUP3 ADD MSTORE PUSH1 0x1B PUSH1 0x24 DUP3 ADD MSTORE PUSH32 0x4E6F7420656E6F756768204C494E4B20696E20636F6E74726163740000000000 PUSH1 0x44 DUP3 ADD MSTORE PUSH1 0x64 ADD PUSH2 0x352 JUMP JUMPDEST PUSH2 0x8C5 PUSH1 0x6 SLOAD PUSH1 0x7 SLOAD PUSH2 0xA98 JUMP JUMPDEST PUSH1 0x0 CALLER PUSH1 0x1 PUSH1 0xA0 PUSH1 0x2 EXP SUB DUP4 AND EQ ISZERO PUSH2 0xA0F JUMPI POP PUSH1 0x1 PUSH1 0xA0 PUSH1 0x2 EXP SUB AND PUSH1 0x0 SWAP1 DUP2 MSTORE PUSH1 0x3 PUSH1 0x20 MSTORE PUSH1 0x40 SWAP1 KECCAK256 SLOAD SWAP1 JUMP JUMPDEST SWAP2 SWAP1 POP JUMP JUMPDEST CALLER PUSH1 0x0 SWAP1 DUP2 MSTORE PUSH1 0x2 PUSH1 0x20 MSTORE PUSH1 0x40 DUP2 KECCAK256 PUSH1 0x3 ADD SLOAD PUSH1 0xA0 PUSH1 0x2 EXP SWAP1 DIV PUSH1 0xFF AND PUSH2 0xA77 JUMPI CALLER PUSH1 0x0 SWAP1 DUP2 MSTORE PUSH1 0x3 PUSH1 0x20 DUP2 DUP2 MSTORE PUSH1 0x40 DUP1 DUP5 KECCAK256 PUSH1 0x64 SWAP1 SSTORE PUSH1 0x2 SWAP1 SWAP2 MSTORE SWAP1 SWAP2 KECCAK256 ADD DUP1 SLOAD PUSH21 0xFF0000000000000000000000000000000000000000 NOT AND PUSH1 0xA0 PUSH1 0x2 EXP OR SWAP1 SSTORE JUMPDEST POP CALLER PUSH1 0x0 SWAP1 DUP2 MSTORE PUSH1 0x2 PUSH1 0x20 MSTORE PUSH1 0x40 SWAP1 KECCAK256 PUSH1 0x3 ADD SLOAD PUSH1 0xA0 PUSH1 0x2 EXP SWAP1 DIV PUSH1 0xFF AND SWAP1 JUMP JUMPDEST PUSH1 0x0 PUSH32 0x0 PUSH1 0x1 PUSH1 0xA0 PUSH1 0x2 EXP SUB AND PUSH4 0x4000AEA0 PUSH32 0x0 DUP5 DUP7 PUSH1 0x0 PUSH1 0x40 MLOAD PUSH1 0x20 ADD PUSH2 0xB08 SWAP3 SWAP2 SWAP1 SWAP2 DUP3 MSTORE PUSH1 0x20 DUP3 ADD MSTORE PUSH1 0x40 ADD SWAP1 JUMP JUMPDEST PUSH1 0x40 DUP1 MLOAD PUSH1 0x1F NOT DUP2 DUP5 SUB ADD DUP2 MSTORE SWAP1 DUP3 SWAP1 MSTORE PUSH29 0x100000000000000000000000000000000000000000000000000000000 PUSH4 0xFFFFFFFF DUP7 AND MUL DUP3 MSTORE PUSH2 0xB4F SWAP4 SWAP3 SWAP2 PUSH1 0x4 ADD PUSH2 0xCE1 JUMP JUMPDEST PUSH1 0x20 PUSH1 0x40 MLOAD DUP1 DUP4 SUB DUP2 PUSH1 0x0 DUP8 DUP1 EXTCODESIZE ISZERO DUP1 ISZERO PUSH2 0xB69 JUMPI PUSH1 0x0 DUP1 REVERT JUMPDEST POP GAS CALL ISZERO DUP1 ISZERO PUSH2 0xB7D JUMPI RETURNDATASIZE PUSH1 0x0 DUP1 RETURNDATACOPY RETURNDATASIZE PUSH1 0x0 REVERT JUMPDEST POP POP POP POP PUSH1 0x40 MLOAD RETURNDATASIZE PUSH1 0x1F NOT PUSH1 0x1F DUP3 ADD AND DUP3 ADD DUP1 PUSH1 0x40 MSTORE POP DUP2 ADD SWAP1 PUSH2 0xBA1 SWAP2 SWAP1 PUSH2 0xC6B JUMP JUMPDEST POP PUSH1 0x0 DUP4 DUP2 MSTORE PUSH1 0x20 DUP2 DUP2 MSTORE PUSH1 0x40 DUP1 DUP4 KECCAK256 SLOAD DUP2 MLOAD DUP1 DUP5 ADD DUP9 SWAP1 MSTORE DUP1 DUP4 ADD DUP6 SWAP1 MSTORE ADDRESS PUSH1 0x60 DUP3 ADD MSTORE PUSH1 0x80 DUP1 DUP3 ADD DUP4 SWAP1 MSTORE DUP4 MLOAD DUP1 DUP4 SUB SWAP1 SWAP2 ADD DUP2 MSTORE PUSH1 0xA0 SWAP1 SWAP2 ADD SWAP1 SWAP3 MSTORE DUP2 MLOAD SWAP2 DUP4 ADD SWAP2 SWAP1 SWAP2 KECCAK256 DUP7 DUP5 MSTORE SWAP3 SWAP1 SWAP2 MSTORE PUSH2 0xBFB SWAP1 PUSH1 0x1 PUSH2 0xD4E JUMP JUMPDEST PUSH1 0x0 DUP6 DUP2 MSTORE PUSH1 0x20 DUP2 DUP2 MSTORE PUSH1 0x40 SWAP2 DUP3 SWAP1 KECCAK256 SWAP3 SWAP1 SWAP3 SSTORE DUP1 MLOAD DUP1 DUP4 ADD DUP8 SWAP1 MSTORE DUP1 DUP3 ADD DUP5 SWAP1 MSTORE DUP2 MLOAD DUP1 DUP3 SUB DUP4 ADD DUP2 MSTORE PUSH1 0x60 SWAP1 SWAP2 ADD SWAP1 SWAP2 MSTORE DUP1 MLOAD SWAP2 ADD KECCAK256 SWAP5 SWAP4 POP POP POP POP JUMP JUMPDEST PUSH1 0x0 PUSH1 0x20 DUP3 DUP5 SUB SLT ISZERO PUSH2 0xC4D JUMPI PUSH1 0x0 DUP1 REVERT JUMPDEST DUP2 CALLDATALOAD PUSH1 0x1 PUSH1 0xA0 PUSH1 0x2 EXP SUB DUP2 AND DUP2 EQ PUSH2 0xC64 JUMPI PUSH1 0x0 DUP1 REVERT JUMPDEST SWAP4 SWAP3 POP POP POP JUMP JUMPDEST PUSH1 0x0 PUSH1 0x20 DUP3 DUP5 SUB SLT ISZERO PUSH2 0xC7D JUMPI PUSH1 0x0 DUP1 REVERT JUMPDEST DUP2 MLOAD DUP1 ISZERO ISZERO DUP2 EQ PUSH2 0xC64 JUMPI PUSH1 0x0 DUP1 REVERT JUMPDEST PUSH1 0x0 DUP1 PUSH1 0x40 DUP4 DUP6 SUB SLT ISZERO PUSH2 0xCA0 JUMPI PUSH1 0x0 DUP1 REVERT JUMPDEST POP POP DUP1 CALLDATALOAD SWAP3 PUSH1 0x20 SWAP1 SWAP2 ADD CALLDATALOAD SWAP2 POP JUMP JUMPDEST PUSH1 0x0 PUSH1 0x20 DUP3 DUP5 SUB SLT ISZERO PUSH2 0xCC1 JUMPI PUSH1 0x0 DUP1 REVERT JUMPDEST POP CALLDATALOAD SWAP2 SWAP1 POP JUMP JUMPDEST PUSH1 0x0 PUSH1 0x20 DUP3 DUP5 SUB SLT ISZERO PUSH2 0xCDA JUMPI PUSH1 0x0 DUP1 REVERT JUMPDEST POP MLOAD SWAP2 SWAP1 POP JUMP JUMPDEST PUSH1 0x1 PUSH1 0xA0 PUSH1 0x2 EXP SUB DUP5 AND DUP2 MSTORE PUSH1 0x0 PUSH1 0x20 DUP5 DUP2 DUP5 ADD MSTORE PUSH1 0x60 PUSH1 0x40 DUP5 ADD MSTORE DUP4 MLOAD DUP1 PUSH1 0x60 DUP6 ADD MSTORE PUSH1 0x0 JUMPDEST DUP2 DUP2 LT ISZERO PUSH2 0xD24 JUMPI DUP6 DUP2 ADD DUP4 ADD MLOAD DUP6 DUP3 ADD PUSH1 0x80 ADD MSTORE DUP3 ADD PUSH2 0xD08 JUMP JUMPDEST DUP2 DUP2 GT ISZERO PUSH2 0xD36 JUMPI PUSH1 0x0 PUSH1 0x80 DUP4 DUP8 ADD ADD MSTORE JUMPDEST POP PUSH1 0x1F ADD PUSH1 0x1F NOT AND SWAP3 SWAP1 SWAP3 ADD PUSH1 0x80 ADD SWAP6 SWAP5 POP POP POP POP POP JUMP JUMPDEST PUSH1 0x0 DUP3 NOT DUP3 GT ISZERO PUSH2 0xD61 JUMPI PUSH2 0xD61 PUSH2 0xDD7 JUMP JUMPDEST POP ADD SWAP1 JUMP JUMPDEST PUSH1 0x0 DUP3 PUSH2 0xD9C JUMPI PUSH32 0x4E487B7100000000000000000000000000000000000000000000000000000000 PUSH1 0x0 MSTORE PUSH1 0x12 PUSH1 0x4 MSTORE PUSH1 0x24 PUSH1 0x0 REVERT JUMPDEST POP DIV SWAP1 JUMP JUMPDEST PUSH1 0x0 DUP2 PUSH1 0x0 NOT DIV DUP4 GT DUP3 ISZERO ISZERO AND ISZERO PUSH2 0xDBB JUMPI PUSH2 0xDBB PUSH2 0xDD7 JUMP JUMPDEST POP MUL SWAP1 JUMP JUMPDEST PUSH1 0x0 DUP3 DUP3 LT ISZERO PUSH2 0xDD2 JUMPI PUSH2 0xDD2 PUSH2 0xDD7 JUMP JUMPDEST POP SUB SWAP1 JUMP JUMPDEST PUSH32 0x4E487B7100000000000000000000000000000000000000000000000000000000 PUSH1 0x0 MSTORE PUSH1 0x11 PUSH1 0x4 MSTORE PUSH1 0x24 PUSH1 0x0 REVERT INVALID LOG2 PUSH5 0x6970667358 0x22 SLT KECCAK256 PUSH11 0x2F70155C8103571E1B519C 0xE7 JUMPDEST 0xD PUSH9 0x27EFAFE85053E5D036 PUSH21 0xB8F5F6DDD31264736F6C6343000807003300000000 "
				},
				"gasEstimates": {
					"creation": {
						"codeDepositCost": "728800",
						"executionCost": "infinite",
						"totalCost": "infinite"
					},
					"external": {
						"Playermap(address)": "1679",
						"completedBets(uint256,uint256)": "1885",
						"deposit()": "infinite",
						"enterLotery(uint256,uint256)": "infinite",
						"getBalance(address)": "936",
						"getRandomNumber()": "infinite",
						"i_admin()": "infinite",
						"pickWinner()": "infinite",
						"randomResult()": "434",
						"rawFulfillRandomness(bytes32,uint256)": "infinite",
						"withdraw(uint256)": "infinite"
					},
					"internal": {
						"IsBalancecreditted()": "41181",
						"fulfillRandomness(bytes32,uint256)": "infinite",
						"rewardsBet()": "infinite"
					}
				},
				"methodIdentifiers": {
					"Playermap(address)": "aaffe698",
					"completedBets(uint256,uint256)": "2f33b820",
					"deposit()": "d0e30db0",
					"enterLotery(uint256,uint256)": "87e19a2c",
					"getBalance(address)": "f8b2cb4f",
					"getRandomNumber()": "dbdff2c1",
					"i_admin()": "4c43d284",
					"pickWinner()": "5d495aea",
					"randomResult()": "42619f66",
					"rawFulfillRandomness(bytes32,uint256)": "94985ddd",
					"withdraw(uint256)": "2e1a7d4d"
				}
			},
			"storageLayout": {
				"storage": [
					{
						"astId": 79,
						"contract": "contracts/lottery.sol:enterLottery",
						"label": "nonces",
						"offset": 0,
						"slot": "0",
						"type": "t_mapping(t_bytes32,t_uint256)"
					},
					{
						"astId": 287,
						"contract": "contracts/lottery.sol:enterLottery",
						"label": "Players",
						"offset": 0,
						"slot": "1",
						"type": "t_array(t_struct(player)281_storage)dyn_storage"
					},
					{
						"astId": 292,
						"contract": "contracts/lottery.sol:enterLottery",
						"label": "Playermap",
						"offset": 0,
						"slot": "2",
						"type": "t_mapping(t_address,t_struct(player)281_storage)"
					},
					{
						"astId": 296,
						"contract": "contracts/lottery.sol:enterLottery",
						"label": "BalanceOfPlayer",
						"offset": 0,
						"slot": "3",
						"type": "t_mapping(t_address,t_uint256)"
					},
					{
						"astId": 302,
						"contract": "contracts/lottery.sol:enterLottery",
						"label": "completedBets",
						"offset": 0,
						"slot": "4",
						"type": "t_mapping(t_uint256,t_array(t_struct(player)281_storage)dyn_storage)"
					},
					{
						"astId": 304,
						"contract": "contracts/lottery.sol:enterLottery",
						"label": "completedBetCount",
						"offset": 0,
						"slot": "5",
						"type": "t_uint256"
					},
					{
						"astId": 312,
						"contract": "contracts/lottery.sol:enterLottery",
						"label": "keyHash",
						"offset": 0,
						"slot": "6",
						"type": "t_bytes32"
					},
					{
						"astId": 314,
						"contract": "contracts/lottery.sol:enterLottery",
						"label": "fee",
						"offset": 0,
						"slot": "7",
						"type": "t_uint256"
					},
					{
						"astId": 316,
						"contract": "contracts/lottery.sol:enterLottery",
						"label": "randomResult",
						"offset": 0,
						"slot": "8",
						"type": "t_uint256"
					}
				],
				"types": {
					"t_address": {
						"encoding": "inplace",
						"label": "address",
						"numberOfBytes": "20"
					},
					"t_array(t_struct(player)281_storage)dyn_storage": {
						"base": "t_struct(player)281_storage",
						"encoding": "dynamic_array",
						"label": "struct enterLottery.player[]",
						"numberOfBytes": "32"
					},
					"t_bool": {
						"encoding": "inplace",
						"label": "bool",
						"numberOfBytes": "1"
					},
					"t_bytes32": {
						"encoding": "inplace",
						"label": "bytes32",
						"numberOfBytes": "32"
					},
					"t_mapping(t_address,t_struct(player)281_storage)": {
						"encoding": "mapping",
						"key": "t_address",
						"label": "mapping(address => struct enterLottery.player)",
						"numberOfBytes": "32",
						"value": "t_struct(player)281_storage"
					},
					"t_mapping(t_address,t_uint256)": {
						"encoding": "mapping",
						"key": "t_address",
						"label": "mapping(address => uint256)",
						"numberOfBytes": "32",
						"value": "t_uint256"
					},
					"t_mapping(t_bytes32,t_uint256)": {
						"encoding": "mapping",
						"key": "t_bytes32",
						"label": "mapping(bytes32 => uint256)",
						"numberOfBytes": "32",
						"value": "t_uint256"
					},
					"t_mapping(t_uint256,t_array(t_struct(player)281_storage)dyn_storage)": {
						"encoding": "mapping",
						"key": "t_uint256",
						"label": "mapping(uint256 => struct enterLottery.player[])",
						"numberOfBytes": "32",
						"value": "t_array(t_struct(player)281_storage)dyn_storage"
					},
					"t_struct(player)281_storage": {
						"encoding": "inplace",
						"label": "struct enterLottery.player",
						"members": [
							{
								"astId": 272,
								"contract": "contracts/lottery.sol:enterLottery",
								"label": "IsInLotteryPool",
								"offset": 0,
								"slot": "0",
								"type": "t_bool"
							},
							{
								"astId": 274,
								"contract": "contracts/lottery.sol:enterLottery",
								"label": "betingNum",
								"offset": 0,
								"slot": "1",
								"type": "t_uint256"
							},
							{
								"astId": 276,
								"contract": "contracts/lottery.sol:enterLottery",
								"label": "amount",
								"offset": 0,
								"slot": "2",
								"type": "t_uint256"
							},
							{
								"astId": 278,
								"contract": "contracts/lottery.sol:enterLottery",
								"label": "playerAddress",
								"offset": 0,
								"slot": "3",
								"type": "t_address"
							},
							{
								"astId": 280,
								"contract": "contracts/lottery.sol:enterLottery",
								"label": "BalanceCredited",
								"offset": 20,
								"slot": "3",
								"type": "t_bool"
							}
						],
						"numberOfBytes": "128"
					},
					"t_uint256": {
						"encoding": "inplace",
						"label": "uint256",
						"numberOfBytes": "32"
					}
				}
			},
			"userdoc": {
				"kind": "user",
				"methods": {},
				"version": 1
			}
		}
	}
}